{
	"data": {
		"bytecode": {
			"linkReferences": {},
			"object": "60c06040523480156200001157600080fd5b50604051620079af380380620079af833981810160405281019062000037919062000228565b600062000049620001a860201b60201c565b9050806000806101000a81548173ffffffffffffffffffffffffffffffffffffffff021916908373ffffffffffffffffffffffffffffffffffffffff1602179055508073ffffffffffffffffffffffffffffffffffffffff16600073ffffffffffffffffffffffffffffffffffffffff167f8be0079c531659141344cd1fd0a4f28419497f9722a3daafe3b4186f6b6457e060405160405180910390a35060008060146101000a81548160ff0219169083151502179055508073ffffffffffffffffffffffffffffffffffffffff1660808173ffffffffffffffffffffffffffffffffffffffff1681525050806040516200014490620001b0565b6200015091906200026b565b604051809103906000f0801580156200016d573d6000803e3d6000fd5b5073ffffffffffffffffffffffffffffffffffffffff1660a08173ffffffffffffffffffffffffffffffffffffffff16815250505062000288565b600033905090565b615d338062001c7c83390190565b600080fd5b600073ffffffffffffffffffffffffffffffffffffffff82169050919050565b6000620001f082620001c3565b9050919050565b6200020281620001e3565b81146200020e57600080fd5b50565b6000815190506200022281620001f7565b92915050565b600060208284031215620002415762000240620001be565b5b6000620002518482850162000211565b91505092915050565b6200026581620001e3565b82525050565b60006020820190506200028260008301846200025a565b92915050565b60805160a0516119c7620002b5600039600081816105e30152610798015260006107bc01526119c76000f3fe60806040523480156200001157600080fd5b5060043610620000b85760003560e01c80638da5cb5b116200007b5780638da5cb5b1462000139578063a7c6a100146200015b578063bdc01110146200017d578063d7dfa0dd14620001b3578063e06174e414620001d5578063f2fde38b14620001f757620000b8565b80633f4ba83a14620000bd5780635c975abb14620000c9578063715018a614620000eb5780638456cb5914620000f75780638c64ea4a1462000103575b600080fd5b620000c762000217565b005b620000d3620002a6565b604051620000e2919062000b1a565b60405180910390f35b620000f5620002bc565b005b62000101620003fd565b005b6200012160048036038101906200011b919062000b86565b6200048c565b60405162000130919062000bfd565b60405180910390f35b62000143620004bf565b60405162000152919062000bfd565b60405180910390f35b62000165620004e8565b60405162000174919062000c2b565b60405180910390f35b6200019b600480360381019062000195919062000ddb565b620004ee565b604051620001aa919062000c2b565b60405180910390f35b620001bd62000796565b604051620001cc919062000bfd565b60405180910390f35b620001df620007ba565b604051620001ee919062000bfd565b60405180910390f35b6200021560048036038101906200020f919062000ecc565b620007de565b005b6200022162000991565b73ffffffffffffffffffffffffffffffffffffffff1662000241620004bf565b73ffffffffffffffffffffffffffffffffffffffff16146200029a576040517f08c379a0000000000000000000000000000000000000000000000000000000008152600401620002919062000f5f565b60405180910390fd5b620002a462000999565b565b60008060149054906101000a900460ff16905090565b620002c662000991565b73ffffffffffffffffffffffffffffffffffffffff16620002e6620004bf565b73ffffffffffffffffffffffffffffffffffffffff16146200033f576040517f08c379a0000000000000000000000000000000000000000000000000000000008152600401620003369062000f5f565b60405180910390fd5b600073ffffffffffffffffffffffffffffffffffffffff1660008054906101000a900473ffffffffffffffffffffffffffffffffffffffff1673ffffffffffffffffffffffffffffffffffffffff167f8be0079c531659141344cd1fd0a4f28419497f9722a3daafe3b4186f6b6457e060405160405180910390a360008060006101000a81548173ffffffffffffffffffffffffffffffffffffffff021916908373ffffffffffffffffffffffffffffffffffffffff160217905550565b6200040762000991565b73ffffffffffffffffffffffffffffffffffffffff1662000427620004bf565b73ffffffffffffffffffffffffffffffffffffffff161462000480576040517f08c379a0000000000000000000000000000000000000000000000000000000008152600401620004779062000f5f565b60405180910390fd5b6200048a62000a43565b565b60026020528060005260406000206000915054906101000a900473ffffffffffffffffffffffffffffffffffffffff1681565b60008060009054906101000a900473ffffffffffffffffffffffffffffffffffffffff16905090565b60015481565b6000620004fa620002a6565b156200053d576040517f08c379a0000000000000000000000000000000000000000000000000000000008152600401620005349062000fd1565b60405180910390fd5b60003387878787878e8e6040516024016200056098979695949392919062001075565b6040516020818303038152906040527f626fb2f0000000000000000000000000000000000000000000000000000000007bffffffffffffffffffffffffffffffffffffffffffffffffffffffff19166020820180517bffffffffffffffffffffffffffffffffffffffffffffffffffffffff8381831617835250505050905060007f000000000000000000000000000000000000000000000000000000000000000082604051620006119062000aef565b6200061e9291906200116e565b604051809103906000f0801580156200063b573d6000803e3d6000fd5b5090508773ffffffffffffffffffffffffffffffffffffffff167ff9c32fbc56ff04f32a233ebc26e388564223745e28abd8d0781dd906537f563e8887846001546040516200068e9493929190620011a2565b60405180910390a28773ffffffffffffffffffffffffffffffffffffffff166342842e0e33838a6040518463ffffffff1660e01b8152600401620006d593929190620011ef565b600060405180830381600087803b158015620006f057600080fd5b505af115801562000705573d6000803e3d6000fd5b505050508060026000600154815260200190815260200160002060006101000a81548173ffffffffffffffffffffffffffffffffffffffff021916908373ffffffffffffffffffffffffffffffffffffffff1602179055506001600081548092919062000772906200125b565b919050555060018054620007879190620012a9565b92505050979650505050505050565b7f000000000000000000000000000000000000000000000000000000000000000081565b7f000000000000000000000000000000000000000000000000000000000000000081565b620007e862000991565b73ffffffffffffffffffffffffffffffffffffffff1662000808620004bf565b73ffffffffffffffffffffffffffffffffffffffff161462000861576040517f08c379a0000000000000000000000000000000000000000000000000000000008152600401620008589062000f5f565b60405180910390fd5b600073ffffffffffffffffffffffffffffffffffffffff168173ffffffffffffffffffffffffffffffffffffffff161415620008d4576040517f08c379a0000000000000000000000000000000000000000000000000000000008152600401620008cb906200135a565b60405180910390fd5b8073ffffffffffffffffffffffffffffffffffffffff1660008054906101000a900473ffffffffffffffffffffffffffffffffffffffff1673ffffffffffffffffffffffffffffffffffffffff167f8be0079c531659141344cd1fd0a4f28419497f9722a3daafe3b4186f6b6457e060405160405180910390a3806000806101000a81548173ffffffffffffffffffffffffffffffffffffffff021916908373ffffffffffffffffffffffffffffffffffffffff16021790555050565b600033905090565b620009a3620002a6565b620009e5576040517f08c379a0000000000000000000000000000000000000000000000000000000008152600401620009dc90620013cc565b60405180910390fd5b60008060146101000a81548160ff0219169083151502179055507f5db9ee0a495bf2e6ff9c91a7834c1ba4fdd244a5e8aa4e537bd38aeae4b073aa62000a2a62000991565b60405162000a39919062000bfd565b60405180910390a1565b62000a4d620002a6565b1562000a90576040517f08c379a000000000000000000000000000000000000000000000000000000000815260040162000a879062000fd1565b60405180910390fd5b6001600060146101000a81548160ff0219169083151502179055507f62e78cea01bee320cd4e420270b5ea74000d11b0c9f74754ebdbfc544b05a25862000ad662000991565b60405162000ae5919062000bfd565b60405180910390a1565b6105a380620013ef83390190565b60008115159050919050565b62000b148162000afd565b82525050565b600060208201905062000b31600083018462000b09565b92915050565b6000604051905090565b600080fd5b600080fd5b6000819050919050565b62000b608162000b4b565b811462000b6c57600080fd5b50565b60008135905062000b808162000b55565b92915050565b60006020828403121562000b9f5762000b9e62000b41565b5b600062000baf8482850162000b6f565b91505092915050565b600073ffffffffffffffffffffffffffffffffffffffff82169050919050565b600062000be58262000bb8565b9050919050565b62000bf78162000bd8565b82525050565b600060208201905062000c14600083018462000bec565b92915050565b62000c258162000b4b565b82525050565b600060208201905062000c42600083018462000c1a565b92915050565b600080fd5b600080fd5b6000601f19601f8301169050919050565b7f4e487b7100000000000000000000000000000000000000000000000000000000600052604160045260246000fd5b62000c9d8262000c52565b810181811067ffffffffffffffff8211171562000cbf5762000cbe62000c63565b5b80604052505050565b600062000cd462000b37565b905062000ce2828262000c92565b919050565b600067ffffffffffffffff82111562000d055762000d0462000c63565b5b62000d108262000c52565b9050602081019050919050565b82818337600083830152505050565b600062000d4362000d3d8462000ce7565b62000cc8565b90508281526020810184848401111562000d625762000d6162000c4d565b5b62000d6f84828562000d1d565b509392505050565b600082601f83011262000d8f5762000d8e62000c48565b5b813562000da184826020860162000d2c565b91505092915050565b62000db58162000bd8565b811462000dc157600080fd5b50565b60008135905062000dd58162000daa565b92915050565b600080600080600080600060e0888a03121562000dfd5762000dfc62000b41565b5b600088013567ffffffffffffffff81111562000e1e5762000e1d62000b46565b5b62000e2c8a828b0162000d77565b975050602088013567ffffffffffffffff81111562000e505762000e4f62000b46565b5b62000e5e8a828b0162000d77565b965050604062000e718a828b0162000dc4565b955050606062000e848a828b0162000b6f565b945050608062000e978a828b0162000b6f565b93505060a062000eaa8a828b0162000b6f565b92505060c062000ebd8a828b0162000b6f565b91505092959891949750929550565b60006020828403121562000ee55762000ee462000b41565b5b600062000ef58482850162000dc4565b91505092915050565b600082825260208201905092915050565b7f4f776e61626c653a2063616c6c6572206973206e6f7420746865206f776e6572600082015250565b600062000f4760208362000efe565b915062000f548262000f0f565b602082019050919050565b6000602082019050818103600083015262000f7a8162000f38565b9050919050565b7f5061757361626c653a2070617573656400000000000000000000000000000000600082015250565b600062000fb960108362000efe565b915062000fc68262000f81565b602082019050919050565b6000602082019050818103600083015262000fec8162000faa565b9050919050565b600081519050919050565b60005b838110156200101e57808201518184015260208101905062001001565b838111156200102e576000848401525b50505050565b6000620010418262000ff3565b6200104d818562000efe565b93506200105f81856020860162000ffe565b6200106a8162000c52565b840191505092915050565b6000610100820190506200108d600083018b62000bec565b6200109c602083018a62000bec565b620010ab604083018962000c1a565b620010ba606083018862000c1a565b620010c9608083018762000c1a565b620010d860a083018662000c1a565b81810360c0830152620010ec818562001034565b905081810360e083015262001102818462001034565b90509998505050505050505050565b600081519050919050565b600082825260208201905092915050565b60006200113a8262001111565b6200114681856200111c565b93506200115881856020860162000ffe565b620011638162000c52565b840191505092915050565b600060408201905062001185600083018562000bec565b81810360208301526200119981846200112d565b90509392505050565b6000608082019050620011b9600083018762000c1a565b620011c8602083018662000c1a565b620011d7604083018562000bec565b620011e6606083018462000c1a565b95945050505050565b600060608201905062001206600083018662000bec565b62001215602083018562000bec565b62001224604083018462000c1a565b949350505050565b7f4e487b7100000000000000000000000000000000000000000000000000000000600052601160045260246000fd5b6000620012688262000b4b565b91507fffffffffffffffffffffffffffffffffffffffffffffffffffffffffffffffff8214156200129e576200129d6200122c565b5b600182019050919050565b6000620012b68262000b4b565b9150620012c38362000b4b565b925082821015620012d957620012d86200122c565b5b828203905092915050565b7f4f776e61626c653a206e6577206f776e657220697320746865207a65726f206160008201527f6464726573730000000000000000000000000000000000000000000000000000602082015250565b60006200134260268362000efe565b91506200134f82620012e4565b604082019050919050565b60006020820190508181036000830152620013758162001333565b9050919050565b7f5061757361626c653a206e6f7420706175736564000000000000000000000000600082015250565b6000620013b460148362000efe565b9150620013c1826200137c565b602082019050919050565b60006020820190508181036000830152620013e781620013a5565b905091905056fe60a060405234801561001057600080fd5b506040516105a33803806105a3833981810160405281019061003291906102fc565b8173ffffffffffffffffffffffffffffffffffffffff1660808173ffffffffffffffffffffffffffffffffffffffff16815250506000808373ffffffffffffffffffffffffffffffffffffffff168360405161008e919061039f565b600060405180830381855af49150503d80600081146100c9576040519150601f19603f3d011682016040523d82523d6000602084013e6100ce565b606091505b5091509150818190610116576040517f08c379a000000000000000000000000000000000000000000000000000000000815260040161010d919061040b565b60405180910390fd5b505050505061042d565b6000604051905090565b600080fd5b600080fd5b600073ffffffffffffffffffffffffffffffffffffffff82169050919050565b600061015f82610134565b9050919050565b61016f81610154565b811461017a57600080fd5b50565b60008151905061018c81610166565b92915050565b600080fd5b600080fd5b6000601f19601f8301169050919050565b7f4e487b7100000000000000000000000000000000000000000000000000000000600052604160045260246000fd5b6101e58261019c565b810181811067ffffffffffffffff82111715610204576102036101ad565b5b80604052505050565b6000610217610120565b905061022382826101dc565b919050565b600067ffffffffffffffff821115610243576102426101ad565b5b61024c8261019c565b9050602081019050919050565b60005b8381101561027757808201518184015260208101905061025c565b83811115610286576000848401525b50505050565b600061029f61029a84610228565b61020d565b9050828152602081018484840111156102bb576102ba610197565b5b6102c6848285610259565b509392505050565b600082601f8301126102e3576102e2610192565b5b81516102f384826020860161028c565b91505092915050565b600080604083850312156103135761031261012a565b5b60006103218582860161017d565b925050602083015167ffffffffffffffff8111156103425761034161012f565b5b61034e858286016102ce565b9150509250929050565b600081519050919050565b600081905092915050565b600061037982610358565b6103838185610363565b9350610393818560208601610259565b80840191505092915050565b60006103ab828461036e565b915081905092915050565b600081519050919050565b600082825260208201905092915050565b60006103dd826103b6565b6103e781856103c1565b93506103f7818560208601610259565b6104008161019c565b840191505092915050565b6000602082019050818103600083015261042581846103d2565b905092915050565b60805161015661044d60003960008181602d015260a201526101566000f3fe6080604052600436106100225760003560e01c8063d7dfa0dd1461007557610029565b3661002957005b60007f0000000000000000000000000000000000000000000000000000000000000000905060405136600082376000803683855af43d806000843e8160008114610071578184f35b8184fd5b34801561008157600080fd5b5061008a6100a0565b6040516100979190610105565b60405180910390f35b7f000000000000000000000000000000000000000000000000000000000000000081565b600073ffffffffffffffffffffffffffffffffffffffff82169050919050565b60006100ef826100c4565b9050919050565b6100ff816100e4565b82525050565b600060208201905061011a60008301846100f6565b9291505056fea26469706673582212202937f5d7cdf0b1bacd6a46578898b0bb05036694ae9e9b5984b1c3329007897d64736f6c634300080a0033a264697066735822122005b56c5d92a6108971c55f05a4efc14a434855f23fa8afacabcec27f4219b24464736f6c634300080a003360a06040523480156200001157600080fd5b5060405162005d3338038062005d338339818101604052810190620000379190620000dc565b8073ffffffffffffffffffffffffffffffffffffffff1660808173ffffffffffffffffffffffffffffffffffffffff1681525050506200010e565b600080fd5b600073ffffffffffffffffffffffffffffffffffffffff82169050919050565b6000620000a48262000077565b9050919050565b620000b68162000097565b8114620000c257600080fd5b50565b600081519050620000d681620000ab565b92915050565b600060208284031215620000f557620000f462000072565b5b60006200010584828501620000c5565b91505092915050565b608051615bae6200018560003960008181610b8501528181610eb90152818161108901528181611124015281816116af0152818161179f0152818161195401528181611a4401528181611c6a01528181612041015281816126ac015281816129460152818161354301526135d80152615bae6000f3fe6080604052600436106102515760003560e01c806380436fe011610139578063be040fb0116100b6578063dd62ed3e1161007a578063dd62ed3e14610866578063ddca3f43146108a3578063e06174e4146108ce578063e66f53b7146108f9578063efbe1c1c14610924578063fc0c546a1461093b57610251565b8063be040fb0146107c6578063be9a6555146107dd578063c91de649146107e7578063d294f09314610824578063db2e1eed1461083b57610251565b80639a4e6d34116100fd5780639a4e6d34146106cb578063a457c2d7146106f6578063a9059cbb14610733578063adc1b95614610770578063af640d0f1461079b57610251565b806380436fe01461060c578063853a1b90146106355780639012c4a81461066057806395d89b4114610689578063961be391146106b457610251565b8063313ce567116101d2578063626fb2f011610196578063626fb2f0146104fc5780636a775714146105255780636da84e6c1461054e57806370a08231146105795780637b5581ed146105b65780637fb45099146105e157610251565b8063313ce56714610413578063325c25a21461043e57806339509351146104695780633fc8cef3146104a65780635c9920fc146104d157610251565b80631998aeef116102195780631998aeef1461034f57806323b872dd146103595780632a24f46c146103965780632a44f120146103c15780632bf33bd9146103ea57610251565b806306fdde0314610256578063095ea7b3146102815780630c6a62dd146102be578063150b7a02146102e757806318160ddd14610324575b600080fd5b34801561026257600080fd5b5061026b610966565b6040516102789190613fdf565b60405180910390f35b34801561028d57600080fd5b506102a860048036038101906102a391906140a9565b6109f8565b6040516102b59190614104565b60405180910390f35b3480156102ca57600080fd5b506102e560048036038101906102e0919061411f565b610a16565b005b3480156102f357600080fd5b5061030e60048036038101906103099190614281565b610aea565b60405161031b919061433f565b60405180910390f35b34801561033057600080fd5b50610339610afe565b6040516103469190614369565b60405180910390f35b610357610b08565b005b34801561036557600080fd5b50610380600480360381019061037b9190614384565b610db9565b60405161038d9190614104565b60405180910390f35b3480156103a257600080fd5b506103ab610eb1565b6040516103b89190614369565b60405180910390f35b3480156103cd57600080fd5b506103e860048036038101906103e3919061411f565b610eb7565b005b3480156103f657600080fd5b50610411600480360381019061040c91906143d7565b610ff7565b005b34801561041f57600080fd5b50610428611237565b6040516104359190614420565b60405180910390f35b34801561044a57600080fd5b50610453611240565b6040516104609190614369565b60405180910390f35b34801561047557600080fd5b50610490600480360381019061048b91906140a9565b611246565b60405161049d9190614104565b60405180910390f35b3480156104b257600080fd5b506104bb6112f2565b6040516104c8919061444a565b60405180910390f35b3480156104dd57600080fd5b506104e661130a565b6040516104f39190614104565b60405180910390f35b34801561050857600080fd5b50610523600480360381019061051e9190614506565b61131d565b005b34801561053157600080fd5b5061054c600480360381019061054791906143d7565b61152a565b005b34801561055a57600080fd5b50610563611c00565b6040516105709190614369565b60405180910390f35b34801561058557600080fd5b506105a0600480360381019061059b919061411f565b611c06565b6040516105ad9190614369565b60405180910390f35b3480156105c257600080fd5b506105cb611c4f565b6040516105d89190614369565b60405180910390f35b3480156105ed57600080fd5b506105f6611c55565b604051610603919061466b565b60405180910390f35b34801561061857600080fd5b50610633600480360381019061062e919061411f565b611c68565b005b34801561064157600080fd5b5061064a611f45565b60405161065791906146a7565b60405180910390f35b34801561066c57600080fd5b50610687600480360381019061068291906143d7565b611f6b565b005b34801561069557600080fd5b5061069e61215d565b6040516106ab9190613fdf565b60405180910390f35b3480156106c057600080fd5b506106c96121ef565b005b3480156106d757600080fd5b506106e061233d565b6040516106ed9190614369565b60405180910390f35b34801561070257600080fd5b5061071d600480360381019061071891906140a9565b612343565b60405161072a9190614104565b60405180910390f35b34801561073f57600080fd5b5061075a600480360381019061075591906140a9565b61242e565b6040516107679190614104565b60405180910390f35b34801561077c57600080fd5b5061078561244c565b6040516107929190614369565b60405180910390f35b3480156107a757600080fd5b506107b0612452565b6040516107bd9190614369565b60405180910390f35b3480156107d257600080fd5b506107db612458565b005b6107e56125e2565b005b3480156107f357600080fd5b5061080e6004803603810190610809919061411f565b61286d565b60405161081b9190614369565b60405180910390f35b34801561083057600080fd5b50610839612885565b005b34801561084757600080fd5b5061085061288f565b60405161085d9190614369565b60405180910390f35b34801561087257600080fd5b5061088d600480360381019061088891906146c2565b6128b7565b60405161089a9190614369565b60405180910390f35b3480156108af57600080fd5b506108b861293e565b6040516108c59190614369565b60405180910390f35b3480156108da57600080fd5b506108e3612944565b6040516108f0919061444a565b60405180910390f35b34801561090557600080fd5b5061090e612968565b60405161091b919061444a565b60405180910390f35b34801561093057600080fd5b5061093961298e565b005b34801561094757600080fd5b50610950612ba5565b60405161095d919061444a565b60405180910390f35b60606036805461097590614731565b80601f01602080910402602001604051908101604052809291908181526020018280546109a190614731565b80156109ee5780601f106109c3576101008083540402835291602001916109ee565b820191906000526020600020905b8154815290600101906020018083116109d157829003601f168201915b5050505050905090565b6000610a0c610a05612bcb565b8484612bd3565b6001905092915050565b609e60009054906101000a900473ffffffffffffffffffffffffffffffffffffffff1673ffffffffffffffffffffffffffffffffffffffff163373ffffffffffffffffffffffffffffffffffffffff1614610aa6576040517f08c379a0000000000000000000000000000000000000000000000000000000008152600401610a9d906147af565b60405180910390fd5b80609e60006101000a81548173ffffffffffffffffffffffffffffffffffffffff021916908373ffffffffffffffffffffffffffffffffffffffff16021790555050565b600063150b7a0260e01b9050949350505050565b6000603554905090565b60016003811115610b1c57610b1b6145f4565b5b609d60149054906101000a900460ff166003811115610b3e57610b3d6145f4565b5b14610b7e576040517f08c379a0000000000000000000000000000000000000000000000000000000008152600401610b759061481b565b60405180910390fd5b60006103e87f000000000000000000000000000000000000000000000000000000000000000073ffffffffffffffffffffffffffffffffffffffff16637c513c0f6040518163ffffffff1660e01b81526004016020604051808303816000875af1158015610bf0573d6000803e3d6000fd5b505050506040513d601f19601f82011682018060405250810190610c149190614850565b610c1e91906148ac565b905080609c54610c2e9190614902565b6103e834610c3c9190614902565b1015610c7d576040517f08c379a0000000000000000000000000000000000000000000000000000000008152600401610c74906149a8565b60405180910390fd5b6099544210610cc1576040517f08c379a0000000000000000000000000000000000000000000000000000000008152600401610cb890614a14565b60405180910390fd5b61038442609954610cd29190614a34565b11610cf257603c60996000828254610cea91906148ac565b925050819055505b610d20609d60009054906101000a900473ffffffffffffffffffffffffffffffffffffffff16609c54612d9e565b34609c8190555033609d60006101000a81548173ffffffffffffffffffffffffffffffffffffffff021916908373ffffffffffffffffffffffffffffffffffffffff1602179055503373ffffffffffffffffffffffffffffffffffffffff167fe684a55f31b79eca403df938249029212a5925ec6be8012e099b45bc1019e5d234604051610dae9190614369565b60405180910390a250565b6000610dc6848484612eb9565b6000603460008673ffffffffffffffffffffffffffffffffffffffff1673ffffffffffffffffffffffffffffffffffffffff1681526020019081526020016000206000610e11612bcb565b73ffffffffffffffffffffffffffffffffffffffff1673ffffffffffffffffffffffffffffffffffffffff16815260200190815260200160002054905082811015610e91576040517f08c379a0000000000000000000000000000000000000000000000000000000008152600401610e8890614ada565b60405180910390fd5b610ea585610e9d612bcb565b858403612bd3565b60019150509392505050565b60995481565b7f000000000000000000000000000000000000000000000000000000000000000073ffffffffffffffffffffffffffffffffffffffff16638da5cb5b6040518163ffffffff1660e01b8152600401602060405180830381865afa158015610f22573d6000803e3d6000fd5b505050506040513d601f19601f82011682018060405250810190610f469190614b0f565b73ffffffffffffffffffffffffffffffffffffffff163373ffffffffffffffffffffffffffffffffffffffff1614610fb3576040517f08c379a0000000000000000000000000000000000000000000000000000000008152600401610faa90614b88565b60405180910390fd5b80609e60006101000a81548173ffffffffffffffffffffffffffffffffffffffff021916908373ffffffffffffffffffffffffffffffffffffffff16021790555050565b609e60009054906101000a900473ffffffffffffffffffffffffffffffffffffffff1673ffffffffffffffffffffffffffffffffffffffff163373ffffffffffffffffffffffffffffffffffffffff1614611087576040517f08c379a000000000000000000000000000000000000000000000000000000000815260040161107e906147af565b60405180910390fd5b7f000000000000000000000000000000000000000000000000000000000000000073ffffffffffffffffffffffffffffffffffffffff1663a0b335e36040518163ffffffff1660e01b81526004016020604051808303816000875af11580156110f4573d6000803e3d6000fd5b505050506040513d601f19601f820116820180604052508101906111189190614850565b81101580156111b757507f000000000000000000000000000000000000000000000000000000000000000073ffffffffffffffffffffffffffffffffffffffff16630e519ef96040518163ffffffff1660e01b81526004016020604051808303816000875af115801561118f573d6000803e3d6000fd5b505050506040513d601f19601f820116820180604052508101906111b39190614850565b8111155b6111f6576040517f08c379a00000000000000000000000000000000000000000000000000000000081526004016111ed90614bf4565b60405180910390fd5b80609a819055507f4ab86ae701798277aa378943b9dfd155d3b19703cd57be298908fadd32f7bf468160405161122c9190614369565b60405180910390a150565b60006012905090565b609a5481565b60006112e8611253612bcb565b848460346000611261612bcb565b73ffffffffffffffffffffffffffffffffffffffff1673ffffffffffffffffffffffffffffffffffffffff16815260200190815260200160002060008873ffffffffffffffffffffffffffffffffffffffff1673ffffffffffffffffffffffffffffffffffffffff168152602001908152602001600020546112e391906148ac565b612bd3565b6001905092915050565b73c02aaa39b223fe8d0a0e5c4f27ead9083c756cc281565b60a160009054906101000a900460ff1681565b600060019054906101000a900460ff1680611343575060008054906101000a900460ff16155b611382576040517f08c379a000000000000000000000000000000000000000000000000000000000815260040161137990614c86565b60405180910390fd5b60008060019054906101000a900460ff1615905080156113d2576001600060016101000a81548160ff02191690831515021790555060016000806101000a81548160ff0219169083151502179055505b6113dc838361313d565b6113e461322a565b87609760006101000a81548173ffffffffffffffffffffffffffffffffffffffff021916908373ffffffffffffffffffffffffffffffffffffffff160217905550866098819055506203f480609a8190555088609e60006101000a81548173ffffffffffffffffffffffffffffffffffffffff021916908373ffffffffffffffffffffffffffffffffffffffff16021790555083609f819055504260a0819055506000609d60146101000a81548160ff021916908360038111156114ab576114aa6145f4565b5b02179055508460a360008b73ffffffffffffffffffffffffffffffffffffffff1673ffffffffffffffffffffffffffffffffffffffff168152602001908152602001600020819055506114fe898761330b565b801561151f5760008060016101000a81548160ff0219169083151502179055505b505050505050505050565b6000600381111561153e5761153d6145f4565b5b609d60149054906101000a900460ff1660038111156115605761155f6145f4565b5b146115a0576040517f08c379a000000000000000000000000000000000000000000000000000000000815260040161159790614d18565b60405180910390fd5b600060a360003373ffffffffffffffffffffffffffffffffffffffff1673ffffffffffffffffffffffffffffffffffffffff16815260200190815260200160002054905080821415611627576040517f08c379a000000000000000000000000000000000000000000000000000000000815260040161161e90614d84565b60405180910390fd5b600061163233611c06565b9050600060a254141561165d578060a28190555082816116529190614902565b609b81905550611b69565b60a2548114801561166f575060008214155b1561168b5782816116809190614902565b609b81905550611b68565b60008214156118cd57600060a254609b546116a69190614dd3565b905060006103e87f000000000000000000000000000000000000000000000000000000000000000073ffffffffffffffffffffffffffffffffffffffff166309990a966040518163ffffffff1660e01b81526004016020604051808303816000875af115801561171a573d6000803e3d6000fd5b505050506040513d601f19601f8201168201806040525081019061173e9190614850565b836117499190614902565b6117539190614dd3565b905080851015611798576040517f08c379a000000000000000000000000000000000000000000000000000000000815260040161178f90614e50565b60405180910390fd5b60006103e87f000000000000000000000000000000000000000000000000000000000000000073ffffffffffffffffffffffffffffffffffffffff16635410bfc96040518163ffffffff1660e01b81526004016020604051808303816000875af115801561180a573d6000803e3d6000fd5b505050506040513d601f19601f8201168201806040525081019061182e9190614850565b846118399190614902565b6118439190614dd3565b905080861115611888576040517f08c379a000000000000000000000000000000000000000000000000000000000815260040161187f90614ebc565b60405180910390fd5b8360a2600082825461189a91906148ac565b9250508190555085846118ad9190614902565b609b60008282546118be91906148ac565b92505081905550505050611b67565b6000831415611918578060a260008282546118e89190614a34565b9250508190555081816118fb9190614902565b609b600082825461190c9190614a34565b92505081905550611b66565b60008160a2546119289190614a34565b82846119349190614902565b609b546119419190614a34565b61194b9190614dd3565b905060006103e87f000000000000000000000000000000000000000000000000000000000000000073ffffffffffffffffffffffffffffffffffffffff166309990a966040518163ffffffff1660e01b81526004016020604051808303816000875af11580156119bf573d6000803e3d6000fd5b505050506040513d601f19601f820116820180604052508101906119e39190614850565b836119ee9190614902565b6119f89190614dd3565b905080851015611a3d576040517f08c379a0000000000000000000000000000000000000000000000000000000008152600401611a3490614e50565b60405180910390fd5b60006103e87f000000000000000000000000000000000000000000000000000000000000000073ffffffffffffffffffffffffffffffffffffffff16635410bfc96040518163ffffffff1660e01b81526004016020604051808303816000875af1158015611aaf573d6000803e3d6000fd5b505050506040513d601f19601f82011682018060405250810190611ad39190614850565b84611ade9190614902565b611ae89190614dd3565b905080861115611b2d576040517f08c379a0000000000000000000000000000000000000000000000000000000008152600401611b2490614ebc565b60405180910390fd5b8484611b399190614902565b8685611b459190614902565b609b54611b5291906148ac565b611b5c9190614a34565b609b819055505050505b5b5b5b8260a360003373ffffffffffffffffffffffffffffffffffffffff1673ffffffffffffffffffffffffffffffffffffffff168152602001908152602001600020819055503373ffffffffffffffffffffffffffffffffffffffff167f64e6e7bd72b853c4e62fd6ceaca05a104700c70a4cb567c75c7f2242ba7f037c84604051611bf39190614369565b60405180910390a2505050565b609c5481565b6000603360008373ffffffffffffffffffffffffffffffffffffffff1673ffffffffffffffffffffffffffffffffffffffff168152602001908152602001600020549050919050565b609b5481565b609d60149054906101000a900460ff1681565b7f000000000000000000000000000000000000000000000000000000000000000073ffffffffffffffffffffffffffffffffffffffff16638da5cb5b6040518163ffffffff1660e01b8152600401602060405180830381865afa158015611cd3573d6000803e3d6000fd5b505050506040513d601f19601f82011682018060405250810190611cf79190614b0f565b73ffffffffffffffffffffffffffffffffffffffff163373ffffffffffffffffffffffffffffffffffffffff1614611d64576040517f08c379a0000000000000000000000000000000000000000000000000000000008152600401611d5b90614f28565b60405180910390fd5b60006003811115611d7857611d776145f4565b5b609d60149054906101000a900460ff166003811115611d9a57611d996145f4565b5b14611dda576040517f08c379a0000000000000000000000000000000000000000000000000000000008152600401611dd190614d18565b60405180910390fd5b600060a360008373ffffffffffffffffffffffffffffffffffffffff1673ffffffffffffffffffffffffffffffffffffffff1681526020019081526020016000205490508060001415611e62576040517f08c379a0000000000000000000000000000000000000000000000000000000008152600401611e5990614d84565b60405180910390fd5b6000611e6d83611c06565b90508060a26000828254611e819190614a34565b925050819055508181611e949190614902565b609b6000828254611ea59190614a34565b92505081905550600060a360008573ffffffffffffffffffffffffffffffffffffffff1673ffffffffffffffffffffffffffffffffffffffff168152602001908152602001600020819055508273ffffffffffffffffffffffffffffffffffffffff167f64e6e7bd72b853c4e62fd6ceaca05a104700c70a4cb567c75c7f2242ba7f037c6000604051611f389190614f8d565b60405180910390a2505050565b609d60009054906101000a900473ffffffffffffffffffffffffffffffffffffffff1681565b609e60009054906101000a900473ffffffffffffffffffffffffffffffffffffffff1673ffffffffffffffffffffffffffffffffffffffff163373ffffffffffffffffffffffffffffffffffffffff1614611ffb576040517f08c379a0000000000000000000000000000000000000000000000000000000008152600401611ff2906147af565b60405180910390fd5b609f54811061203f576040517f08c379a000000000000000000000000000000000000000000000000000000000815260040161203690614ff4565b60405180910390fd5b7f000000000000000000000000000000000000000000000000000000000000000073ffffffffffffffffffffffffffffffffffffffff16638a364bc16040518163ffffffff1660e01b81526004016020604051808303816000875af11580156120ac573d6000803e3d6000fd5b505050506040513d601f19601f820116820180604052508101906120d09190614850565b811115612112576040517f08c379a000000000000000000000000000000000000000000000000000000000815260040161210990615086565b60405180910390fd5b61211a61346c565b80609f819055507f2d1dae59a9e9ec0bc2ab19d45b7d10c8c55304fa08b40a7998e9f67f03223d04609f546040516121529190614369565b60405180910390a150565b60606037805461216c90614731565b80601f016020809104026020016040519081016040528092919081815260200182805461219890614731565b80156121e55780601f106121ba576101008083540402835291602001916121e5565b820191906000526020600020905b8154815290600101906020018083116121c857829003601f168201915b5050505050905090565b60026003811115612203576122026145f4565b5b609d60149054906101000a900460ff166003811115612225576122246145f4565b5b14612265576040517f08c379a000000000000000000000000000000000000000000000000000000000815260040161225c906150f2565b60405180910390fd5b600061227033611c06565b9050600081116122b5576040517f08c379a00000000000000000000000000000000000000000000000000000000081526004016122ac9061515e565b60405180910390fd5b60006122bf610afe565b47836122cb9190614902565b6122d59190614dd3565b90506122e133836137ed565b6122eb3382612d9e565b3373ffffffffffffffffffffffffffffffffffffffff167f730831a1e4aa2d187ddd8e03d7beeac760a3927da5f112d645e0f8df7494b367826040516123319190614369565b60405180910390a25050565b60a25481565b60008060346000612352612bcb565b73ffffffffffffffffffffffffffffffffffffffff1673ffffffffffffffffffffffffffffffffffffffff16815260200190815260200160002060008573ffffffffffffffffffffffffffffffffffffffff1673ffffffffffffffffffffffffffffffffffffffff1681526020019081526020016000205490508281101561240f576040517f08c379a0000000000000000000000000000000000000000000000000000000008152600401612406906151f0565b60405180910390fd5b61242361241a612bcb565b85858403612bd3565b600191505092915050565b600061244261243b612bcb565b8484612eb9565b6001905092915050565b60a05481565b60985481565b6000600381111561246c5761246b6145f4565b5b609d60149054906101000a900460ff16600381111561248e5761248d6145f4565b5b146124ce576040517f08c379a00000000000000000000000000000000000000000000000000000000081526004016124c59061525c565b60405180910390fd5b6124df336124da610afe565b6137ed565b609760009054906101000a900473ffffffffffffffffffffffffffffffffffffffff1673ffffffffffffffffffffffffffffffffffffffff166323b872dd30336098546040518463ffffffff1660e01b81526004016125409392919061527c565b600060405180830381600087803b15801561255a57600080fd5b505af115801561256e573d6000803e3d6000fd5b505050506003609d60146101000a81548160ff02191690836003811115612598576125976145f4565b5b02179055503373ffffffffffffffffffffffffffffffffffffffff167fd1b5ea7fe0f1c2fa09d49c2aa9b2200664ba57a734f1d95481d95b7f99af991c60405160405180910390a2565b600060038111156125f6576125f56145f4565b5b609d60149054906101000a900460ff166003811115612618576126176145f4565b5b14612658576040517f08c379a000000000000000000000000000000000000000000000000000000000815260040161264f906152ff565b60405180910390fd5b61266061288f565b3410156126a2576040517f08c379a00000000000000000000000000000000000000000000000000000000081526004016126999061536b565b60405180910390fd5b6126aa610afe565b7f000000000000000000000000000000000000000000000000000000000000000073ffffffffffffffffffffffffffffffffffffffff166332977c736040518163ffffffff1660e01b81526004016020604051808303816000875af1158015612717573d6000803e3d6000fd5b505050506040513d601f19601f8201168201806040525081019061273b9190614850565b6127459190614902565b6103e860a2546127559190614902565b1015612796576040517f08c379a000000000000000000000000000000000000000000000000000000000815260040161278d906153d7565b60405180910390fd5b609a54426127a491906148ac565b6099819055506001609d60146101000a81548160ff021916908360038111156127d0576127cf6145f4565b5b021790555034609c8190555033609d60006101000a81548173ffffffffffffffffffffffffffffffffffffffff021916908373ffffffffffffffffffffffffffffffffffffffff1602179055503373ffffffffffffffffffffffffffffffffffffffff167fcfb9c5312b25ec7b809d61e638df25f749eae5d5c25399e1c93d1d319bfd5821346040516128639190614369565b60405180910390a2565b60a36020528060005260406000206000915090505481565b61288d61346c565b565b60008060a254146128af5760a254609b546128aa9190614dd3565b6128b2565b60005b905090565b6000603460008473ffffffffffffffffffffffffffffffffffffffff1673ffffffffffffffffffffffffffffffffffffffff16815260200190815260200160002060008373ffffffffffffffffffffffffffffffffffffffff1673ffffffffffffffffffffffffffffffffffffffff16815260200190815260200160002054905092915050565b609f5481565b7f000000000000000000000000000000000000000000000000000000000000000081565b609e60009054906101000a900473ffffffffffffffffffffffffffffffffffffffff1681565b600160038111156129a2576129a16145f4565b5b609d60149054906101000a900460ff1660038111156129c4576129c36145f4565b5b14612a04576040517f08c379a00000000000000000000000000000000000000000000000000000000081526004016129fb90615443565b60405180910390fd5b609954421015612a49576040517f08c379a0000000000000000000000000000000000000000000000000000000008152600401612a40906154af565b60405180910390fd5b612a5161346c565b609760009054906101000a900473ffffffffffffffffffffffffffffffffffffffff1673ffffffffffffffffffffffffffffffffffffffff166323b872dd30609d60009054906101000a900473ffffffffffffffffffffffffffffffffffffffff166098546040518463ffffffff1660e01b8152600401612ad493929190615524565b600060405180830381600087803b158015612aee57600080fd5b505af1158015612b02573d6000803e3d6000fd5b505050506002609d60146101000a81548160ff02191690836003811115612b2c57612b2b6145f4565b5b0217905550609d60009054906101000a900473ffffffffffffffffffffffffffffffffffffffff1673ffffffffffffffffffffffffffffffffffffffff167f8b01f9dd0400d6a1e84369a5fb8f6033934856ffa8ebadd707dca302ab551695609c54604051612b9b9190614369565b60405180910390a2565b609760009054906101000a900473ffffffffffffffffffffffffffffffffffffffff1681565b600033905090565b600073ffffffffffffffffffffffffffffffffffffffff168373ffffffffffffffffffffffffffffffffffffffff161415612c43576040517f08c379a0000000000000000000000000000000000000000000000000000000008152600401612c3a906155cd565b60405180910390fd5b600073ffffffffffffffffffffffffffffffffffffffff168273ffffffffffffffffffffffffffffffffffffffff161415612cb3576040517f08c379a0000000000000000000000000000000000000000000000000000000008152600401612caa9061565f565b60405180910390fd5b80603460008573ffffffffffffffffffffffffffffffffffffffff1673ffffffffffffffffffffffffffffffffffffffff16815260200190815260200160002060008473ffffffffffffffffffffffffffffffffffffffff1673ffffffffffffffffffffffffffffffffffffffff168152602001908152602001600020819055508173ffffffffffffffffffffffffffffffffffffffff168373ffffffffffffffffffffffffffffffffffffffff167f8c5be1e5ebec7d5bd14f71427d1e84f3dd0314c0f7b2291e5b200ac8c7c3b92583604051612d919190614369565b60405180910390a3505050565b612da882826139c6565b612eb55773c02aaa39b223fe8d0a0e5c4f27ead9083c756cc273ffffffffffffffffffffffffffffffffffffffff1663d0e30db0826040518263ffffffff1660e01b81526004016000604051808303818588803b158015612e0857600080fd5b505af1158015612e1c573d6000803e3d6000fd5b505050505073c02aaa39b223fe8d0a0e5c4f27ead9083c756cc273ffffffffffffffffffffffffffffffffffffffff1663a9059cbb83836040518363ffffffff1660e01b8152600401612e7092919061567f565b6020604051808303816000875af1158015612e8f573d6000803e3d6000fd5b505050506040513d601f19601f82011682018060405250810190612eb391906156d4565b505b5050565b600073ffffffffffffffffffffffffffffffffffffffff168373ffffffffffffffffffffffffffffffffffffffff161415612f29576040517f08c379a0000000000000000000000000000000000000000000000000000000008152600401612f2090615773565b60405180910390fd5b600073ffffffffffffffffffffffffffffffffffffffff168273ffffffffffffffffffffffffffffffffffffffff161415612f99576040517f08c379a0000000000000000000000000000000000000000000000000000000008152600401612f9090615805565b60405180910390fd5b612fa4838383613a42565b6000603360008573ffffffffffffffffffffffffffffffffffffffff1673ffffffffffffffffffffffffffffffffffffffff1681526020019081526020016000205490508181101561302b576040517f08c379a000000000000000000000000000000000000000000000000000000000815260040161302290615897565b60405180910390fd5b818103603360008673ffffffffffffffffffffffffffffffffffffffff1673ffffffffffffffffffffffffffffffffffffffff1681526020019081526020016000208190555081603360008573ffffffffffffffffffffffffffffffffffffffff1673ffffffffffffffffffffffffffffffffffffffff16815260200190815260200160002060008282546130c091906148ac565b925050819055508273ffffffffffffffffffffffffffffffffffffffff168473ffffffffffffffffffffffffffffffffffffffff167fddf252ad1be2c89b69c2b068fc378daa952ba7f163c4a11628f55a4df523b3ef846040516131249190614369565b60405180910390a3613137848484613be3565b50505050565b600060019054906101000a900460ff1680613163575060008054906101000a900460ff16155b6131a2576040517f08c379a000000000000000000000000000000000000000000000000000000000815260040161319990614c86565b60405180910390fd5b60008060019054906101000a900460ff1615905080156131f2576001600060016101000a81548160ff02191690831515021790555060016000806101000a81548160ff0219169083151502179055505b6131fa613be8565b6132048383613cc1565b80156132255760008060016101000a81548160ff0219169083151502179055505b505050565b600060019054906101000a900460ff1680613250575060008054906101000a900460ff16155b61328f576040517f08c379a000000000000000000000000000000000000000000000000000000000815260040161328690614c86565b60405180910390fd5b60008060019054906101000a900460ff1615905080156132df576001600060016101000a81548160ff02191690831515021790555060016000806101000a81548160ff0219169083151502179055505b6132e7613dca565b80156133085760008060016101000a81548160ff0219169083151502179055505b50565b600073ffffffffffffffffffffffffffffffffffffffff168273ffffffffffffffffffffffffffffffffffffffff16141561337b576040517f08c379a000000000000000000000000000000000000000000000000000000000815260040161337290615903565b60405180910390fd5b61338760008383613a42565b806035600082825461339991906148ac565b9250508190555080603360008473ffffffffffffffffffffffffffffffffffffffff1673ffffffffffffffffffffffffffffffffffffffff16815260200190815260200160002060008282546133ef91906148ac565b925050819055508173ffffffffffffffffffffffffffffffffffffffff16600073ffffffffffffffffffffffffffffffffffffffff167fddf252ad1be2c89b69c2b068fc378daa952ba7f163c4a11628f55a4df523b3ef836040516134549190614369565b60405180910390a361346860008383613be3565b5050565b600260038111156134805761347f6145f4565b5b609d60149054906101000a900460ff1660038111156134a2576134a16145f4565b5b14156134e3576040517f08c379a00000000000000000000000000000000000000000000000000000000081526004016134da90615995565b60405180910390fd5b60006103e86134f0610afe565b609f546134fd9190614902565b6135079190614dd3565b905060006301e133808261351b9190614dd3565b9050600060a0544261352d9190614a34565b90506000828261353d9190614902565b905060007f000000000000000000000000000000000000000000000000000000000000000073ffffffffffffffffffffffffffffffffffffffff1663b3f006746040518163ffffffff1660e01b81526004016020604051808303816000875af11580156135ae573d6000803e3d6000fd5b505050506040513d601f19601f820116820180604052508101906135d291906159e1565b905060007f000000000000000000000000000000000000000000000000000000000000000073ffffffffffffffffffffffffffffffffffffffff16630ea90a126040518163ffffffff1660e01b81526004016020604051808303816000875af1158015613643573d6000803e3d6000fd5b505050506040513d601f19601f820116820180604052508101906136679190614850565b90506103e8613674610afe565b8261367f9190614902565b6136899190614dd3565b95506301e133808661369b9190614dd3565b9450600085856136ab9190614902565b90504260a081905550600073ffffffffffffffffffffffffffffffffffffffff16609e60009054906101000a900473ffffffffffffffffffffffffffffffffffffffff1673ffffffffffffffffffffffffffffffffffffffff161461376e57613736609e60009054906101000a900473ffffffffffffffffffffffffffffffffffffffff168561330b565b7f62b10e3ff3d45b5ff546e740b893897facb1680285f989a64ae932d62c5388e1846040516137659190614369565b60405180910390a15b600073ffffffffffffffffffffffffffffffffffffffff168373ffffffffffffffffffffffffffffffffffffffff16146137e4576137ac838261330b565b7f62b10e3ff3d45b5ff546e740b893897facb1680285f989a64ae932d62c5388e1816040516137db9190614369565b60405180910390a15b50505050505050565b600073ffffffffffffffffffffffffffffffffffffffff168273ffffffffffffffffffffffffffffffffffffffff16141561385d576040517f08c379a000000000000000000000000000000000000000000000000000000000815260040161385490615a80565b60405180910390fd5b61386982600083613a42565b6000603360008473ffffffffffffffffffffffffffffffffffffffff1673ffffffffffffffffffffffffffffffffffffffff168152602001908152602001600020549050818110156138f0576040517f08c379a00000000000000000000000000000000000000000000000000000000081526004016138e790615b12565b60405180910390fd5b818103603360008573ffffffffffffffffffffffffffffffffffffffff1673ffffffffffffffffffffffffffffffffffffffff1681526020019081526020016000208190555081603560008282546139489190614a34565b92505081905550600073ffffffffffffffffffffffffffffffffffffffff168373ffffffffffffffffffffffffffffffffffffffff167fddf252ad1be2c89b69c2b068fc378daa952ba7f163c4a11628f55a4df523b3ef846040516139ad9190614369565b60405180910390a36139c183600084613be3565b505050565b6000808373ffffffffffffffffffffffffffffffffffffffff1683617530906040516139f190615b63565b600060405180830381858888f193505050503d8060008114613a2f576040519150601f19603f3d011682016040523d82523d6000602084013e613a34565b606091505b505090508091505092915050565b60006003811115613a5657613a556145f4565b5b609d60149054906101000a900460ff166003811115613a7857613a776145f4565b5b1415613bde57600060a360008573ffffffffffffffffffffffffffffffffffffffff1673ffffffffffffffffffffffffffffffffffffffff168152602001908152602001600020549050600060a360008573ffffffffffffffffffffffffffffffffffffffff1673ffffffffffffffffffffffffffffffffffffffff168152602001908152602001600020549050818114613bdb576000811415613b58578260a26000828254613b289190614a34565b925050819055508183613b3b9190614902565b609b6000828254613b4c9190614a34565b92505081905550613bda565b6000821415613ba3578260a26000828254613b7391906148ac565b925050819055508083613b869190614902565b609b6000828254613b9791906148ac565b92505081905550613bd9565b8183613baf9190614902565b8184613bbb9190614902565b609b54613bc891906148ac565b613bd29190614a34565b609b819055505b5b5b50505b505050565b505050565b600060019054906101000a900460ff1680613c0e575060008054906101000a900460ff16155b613c4d576040517f08c379a0000000000000000000000000000000000000000000000000000000008152600401613c4490614c86565b60405180910390fd5b60008060019054906101000a900460ff161590508015613c9d576001600060016101000a81548160ff02191690831515021790555060016000806101000a81548160ff0219169083151502179055505b8015613cbe5760008060016101000a81548160ff0219169083151502179055505b50565b600060019054906101000a900460ff1680613ce7575060008054906101000a900460ff16155b613d26576040517f08c379a0000000000000000000000000000000000000000000000000000000008152600401613d1d90614c86565b60405180910390fd5b60008060019054906101000a900460ff161590508015613d76576001600060016101000a81548160ff02191690831515021790555060016000806101000a81548160ff0219169083151502179055505b8260369080519060200190613d8c929190613ea3565b508160379080519060200190613da3929190613ea3565b508015613dc55760008060016101000a81548160ff0219169083151502179055505b505050565b600060019054906101000a900460ff1680613df0575060008054906101000a900460ff16155b613e2f576040517f08c379a0000000000000000000000000000000000000000000000000000000008152600401613e2690614c86565b60405180910390fd5b60008060019054906101000a900460ff161590508015613e7f576001600060016101000a81548160ff02191690831515021790555060016000806101000a81548160ff0219169083151502179055505b8015613ea05760008060016101000a81548160ff0219169083151502179055505b50565b828054613eaf90614731565b90600052602060002090601f016020900481019282613ed15760008555613f18565b82601f10613eea57805160ff1916838001178555613f18565b82800160010185558215613f18579182015b82811115613f17578251825591602001919060010190613efc565b5b509050613f259190613f29565b5090565b5b80821115613f42576000816000905550600101613f2a565b5090565b600081519050919050565b600082825260208201905092915050565b60005b83811015613f80578082015181840152602081019050613f65565b83811115613f8f576000848401525b50505050565b6000601f19601f8301169050919050565b6000613fb182613f46565b613fbb8185613f51565b9350613fcb818560208601613f62565b613fd481613f95565b840191505092915050565b60006020820190508181036000830152613ff98184613fa6565b905092915050565b6000604051905090565b600080fd5b600080fd5b600073ffffffffffffffffffffffffffffffffffffffff82169050919050565b600061404082614015565b9050919050565b61405081614035565b811461405b57600080fd5b50565b60008135905061406d81614047565b92915050565b6000819050919050565b61408681614073565b811461409157600080fd5b50565b6000813590506140a38161407d565b92915050565b600080604083850312156140c0576140bf61400b565b5b60006140ce8582860161405e565b92505060206140df85828601614094565b9150509250929050565b60008115159050919050565b6140fe816140e9565b82525050565b600060208201905061411960008301846140f5565b92915050565b6000602082840312156141355761413461400b565b5b60006141438482850161405e565b91505092915050565b600080fd5b600080fd5b7f4e487b7100000000000000000000000000000000000000000000000000000000600052604160045260246000fd5b61418e82613f95565b810181811067ffffffffffffffff821117156141ad576141ac614156565b5b80604052505050565b60006141c0614001565b90506141cc8282614185565b919050565b600067ffffffffffffffff8211156141ec576141eb614156565b5b6141f582613f95565b9050602081019050919050565b82818337600083830152505050565b600061422461421f846141d1565b6141b6565b9050828152602081018484840111156142405761423f614151565b5b61424b848285614202565b509392505050565b600082601f8301126142685761426761414c565b5b8135614278848260208601614211565b91505092915050565b6000806000806080858703121561429b5761429a61400b565b5b60006142a98782880161405e565b94505060206142ba8782880161405e565b93505060406142cb87828801614094565b925050606085013567ffffffffffffffff8111156142ec576142eb614010565b5b6142f887828801614253565b91505092959194509250565b60007fffffffff0000000000000000000000000000000000000000000000000000000082169050919050565b61433981614304565b82525050565b60006020820190506143546000830184614330565b92915050565b61436381614073565b82525050565b600060208201905061437e600083018461435a565b92915050565b60008060006060848603121561439d5761439c61400b565b5b60006143ab8682870161405e565b93505060206143bc8682870161405e565b92505060406143cd86828701614094565b9150509250925092565b6000602082840312156143ed576143ec61400b565b5b60006143fb84828501614094565b91505092915050565b600060ff82169050919050565b61441a81614404565b82525050565b60006020820190506144356000830184614411565b92915050565b61444481614035565b82525050565b600060208201905061445f600083018461443b565b92915050565b600067ffffffffffffffff8211156144805761447f614156565b5b61448982613f95565b9050602081019050919050565b60006144a96144a484614465565b6141b6565b9050828152602081018484840111156144c5576144c4614151565b5b6144d0848285614202565b509392505050565b600082601f8301126144ed576144ec61414c565b5b81356144fd848260208601614496565b91505092915050565b600080600080600080600080610100898b0312156145275761452661400b565b5b60006145358b828c0161405e565b98505060206145468b828c0161405e565b97505060406145578b828c01614094565b96505060606145688b828c01614094565b95505060806145798b828c01614094565b94505060a061458a8b828c01614094565b93505060c089013567ffffffffffffffff8111156145ab576145aa614010565b5b6145b78b828c016144d8565b92505060e089013567ffffffffffffffff8111156145d8576145d7614010565b5b6145e48b828c016144d8565b9150509295985092959890939650565b7f4e487b7100000000000000000000000000000000000000000000000000000000600052602160045260246000fd5b60048110614634576146336145f4565b5b50565b600081905061464582614623565b919050565b600061465582614637565b9050919050565b6146658161464a565b82525050565b6000602082019050614680600083018461465c565b92915050565b600061469182614015565b9050919050565b6146a181614686565b82525050565b60006020820190506146bc6000830184614698565b92915050565b600080604083850312156146d9576146d861400b565b5b60006146e78582860161405e565b92505060206146f88582860161405e565b9150509250929050565b7f4e487b7100000000000000000000000000000000000000000000000000000000600052602260045260246000fd5b6000600282049050600182168061474957607f821691505b6020821081141561475d5761475c614702565b5b50919050565b7f7570646174653a6e6f742063757261746f720000000000000000000000000000600082015250565b6000614799601283613f51565b91506147a482614763565b602082019050919050565b600060208201905081810360008301526147c88161478c565b9050919050565b7f6269643a61756374696f6e206973206e6f74206c697665000000000000000000600082015250565b6000614805601783613f51565b9150614810826147cf565b602082019050919050565b60006020820190508181036000830152614834816147f8565b9050919050565b60008151905061484a8161407d565b92915050565b6000602082840312156148665761486561400b565b5b60006148748482850161483b565b91505092915050565b7f4e487b7100000000000000000000000000000000000000000000000000000000600052601160045260246000fd5b60006148b782614073565b91506148c283614073565b9250827fffffffffffffffffffffffffffffffffffffffffffffffffffffffffffffffff038211156148f7576148f661487d565b5b828201905092915050565b600061490d82614073565b915061491883614073565b9250817fffffffffffffffffffffffffffffffffffffffffffffffffffffffffffffffff04831182151516156149515761495061487d565b5b828202905092915050565b7f6269643a746f6f206c6f77206269640000000000000000000000000000000000600082015250565b6000614992600f83613f51565b915061499d8261495c565b602082019050919050565b600060208201905081810360008301526149c181614985565b9050919050565b7f6269643a61756374696f6e20656e646564000000000000000000000000000000600082015250565b60006149fe601183613f51565b9150614a09826149c8565b602082019050919050565b60006020820190508181036000830152614a2d816149f1565b9050919050565b6000614a3f82614073565b9150614a4a83614073565b925082821015614a5d57614a5c61487d565b5b828203905092915050565b7f45524332303a207472616e7366657220616d6f756e742065786365656473206160008201527f6c6c6f77616e6365000000000000000000000000000000000000000000000000602082015250565b6000614ac4602883613f51565b9150614acf82614a68565b604082019050919050565b60006020820190508181036000830152614af381614ab7565b9050919050565b600081519050614b0981614047565b92915050565b600060208284031215614b2557614b2461400b565b5b6000614b3384828501614afa565b91505092915050565b7f6b69636b3a6e6f7420676f760000000000000000000000000000000000000000600082015250565b6000614b72600c83613f51565b9150614b7d82614b3c565b602082019050919050565b60006020820190508181036000830152614ba181614b65565b9050919050565b7f7570646174653a696e76616c69642061756374696f6e206c656e677468000000600082015250565b6000614bde601d83613f51565b9150614be982614ba8565b602082019050919050565b60006020820190508181036000830152614c0d81614bd1565b9050919050565b7f496e697469616c697a61626c653a20636f6e747261637420697320616c72656160008201527f647920696e697469616c697a6564000000000000000000000000000000000000602082015250565b6000614c70602e83613f51565b9150614c7b82614c14565b604082019050919050565b60006020820190508181036000830152614c9f81614c63565b9050919050565b7f7570646174653a61756374696f6e206c6976652063616e6e6f7420757064617460008201527f6520707269636500000000000000000000000000000000000000000000000000602082015250565b6000614d02602783613f51565b9150614d0d82614ca6565b604082019050919050565b60006020820190508181036000830152614d3181614cf5565b9050919050565b7f7570646174653a6e6f7420616e20757064617465000000000000000000000000600082015250565b6000614d6e601483613f51565b9150614d7982614d38565b602082019050919050565b60006020820190508181036000830152614d9d81614d61565b9050919050565b7f4e487b7100000000000000000000000000000000000000000000000000000000600052601260045260246000fd5b6000614dde82614073565b9150614de983614073565b925082614df957614df8614da4565b5b828204905092915050565b7f7570646174653a7265736572766520707269636520746f6f206c6f7700000000600082015250565b6000614e3a601c83613f51565b9150614e4582614e04565b602082019050919050565b60006020820190508181036000830152614e6981614e2d565b9050919050565b7f7570646174653a7265736572766520707269636520746f6f2068696768000000600082015250565b6000614ea6601d83613f51565b9150614eb182614e70565b602082019050919050565b60006020820190508181036000830152614ed581614e99565b9050919050565b7f72656d6f76653a6e6f7420676f76000000000000000000000000000000000000600082015250565b6000614f12600e83613f51565b9150614f1d82614edc565b602082019050919050565b60006020820190508181036000830152614f4181614f05565b9050919050565b6000819050919050565b6000819050919050565b6000614f77614f72614f6d84614f48565b614f52565b614073565b9050919050565b614f8781614f5c565b82525050565b6000602082019050614fa26000830184614f7e565b92915050565b7f7570646174653a63616e27742072616973650000000000000000000000000000600082015250565b6000614fde601283613f51565b9150614fe982614fa8565b602082019050919050565b6000602082019050818103600083015261500d81614fd1565b9050919050565b7f7570646174653a63616e6e6f7420696e6372656173652066656520746869732060008201527f6869676800000000000000000000000000000000000000000000000000000000602082015250565b6000615070602483613f51565b915061507b82615014565b604082019050919050565b6000602082019050818103600083015261509f81615063565b9050919050565b7f636173683a7661756c74206e6f7420636c6f7365642079657400000000000000600082015250565b60006150dc601983613f51565b91506150e7826150a6565b602082019050919050565b6000602082019050818103600083015261510b816150cf565b9050919050565b7f636173683a6e6f20746f6b656e7320746f2063617368206f7574000000000000600082015250565b6000615148601a83613f51565b915061515382615112565b602082019050919050565b600060208201905081810360008301526151778161513b565b9050919050565b7f45524332303a2064656372656173656420616c6c6f77616e63652062656c6f7760008201527f207a65726f000000000000000000000000000000000000000000000000000000602082015250565b60006151da602583613f51565b91506151e58261517e565b604082019050919050565b60006020820190508181036000830152615209816151cd565b9050919050565b7f72656465656d3a6e6f2072656465656d696e6700000000000000000000000000600082015250565b6000615246601383613f51565b915061525182615210565b602082019050919050565b6000602082019050818103600083015261527581615239565b9050919050565b6000606082019050615291600083018661443b565b61529e602083018561443b565b6152ab604083018461435a565b949350505050565b7f73746172743a6e6f2061756374696f6e20737461727473000000000000000000600082015250565b60006152e9601783613f51565b91506152f4826152b3565b602082019050919050565b60006020820190508181036000830152615318816152dc565b9050919050565b7f73746172743a746f6f206c6f7720626964000000000000000000000000000000600082015250565b6000615355601183613f51565b91506153608261531f565b602082019050919050565b6000602082019050818103600083015261538481615348565b9050919050565b7f73746172743a6e6f7420656e6f75676820766f74657273000000000000000000600082015250565b60006153c1601783613f51565b91506153cc8261538b565b602082019050919050565b600060208201905081810360008301526153f0816153b4565b9050919050565b7f656e643a7661756c742068617320616c726561647920636c6f73656400000000600082015250565b600061542d601c83613f51565b9150615438826153f7565b602082019050919050565b6000602082019050818103600083015261545c81615420565b9050919050565b7f656e643a61756374696f6e206c69766500000000000000000000000000000000600082015250565b6000615499601083613f51565b91506154a482615463565b602082019050919050565b600060208201905081810360008301526154c88161548c565b9050919050565b60006154ea6154e56154e084614015565b614f52565b614015565b9050919050565b60006154fc826154cf565b9050919050565b600061550e826154f1565b9050919050565b61551e81615503565b82525050565b6000606082019050615539600083018661443b565b6155466020830185615515565b615553604083018461435a565b949350505050565b7f45524332303a20617070726f76652066726f6d20746865207a65726f2061646460008201527f7265737300000000000000000000000000000000000000000000000000000000602082015250565b60006155b7602483613f51565b91506155c28261555b565b604082019050919050565b600060208201905081810360008301526155e6816155aa565b9050919050565b7f45524332303a20617070726f766520746f20746865207a65726f20616464726560008201527f7373000000000000000000000000000000000000000000000000000000000000602082015250565b6000615649602283613f51565b9150615654826155ed565b604082019050919050565b600060208201905081810360008301526156788161563c565b9050919050565b6000604082019050615694600083018561443b565b6156a1602083018461435a565b9392505050565b6156b1816140e9565b81146156bc57600080fd5b50565b6000815190506156ce816156a8565b92915050565b6000602082840312156156ea576156e961400b565b5b60006156f8848285016156bf565b91505092915050565b7f45524332303a207472616e736665722066726f6d20746865207a65726f20616460008201527f6472657373000000000000000000000000000000000000000000000000000000602082015250565b600061575d602583613f51565b915061576882615701565b604082019050919050565b6000602082019050818103600083015261578c81615750565b9050919050565b7f45524332303a207472616e7366657220746f20746865207a65726f206164647260008201527f6573730000000000000000000000000000000000000000000000000000000000602082015250565b60006157ef602383613f51565b91506157fa82615793565b604082019050919050565b6000602082019050818103600083015261581e816157e2565b9050919050565b7f45524332303a207472616e7366657220616d6f756e742065786365656473206260008201527f616c616e63650000000000000000000000000000000000000000000000000000602082015250565b6000615881602683613f51565b915061588c82615825565b604082019050919050565b600060208201905081810360008301526158b081615874565b9050919050565b7f45524332303a206d696e7420746f20746865207a65726f206164647265737300600082015250565b60006158ed601f83613f51565b91506158f8826158b7565b602082019050919050565b6000602082019050818103600083015261591c816158e0565b9050919050565b7f636c61696d3a63616e6e6f7420636c61696d2061667465722061756374696f6e60008201527f20656e6473000000000000000000000000000000000000000000000000000000602082015250565b600061597f602583613f51565b915061598a82615923565b604082019050919050565b600060208201905081810360008301526159ae81615972565b9050919050565b6159be81614686565b81146159c957600080fd5b50565b6000815190506159db816159b5565b92915050565b6000602082840312156159f7576159f661400b565b5b6000615a05848285016159cc565b91505092915050565b7f45524332303a206275726e2066726f6d20746865207a65726f2061646472657360008201527f7300000000000000000000000000000000000000000000000000000000000000602082015250565b6000615a6a602183613f51565b9150615a7582615a0e565b604082019050919050565b60006020820190508181036000830152615a9981615a5d565b9050919050565b7f45524332303a206275726e20616d6f756e7420657863656564732062616c616e60008201527f6365000000000000000000000000000000000000000000000000000000000000602082015250565b6000615afc602283613f51565b9150615b0782615aa0565b604082019050919050565b60006020820190508181036000830152615b2b81615aef565b9050919050565b600081905092915050565b50565b6000615b4d600083615b32565b9150615b5882615b3d565b600082019050919050565b6000615b6e82615b40565b915081905091905056fea2646970667358221220e8fb578e2352f0ca50c11117c779d77118a0ed12c37bba25944b47ac8ac0f1e464736f6c634300080a0033",
			"opcodes": "PUSH1 0xC0 PUSH1 0x40 MSTORE CALLVALUE DUP1 ISZERO PUSH3 0x11 JUMPI PUSH1 0x0 DUP1 REVERT JUMPDEST POP PUSH1 0x40 MLOAD PUSH3 0x79AF CODESIZE SUB DUP1 PUSH3 0x79AF DUP4 CODECOPY DUP2 DUP2 ADD PUSH1 0x40 MSTORE DUP2 ADD SWAP1 PUSH3 0x37 SWAP2 SWAP1 PUSH3 0x228 JUMP JUMPDEST PUSH1 0x0 PUSH3 0x49 PUSH3 0x1A8 PUSH1 0x20 SHL PUSH1 0x20 SHR JUMP JUMPDEST SWAP1 POP DUP1 PUSH1 0x0 DUP1 PUSH2 0x100 EXP DUP2 SLOAD DUP2 PUSH20 0xFFFFFFFFFFFFFFFFFFFFFFFFFFFFFFFFFFFFFFFF MUL NOT AND SWAP1 DUP4 PUSH20 0xFFFFFFFFFFFFFFFFFFFFFFFFFFFFFFFFFFFFFFFF AND MUL OR SWAP1 SSTORE POP DUP1 PUSH20 0xFFFFFFFFFFFFFFFFFFFFFFFFFFFFFFFFFFFFFFFF AND PUSH1 0x0 PUSH20 0xFFFFFFFFFFFFFFFFFFFFFFFFFFFFFFFFFFFFFFFF AND PUSH32 0x8BE0079C531659141344CD1FD0A4F28419497F9722A3DAAFE3B4186F6B6457E0 PUSH1 0x40 MLOAD PUSH1 0x40 MLOAD DUP1 SWAP2 SUB SWAP1 LOG3 POP PUSH1 0x0 DUP1 PUSH1 0x14 PUSH2 0x100 EXP DUP2 SLOAD DUP2 PUSH1 0xFF MUL NOT AND SWAP1 DUP4 ISZERO ISZERO MUL OR SWAP1 SSTORE POP DUP1 PUSH20 0xFFFFFFFFFFFFFFFFFFFFFFFFFFFFFFFFFFFFFFFF AND PUSH1 0x80 DUP2 PUSH20 0xFFFFFFFFFFFFFFFFFFFFFFFFFFFFFFFFFFFFFFFF AND DUP2 MSTORE POP POP DUP1 PUSH1 0x40 MLOAD PUSH3 0x144 SWAP1 PUSH3 0x1B0 JUMP JUMPDEST PUSH3 0x150 SWAP2 SWAP1 PUSH3 0x26B JUMP JUMPDEST PUSH1 0x40 MLOAD DUP1 SWAP2 SUB SWAP1 PUSH1 0x0 CREATE DUP1 ISZERO DUP1 ISZERO PUSH3 0x16D JUMPI RETURNDATASIZE PUSH1 0x0 DUP1 RETURNDATACOPY RETURNDATASIZE PUSH1 0x0 REVERT JUMPDEST POP PUSH20 0xFFFFFFFFFFFFFFFFFFFFFFFFFFFFFFFFFFFFFFFF AND PUSH1 0xA0 DUP2 PUSH20 0xFFFFFFFFFFFFFFFFFFFFFFFFFFFFFFFFFFFFFFFF AND DUP2 MSTORE POP POP POP PUSH3 0x288 JUMP JUMPDEST PUSH1 0x0 CALLER SWAP1 POP SWAP1 JUMP JUMPDEST PUSH2 0x5D33 DUP1 PUSH3 0x1C7C DUP4 CODECOPY ADD SWAP1 JUMP JUMPDEST PUSH1 0x0 DUP1 REVERT JUMPDEST PUSH1 0x0 PUSH20 0xFFFFFFFFFFFFFFFFFFFFFFFFFFFFFFFFFFFFFFFF DUP3 AND SWAP1 POP SWAP2 SWAP1 POP JUMP JUMPDEST PUSH1 0x0 PUSH3 0x1F0 DUP3 PUSH3 0x1C3 JUMP JUMPDEST SWAP1 POP SWAP2 SWAP1 POP JUMP JUMPDEST PUSH3 0x202 DUP2 PUSH3 0x1E3 JUMP JUMPDEST DUP2 EQ PUSH3 0x20E JUMPI PUSH1 0x0 DUP1 REVERT JUMPDEST POP JUMP JUMPDEST PUSH1 0x0 DUP2 MLOAD SWAP1 POP PUSH3 0x222 DUP2 PUSH3 0x1F7 JUMP JUMPDEST SWAP3 SWAP2 POP POP JUMP JUMPDEST PUSH1 0x0 PUSH1 0x20 DUP3 DUP5 SUB SLT ISZERO PUSH3 0x241 JUMPI PUSH3 0x240 PUSH3 0x1BE JUMP JUMPDEST JUMPDEST PUSH1 0x0 PUSH3 0x251 DUP5 DUP3 DUP6 ADD PUSH3 0x211 JUMP JUMPDEST SWAP2 POP POP SWAP3 SWAP2 POP POP JUMP JUMPDEST PUSH3 0x265 DUP2 PUSH3 0x1E3 JUMP JUMPDEST DUP3 MSTORE POP POP JUMP JUMPDEST PUSH1 0x0 PUSH1 0x20 DUP3 ADD SWAP1 POP PUSH3 0x282 PUSH1 0x0 DUP4 ADD DUP5 PUSH3 0x25A JUMP JUMPDEST SWAP3 SWAP2 POP POP JUMP JUMPDEST PUSH1 0x80 MLOAD PUSH1 0xA0 MLOAD PUSH2 0x19C7 PUSH3 0x2B5 PUSH1 0x0 CODECOPY PUSH1 0x0 DUP2 DUP2 PUSH2 0x5E3 ADD MSTORE PUSH2 0x798 ADD MSTORE PUSH1 0x0 PUSH2 0x7BC ADD MSTORE PUSH2 0x19C7 PUSH1 0x0 RETURN INVALID PUSH1 0x80 PUSH1 0x40 MSTORE CALLVALUE DUP1 ISZERO PUSH3 0x11 JUMPI PUSH1 0x0 DUP1 REVERT JUMPDEST POP PUSH1 0x4 CALLDATASIZE LT PUSH3 0xB8 JUMPI PUSH1 0x0 CALLDATALOAD PUSH1 0xE0 SHR DUP1 PUSH4 0x8DA5CB5B GT PUSH3 0x7B JUMPI DUP1 PUSH4 0x8DA5CB5B EQ PUSH3 0x139 JUMPI DUP1 PUSH4 0xA7C6A100 EQ PUSH3 0x15B JUMPI DUP1 PUSH4 0xBDC01110 EQ PUSH3 0x17D JUMPI DUP1 PUSH4 0xD7DFA0DD EQ PUSH3 0x1B3 JUMPI DUP1 PUSH4 0xE06174E4 EQ PUSH3 0x1D5 JUMPI DUP1 PUSH4 0xF2FDE38B EQ PUSH3 0x1F7 JUMPI PUSH3 0xB8 JUMP JUMPDEST DUP1 PUSH4 0x3F4BA83A EQ PUSH3 0xBD JUMPI DUP1 PUSH4 0x5C975ABB EQ PUSH3 0xC9 JUMPI DUP1 PUSH4 0x715018A6 EQ PUSH3 0xEB JUMPI DUP1 PUSH4 0x8456CB59 EQ PUSH3 0xF7 JUMPI DUP1 PUSH4 0x8C64EA4A EQ PUSH3 0x103 JUMPI JUMPDEST PUSH1 0x0 DUP1 REVERT JUMPDEST PUSH3 0xC7 PUSH3 0x217 JUMP JUMPDEST STOP JUMPDEST PUSH3 0xD3 PUSH3 0x2A6 JUMP JUMPDEST PUSH1 0x40 MLOAD PUSH3 0xE2 SWAP2 SWAP1 PUSH3 0xB1A JUMP JUMPDEST PUSH1 0x40 MLOAD DUP1 SWAP2 SUB SWAP1 RETURN JUMPDEST PUSH3 0xF5 PUSH3 0x2BC JUMP JUMPDEST STOP JUMPDEST PUSH3 0x101 PUSH3 0x3FD JUMP JUMPDEST STOP JUMPDEST PUSH3 0x121 PUSH1 0x4 DUP1 CALLDATASIZE SUB DUP2 ADD SWAP1 PUSH3 0x11B SWAP2 SWAP1 PUSH3 0xB86 JUMP JUMPDEST PUSH3 0x48C JUMP JUMPDEST PUSH1 0x40 MLOAD PUSH3 0x130 SWAP2 SWAP1 PUSH3 0xBFD JUMP JUMPDEST PUSH1 0x40 MLOAD DUP1 SWAP2 SUB SWAP1 RETURN JUMPDEST PUSH3 0x143 PUSH3 0x4BF JUMP JUMPDEST PUSH1 0x40 MLOAD PUSH3 0x152 SWAP2 SWAP1 PUSH3 0xBFD JUMP JUMPDEST PUSH1 0x40 MLOAD DUP1 SWAP2 SUB SWAP1 RETURN JUMPDEST PUSH3 0x165 PUSH3 0x4E8 JUMP JUMPDEST PUSH1 0x40 MLOAD PUSH3 0x174 SWAP2 SWAP1 PUSH3 0xC2B JUMP JUMPDEST PUSH1 0x40 MLOAD DUP1 SWAP2 SUB SWAP1 RETURN JUMPDEST PUSH3 0x19B PUSH1 0x4 DUP1 CALLDATASIZE SUB DUP2 ADD SWAP1 PUSH3 0x195 SWAP2 SWAP1 PUSH3 0xDDB JUMP JUMPDEST PUSH3 0x4EE JUMP JUMPDEST PUSH1 0x40 MLOAD PUSH3 0x1AA SWAP2 SWAP1 PUSH3 0xC2B JUMP JUMPDEST PUSH1 0x40 MLOAD DUP1 SWAP2 SUB SWAP1 RETURN JUMPDEST PUSH3 0x1BD PUSH3 0x796 JUMP JUMPDEST PUSH1 0x40 MLOAD PUSH3 0x1CC SWAP2 SWAP1 PUSH3 0xBFD JUMP JUMPDEST PUSH1 0x40 MLOAD DUP1 SWAP2 SUB SWAP1 RETURN JUMPDEST PUSH3 0x1DF PUSH3 0x7BA JUMP JUMPDEST PUSH1 0x40 MLOAD PUSH3 0x1EE SWAP2 SWAP1 PUSH3 0xBFD JUMP JUMPDEST PUSH1 0x40 MLOAD DUP1 SWAP2 SUB SWAP1 RETURN JUMPDEST PUSH3 0x215 PUSH1 0x4 DUP1 CALLDATASIZE SUB DUP2 ADD SWAP1 PUSH3 0x20F SWAP2 SWAP1 PUSH3 0xECC JUMP JUMPDEST PUSH3 0x7DE JUMP JUMPDEST STOP JUMPDEST PUSH3 0x221 PUSH3 0x991 JUMP JUMPDEST PUSH20 0xFFFFFFFFFFFFFFFFFFFFFFFFFFFFFFFFFFFFFFFF AND PUSH3 0x241 PUSH3 0x4BF JUMP JUMPDEST PUSH20 0xFFFFFFFFFFFFFFFFFFFFFFFFFFFFFFFFFFFFFFFF AND EQ PUSH3 0x29A JUMPI PUSH1 0x40 MLOAD PUSH32 0x8C379A000000000000000000000000000000000000000000000000000000000 DUP2 MSTORE PUSH1 0x4 ADD PUSH3 0x291 SWAP1 PUSH3 0xF5F JUMP JUMPDEST PUSH1 0x40 MLOAD DUP1 SWAP2 SUB SWAP1 REVERT JUMPDEST PUSH3 0x2A4 PUSH3 0x999 JUMP JUMPDEST JUMP JUMPDEST PUSH1 0x0 DUP1 PUSH1 0x14 SWAP1 SLOAD SWAP1 PUSH2 0x100 EXP SWAP1 DIV PUSH1 0xFF AND SWAP1 POP SWAP1 JUMP JUMPDEST PUSH3 0x2C6 PUSH3 0x991 JUMP JUMPDEST PUSH20 0xFFFFFFFFFFFFFFFFFFFFFFFFFFFFFFFFFFFFFFFF AND PUSH3 0x2E6 PUSH3 0x4BF JUMP JUMPDEST PUSH20 0xFFFFFFFFFFFFFFFFFFFFFFFFFFFFFFFFFFFFFFFF AND EQ PUSH3 0x33F JUMPI PUSH1 0x40 MLOAD PUSH32 0x8C379A000000000000000000000000000000000000000000000000000000000 DUP2 MSTORE PUSH1 0x4 ADD PUSH3 0x336 SWAP1 PUSH3 0xF5F JUMP JUMPDEST PUSH1 0x40 MLOAD DUP1 SWAP2 SUB SWAP1 REVERT JUMPDEST PUSH1 0x0 PUSH20 0xFFFFFFFFFFFFFFFFFFFFFFFFFFFFFFFFFFFFFFFF AND PUSH1 0x0 DUP1 SLOAD SWAP1 PUSH2 0x100 EXP SWAP1 DIV PUSH20 0xFFFFFFFFFFFFFFFFFFFFFFFFFFFFFFFFFFFFFFFF AND PUSH20 0xFFFFFFFFFFFFFFFFFFFFFFFFFFFFFFFFFFFFFFFF AND PUSH32 0x8BE0079C531659141344CD1FD0A4F28419497F9722A3DAAFE3B4186F6B6457E0 PUSH1 0x40 MLOAD PUSH1 0x40 MLOAD DUP1 SWAP2 SUB SWAP1 LOG3 PUSH1 0x0 DUP1 PUSH1 0x0 PUSH2 0x100 EXP DUP2 SLOAD DUP2 PUSH20 0xFFFFFFFFFFFFFFFFFFFFFFFFFFFFFFFFFFFFFFFF MUL NOT AND SWAP1 DUP4 PUSH20 0xFFFFFFFFFFFFFFFFFFFFFFFFFFFFFFFFFFFFFFFF AND MUL OR SWAP1 SSTORE POP JUMP JUMPDEST PUSH3 0x407 PUSH3 0x991 JUMP JUMPDEST PUSH20 0xFFFFFFFFFFFFFFFFFFFFFFFFFFFFFFFFFFFFFFFF AND PUSH3 0x427 PUSH3 0x4BF JUMP JUMPDEST PUSH20 0xFFFFFFFFFFFFFFFFFFFFFFFFFFFFFFFFFFFFFFFF AND EQ PUSH3 0x480 JUMPI PUSH1 0x40 MLOAD PUSH32 0x8C379A000000000000000000000000000000000000000000000000000000000 DUP2 MSTORE PUSH1 0x4 ADD PUSH3 0x477 SWAP1 PUSH3 0xF5F JUMP JUMPDEST PUSH1 0x40 MLOAD DUP1 SWAP2 SUB SWAP1 REVERT JUMPDEST PUSH3 0x48A PUSH3 0xA43 JUMP JUMPDEST JUMP JUMPDEST PUSH1 0x2 PUSH1 0x20 MSTORE DUP1 PUSH1 0x0 MSTORE PUSH1 0x40 PUSH1 0x0 KECCAK256 PUSH1 0x0 SWAP2 POP SLOAD SWAP1 PUSH2 0x100 EXP SWAP1 DIV PUSH20 0xFFFFFFFFFFFFFFFFFFFFFFFFFFFFFFFFFFFFFFFF AND DUP2 JUMP JUMPDEST PUSH1 0x0 DUP1 PUSH1 0x0 SWAP1 SLOAD SWAP1 PUSH2 0x100 EXP SWAP1 DIV PUSH20 0xFFFFFFFFFFFFFFFFFFFFFFFFFFFFFFFFFFFFFFFF AND SWAP1 POP SWAP1 JUMP JUMPDEST PUSH1 0x1 SLOAD DUP2 JUMP JUMPDEST PUSH1 0x0 PUSH3 0x4FA PUSH3 0x2A6 JUMP JUMPDEST ISZERO PUSH3 0x53D JUMPI PUSH1 0x40 MLOAD PUSH32 0x8C379A000000000000000000000000000000000000000000000000000000000 DUP2 MSTORE PUSH1 0x4 ADD PUSH3 0x534 SWAP1 PUSH3 0xFD1 JUMP JUMPDEST PUSH1 0x40 MLOAD DUP1 SWAP2 SUB SWAP1 REVERT JUMPDEST PUSH1 0x0 CALLER DUP8 DUP8 DUP8 DUP8 DUP8 DUP15 DUP15 PUSH1 0x40 MLOAD PUSH1 0x24 ADD PUSH3 0x560 SWAP9 SWAP8 SWAP7 SWAP6 SWAP5 SWAP4 SWAP3 SWAP2 SWAP1 PUSH3 0x1075 JUMP JUMPDEST PUSH1 0x40 MLOAD PUSH1 0x20 DUP2 DUP4 SUB SUB DUP2 MSTORE SWAP1 PUSH1 0x40 MSTORE PUSH32 0x626FB2F000000000000000000000000000000000000000000000000000000000 PUSH28 0xFFFFFFFFFFFFFFFFFFFFFFFFFFFFFFFFFFFFFFFFFFFFFFFFFFFFFFFF NOT AND PUSH1 0x20 DUP3 ADD DUP1 MLOAD PUSH28 0xFFFFFFFFFFFFFFFFFFFFFFFFFFFFFFFFFFFFFFFFFFFFFFFFFFFFFFFF DUP4 DUP2 DUP4 AND OR DUP4 MSTORE POP POP POP POP SWAP1 POP PUSH1 0x0 PUSH32 0x0 DUP3 PUSH1 0x40 MLOAD PUSH3 0x611 SWAP1 PUSH3 0xAEF JUMP JUMPDEST PUSH3 0x61E SWAP3 SWAP2 SWAP1 PUSH3 0x116E JUMP JUMPDEST PUSH1 0x40 MLOAD DUP1 SWAP2 SUB SWAP1 PUSH1 0x0 CREATE DUP1 ISZERO DUP1 ISZERO PUSH3 0x63B JUMPI RETURNDATASIZE PUSH1 0x0 DUP1 RETURNDATACOPY RETURNDATASIZE PUSH1 0x0 REVERT JUMPDEST POP SWAP1 POP DUP8 PUSH20 0xFFFFFFFFFFFFFFFFFFFFFFFFFFFFFFFFFFFFFFFF AND PUSH32 0xF9C32FBC56FF04F32A233EBC26E388564223745E28ABD8D0781DD906537F563E DUP9 DUP8 DUP5 PUSH1 0x1 SLOAD PUSH1 0x40 MLOAD PUSH3 0x68E SWAP5 SWAP4 SWAP3 SWAP2 SWAP1 PUSH3 0x11A2 JUMP JUMPDEST PUSH1 0x40 MLOAD DUP1 SWAP2 SUB SWAP1 LOG2 DUP8 PUSH20 0xFFFFFFFFFFFFFFFFFFFFFFFFFFFFFFFFFFFFFFFF AND PUSH4 0x42842E0E CALLER DUP4 DUP11 PUSH1 0x40 MLOAD DUP5 PUSH4 0xFFFFFFFF AND PUSH1 0xE0 SHL DUP2 MSTORE PUSH1 0x4 ADD PUSH3 0x6D5 SWAP4 SWAP3 SWAP2 SWAP1 PUSH3 0x11EF JUMP JUMPDEST PUSH1 0x0 PUSH1 0x40 MLOAD DUP1 DUP4 SUB DUP2 PUSH1 0x0 DUP8 DUP1 EXTCODESIZE ISZERO DUP1 ISZERO PUSH3 0x6F0 JUMPI PUSH1 0x0 DUP1 REVERT JUMPDEST POP GAS CALL ISZERO DUP1 ISZERO PUSH3 0x705 JUMPI RETURNDATASIZE PUSH1 0x0 DUP1 RETURNDATACOPY RETURNDATASIZE PUSH1 0x0 REVERT JUMPDEST POP POP POP POP DUP1 PUSH1 0x2 PUSH1 0x0 PUSH1 0x1 SLOAD DUP2 MSTORE PUSH1 0x20 ADD SWAP1 DUP2 MSTORE PUSH1 0x20 ADD PUSH1 0x0 KECCAK256 PUSH1 0x0 PUSH2 0x100 EXP DUP2 SLOAD DUP2 PUSH20 0xFFFFFFFFFFFFFFFFFFFFFFFFFFFFFFFFFFFFFFFF MUL NOT AND SWAP1 DUP4 PUSH20 0xFFFFFFFFFFFFFFFFFFFFFFFFFFFFFFFFFFFFFFFF AND MUL OR SWAP1 SSTORE POP PUSH1 0x1 PUSH1 0x0 DUP2 SLOAD DUP1 SWAP3 SWAP2 SWAP1 PUSH3 0x772 SWAP1 PUSH3 0x125B JUMP JUMPDEST SWAP2 SWAP1 POP SSTORE POP PUSH1 0x1 DUP1 SLOAD PUSH3 0x787 SWAP2 SWAP1 PUSH3 0x12A9 JUMP JUMPDEST SWAP3 POP POP POP SWAP8 SWAP7 POP POP POP POP POP POP POP JUMP JUMPDEST PUSH32 0x0 DUP2 JUMP JUMPDEST PUSH32 0x0 DUP2 JUMP JUMPDEST PUSH3 0x7E8 PUSH3 0x991 JUMP JUMPDEST PUSH20 0xFFFFFFFFFFFFFFFFFFFFFFFFFFFFFFFFFFFFFFFF AND PUSH3 0x808 PUSH3 0x4BF JUMP JUMPDEST PUSH20 0xFFFFFFFFFFFFFFFFFFFFFFFFFFFFFFFFFFFFFFFF AND EQ PUSH3 0x861 JUMPI PUSH1 0x40 MLOAD PUSH32 0x8C379A000000000000000000000000000000000000000000000000000000000 DUP2 MSTORE PUSH1 0x4 ADD PUSH3 0x858 SWAP1 PUSH3 0xF5F JUMP JUMPDEST PUSH1 0x40 MLOAD DUP1 SWAP2 SUB SWAP1 REVERT JUMPDEST PUSH1 0x0 PUSH20 0xFFFFFFFFFFFFFFFFFFFFFFFFFFFFFFFFFFFFFFFF AND DUP2 PUSH20 0xFFFFFFFFFFFFFFFFFFFFFFFFFFFFFFFFFFFFFFFF AND EQ ISZERO PUSH3 0x8D4 JUMPI PUSH1 0x40 MLOAD PUSH32 0x8C379A000000000000000000000000000000000000000000000000000000000 DUP2 MSTORE PUSH1 0x4 ADD PUSH3 0x8CB SWAP1 PUSH3 0x135A JUMP JUMPDEST PUSH1 0x40 MLOAD DUP1 SWAP2 SUB SWAP1 REVERT JUMPDEST DUP1 PUSH20 0xFFFFFFFFFFFFFFFFFFFFFFFFFFFFFFFFFFFFFFFF AND PUSH1 0x0 DUP1 SLOAD SWAP1 PUSH2 0x100 EXP SWAP1 DIV PUSH20 0xFFFFFFFFFFFFFFFFFFFFFFFFFFFFFFFFFFFFFFFF AND PUSH20 0xFFFFFFFFFFFFFFFFFFFFFFFFFFFFFFFFFFFFFFFF AND PUSH32 0x8BE0079C531659141344CD1FD0A4F28419497F9722A3DAAFE3B4186F6B6457E0 PUSH1 0x40 MLOAD PUSH1 0x40 MLOAD DUP1 SWAP2 SUB SWAP1 LOG3 DUP1 PUSH1 0x0 DUP1 PUSH2 0x100 EXP DUP2 SLOAD DUP2 PUSH20 0xFFFFFFFFFFFFFFFFFFFFFFFFFFFFFFFFFFFFFFFF MUL NOT AND SWAP1 DUP4 PUSH20 0xFFFFFFFFFFFFFFFFFFFFFFFFFFFFFFFFFFFFFFFF AND MUL OR SWAP1 SSTORE POP POP JUMP JUMPDEST PUSH1 0x0 CALLER SWAP1 POP SWAP1 JUMP JUMPDEST PUSH3 0x9A3 PUSH3 0x2A6 JUMP JUMPDEST PUSH3 0x9E5 JUMPI PUSH1 0x40 MLOAD PUSH32 0x8C379A000000000000000000000000000000000000000000000000000000000 DUP2 MSTORE PUSH1 0x4 ADD PUSH3 0x9DC SWAP1 PUSH3 0x13CC JUMP JUMPDEST PUSH1 0x40 MLOAD DUP1 SWAP2 SUB SWAP1 REVERT JUMPDEST PUSH1 0x0 DUP1 PUSH1 0x14 PUSH2 0x100 EXP DUP2 SLOAD DUP2 PUSH1 0xFF MUL NOT AND SWAP1 DUP4 ISZERO ISZERO MUL OR SWAP1 SSTORE POP PUSH32 0x5DB9EE0A495BF2E6FF9C91A7834C1BA4FDD244A5E8AA4E537BD38AEAE4B073AA PUSH3 0xA2A PUSH3 0x991 JUMP JUMPDEST PUSH1 0x40 MLOAD PUSH3 0xA39 SWAP2 SWAP1 PUSH3 0xBFD JUMP JUMPDEST PUSH1 0x40 MLOAD DUP1 SWAP2 SUB SWAP1 LOG1 JUMP JUMPDEST PUSH3 0xA4D PUSH3 0x2A6 JUMP JUMPDEST ISZERO PUSH3 0xA90 JUMPI PUSH1 0x40 MLOAD PUSH32 0x8C379A000000000000000000000000000000000000000000000000000000000 DUP2 MSTORE PUSH1 0x4 ADD PUSH3 0xA87 SWAP1 PUSH3 0xFD1 JUMP JUMPDEST PUSH1 0x40 MLOAD DUP1 SWAP2 SUB SWAP1 REVERT JUMPDEST PUSH1 0x1 PUSH1 0x0 PUSH1 0x14 PUSH2 0x100 EXP DUP2 SLOAD DUP2 PUSH1 0xFF MUL NOT AND SWAP1 DUP4 ISZERO ISZERO MUL OR SWAP1 SSTORE POP PUSH32 0x62E78CEA01BEE320CD4E420270B5EA74000D11B0C9F74754EBDBFC544B05A258 PUSH3 0xAD6 PUSH3 0x991 JUMP JUMPDEST PUSH1 0x40 MLOAD PUSH3 0xAE5 SWAP2 SWAP1 PUSH3 0xBFD JUMP JUMPDEST PUSH1 0x40 MLOAD DUP1 SWAP2 SUB SWAP1 LOG1 JUMP JUMPDEST PUSH2 0x5A3 DUP1 PUSH3 0x13EF DUP4 CODECOPY ADD SWAP1 JUMP JUMPDEST PUSH1 0x0 DUP2 ISZERO ISZERO SWAP1 POP SWAP2 SWAP1 POP JUMP JUMPDEST PUSH3 0xB14 DUP2 PUSH3 0xAFD JUMP JUMPDEST DUP3 MSTORE POP POP JUMP JUMPDEST PUSH1 0x0 PUSH1 0x20 DUP3 ADD SWAP1 POP PUSH3 0xB31 PUSH1 0x0 DUP4 ADD DUP5 PUSH3 0xB09 JUMP JUMPDEST SWAP3 SWAP2 POP POP JUMP JUMPDEST PUSH1 0x0 PUSH1 0x40 MLOAD SWAP1 POP SWAP1 JUMP JUMPDEST PUSH1 0x0 DUP1 REVERT JUMPDEST PUSH1 0x0 DUP1 REVERT JUMPDEST PUSH1 0x0 DUP2 SWAP1 POP SWAP2 SWAP1 POP JUMP JUMPDEST PUSH3 0xB60 DUP2 PUSH3 0xB4B JUMP JUMPDEST DUP2 EQ PUSH3 0xB6C JUMPI PUSH1 0x0 DUP1 REVERT JUMPDEST POP JUMP JUMPDEST PUSH1 0x0 DUP2 CALLDATALOAD SWAP1 POP PUSH3 0xB80 DUP2 PUSH3 0xB55 JUMP JUMPDEST SWAP3 SWAP2 POP POP JUMP JUMPDEST PUSH1 0x0 PUSH1 0x20 DUP3 DUP5 SUB SLT ISZERO PUSH3 0xB9F JUMPI PUSH3 0xB9E PUSH3 0xB41 JUMP JUMPDEST JUMPDEST PUSH1 0x0 PUSH3 0xBAF DUP5 DUP3 DUP6 ADD PUSH3 0xB6F JUMP JUMPDEST SWAP2 POP POP SWAP3 SWAP2 POP POP JUMP JUMPDEST PUSH1 0x0 PUSH20 0xFFFFFFFFFFFFFFFFFFFFFFFFFFFFFFFFFFFFFFFF DUP3 AND SWAP1 POP SWAP2 SWAP1 POP JUMP JUMPDEST PUSH1 0x0 PUSH3 0xBE5 DUP3 PUSH3 0xBB8 JUMP JUMPDEST SWAP1 POP SWAP2 SWAP1 POP JUMP JUMPDEST PUSH3 0xBF7 DUP2 PUSH3 0xBD8 JUMP JUMPDEST DUP3 MSTORE POP POP JUMP JUMPDEST PUSH1 0x0 PUSH1 0x20 DUP3 ADD SWAP1 POP PUSH3 0xC14 PUSH1 0x0 DUP4 ADD DUP5 PUSH3 0xBEC JUMP JUMPDEST SWAP3 SWAP2 POP POP JUMP JUMPDEST PUSH3 0xC25 DUP2 PUSH3 0xB4B JUMP JUMPDEST DUP3 MSTORE POP POP JUMP JUMPDEST PUSH1 0x0 PUSH1 0x20 DUP3 ADD SWAP1 POP PUSH3 0xC42 PUSH1 0x0 DUP4 ADD DUP5 PUSH3 0xC1A JUMP JUMPDEST SWAP3 SWAP2 POP POP JUMP JUMPDEST PUSH1 0x0 DUP1 REVERT JUMPDEST PUSH1 0x0 DUP1 REVERT JUMPDEST PUSH1 0x0 PUSH1 0x1F NOT PUSH1 0x1F DUP4 ADD AND SWAP1 POP SWAP2 SWAP1 POP JUMP JUMPDEST PUSH32 0x4E487B7100000000000000000000000000000000000000000000000000000000 PUSH1 0x0 MSTORE PUSH1 0x41 PUSH1 0x4 MSTORE PUSH1 0x24 PUSH1 0x0 REVERT JUMPDEST PUSH3 0xC9D DUP3 PUSH3 0xC52 JUMP JUMPDEST DUP2 ADD DUP2 DUP2 LT PUSH8 0xFFFFFFFFFFFFFFFF DUP3 GT OR ISZERO PUSH3 0xCBF JUMPI PUSH3 0xCBE PUSH3 0xC63 JUMP JUMPDEST JUMPDEST DUP1 PUSH1 0x40 MSTORE POP POP POP JUMP JUMPDEST PUSH1 0x0 PUSH3 0xCD4 PUSH3 0xB37 JUMP JUMPDEST SWAP1 POP PUSH3 0xCE2 DUP3 DUP3 PUSH3 0xC92 JUMP JUMPDEST SWAP2 SWAP1 POP JUMP JUMPDEST PUSH1 0x0 PUSH8 0xFFFFFFFFFFFFFFFF DUP3 GT ISZERO PUSH3 0xD05 JUMPI PUSH3 0xD04 PUSH3 0xC63 JUMP JUMPDEST JUMPDEST PUSH3 0xD10 DUP3 PUSH3 0xC52 JUMP JUMPDEST SWAP1 POP PUSH1 0x20 DUP2 ADD SWAP1 POP SWAP2 SWAP1 POP JUMP JUMPDEST DUP3 DUP2 DUP4 CALLDATACOPY PUSH1 0x0 DUP4 DUP4 ADD MSTORE POP POP POP JUMP JUMPDEST PUSH1 0x0 PUSH3 0xD43 PUSH3 0xD3D DUP5 PUSH3 0xCE7 JUMP JUMPDEST PUSH3 0xCC8 JUMP JUMPDEST SWAP1 POP DUP3 DUP2 MSTORE PUSH1 0x20 DUP2 ADD DUP5 DUP5 DUP5 ADD GT ISZERO PUSH3 0xD62 JUMPI PUSH3 0xD61 PUSH3 0xC4D JUMP JUMPDEST JUMPDEST PUSH3 0xD6F DUP5 DUP3 DUP6 PUSH3 0xD1D JUMP JUMPDEST POP SWAP4 SWAP3 POP POP POP JUMP JUMPDEST PUSH1 0x0 DUP3 PUSH1 0x1F DUP4 ADD SLT PUSH3 0xD8F JUMPI PUSH3 0xD8E PUSH3 0xC48 JUMP JUMPDEST JUMPDEST DUP2 CALLDATALOAD PUSH3 0xDA1 DUP5 DUP3 PUSH1 0x20 DUP7 ADD PUSH3 0xD2C JUMP JUMPDEST SWAP2 POP POP SWAP3 SWAP2 POP POP JUMP JUMPDEST PUSH3 0xDB5 DUP2 PUSH3 0xBD8 JUMP JUMPDEST DUP2 EQ PUSH3 0xDC1 JUMPI PUSH1 0x0 DUP1 REVERT JUMPDEST POP JUMP JUMPDEST PUSH1 0x0 DUP2 CALLDATALOAD SWAP1 POP PUSH3 0xDD5 DUP2 PUSH3 0xDAA JUMP JUMPDEST SWAP3 SWAP2 POP POP JUMP JUMPDEST PUSH1 0x0 DUP1 PUSH1 0x0 DUP1 PUSH1 0x0 DUP1 PUSH1 0x0 PUSH1 0xE0 DUP9 DUP11 SUB SLT ISZERO PUSH3 0xDFD JUMPI PUSH3 0xDFC PUSH3 0xB41 JUMP JUMPDEST JUMPDEST PUSH1 0x0 DUP9 ADD CALLDATALOAD PUSH8 0xFFFFFFFFFFFFFFFF DUP2 GT ISZERO PUSH3 0xE1E JUMPI PUSH3 0xE1D PUSH3 0xB46 JUMP JUMPDEST JUMPDEST PUSH3 0xE2C DUP11 DUP3 DUP12 ADD PUSH3 0xD77 JUMP JUMPDEST SWAP8 POP POP PUSH1 0x20 DUP9 ADD CALLDATALOAD PUSH8 0xFFFFFFFFFFFFFFFF DUP2 GT ISZERO PUSH3 0xE50 JUMPI PUSH3 0xE4F PUSH3 0xB46 JUMP JUMPDEST JUMPDEST PUSH3 0xE5E DUP11 DUP3 DUP12 ADD PUSH3 0xD77 JUMP JUMPDEST SWAP7 POP POP PUSH1 0x40 PUSH3 0xE71 DUP11 DUP3 DUP12 ADD PUSH3 0xDC4 JUMP JUMPDEST SWAP6 POP POP PUSH1 0x60 PUSH3 0xE84 DUP11 DUP3 DUP12 ADD PUSH3 0xB6F JUMP JUMPDEST SWAP5 POP POP PUSH1 0x80 PUSH3 0xE97 DUP11 DUP3 DUP12 ADD PUSH3 0xB6F JUMP JUMPDEST SWAP4 POP POP PUSH1 0xA0 PUSH3 0xEAA DUP11 DUP3 DUP12 ADD PUSH3 0xB6F JUMP JUMPDEST SWAP3 POP POP PUSH1 0xC0 PUSH3 0xEBD DUP11 DUP3 DUP12 ADD PUSH3 0xB6F JUMP JUMPDEST SWAP2 POP POP SWAP3 SWAP6 SWAP9 SWAP2 SWAP5 SWAP8 POP SWAP3 SWAP6 POP JUMP JUMPDEST PUSH1 0x0 PUSH1 0x20 DUP3 DUP5 SUB SLT ISZERO PUSH3 0xEE5 JUMPI PUSH3 0xEE4 PUSH3 0xB41 JUMP JUMPDEST JUMPDEST PUSH1 0x0 PUSH3 0xEF5 DUP5 DUP3 DUP6 ADD PUSH3 0xDC4 JUMP JUMPDEST SWAP2 POP POP SWAP3 SWAP2 POP POP JUMP JUMPDEST PUSH1 0x0 DUP3 DUP3 MSTORE PUSH1 0x20 DUP3 ADD SWAP1 POP SWAP3 SWAP2 POP POP JUMP JUMPDEST PUSH32 0x4F776E61626C653A2063616C6C6572206973206E6F7420746865206F776E6572 PUSH1 0x0 DUP3 ADD MSTORE POP JUMP JUMPDEST PUSH1 0x0 PUSH3 0xF47 PUSH1 0x20 DUP4 PUSH3 0xEFE JUMP JUMPDEST SWAP2 POP PUSH3 0xF54 DUP3 PUSH3 0xF0F JUMP JUMPDEST PUSH1 0x20 DUP3 ADD SWAP1 POP SWAP2 SWAP1 POP JUMP JUMPDEST PUSH1 0x0 PUSH1 0x20 DUP3 ADD SWAP1 POP DUP2 DUP2 SUB PUSH1 0x0 DUP4 ADD MSTORE PUSH3 0xF7A DUP2 PUSH3 0xF38 JUMP JUMPDEST SWAP1 POP SWAP2 SWAP1 POP JUMP JUMPDEST PUSH32 0x5061757361626C653A2070617573656400000000000000000000000000000000 PUSH1 0x0 DUP3 ADD MSTORE POP JUMP JUMPDEST PUSH1 0x0 PUSH3 0xFB9 PUSH1 0x10 DUP4 PUSH3 0xEFE JUMP JUMPDEST SWAP2 POP PUSH3 0xFC6 DUP3 PUSH3 0xF81 JUMP JUMPDEST PUSH1 0x20 DUP3 ADD SWAP1 POP SWAP2 SWAP1 POP JUMP JUMPDEST PUSH1 0x0 PUSH1 0x20 DUP3 ADD SWAP1 POP DUP2 DUP2 SUB PUSH1 0x0 DUP4 ADD MSTORE PUSH3 0xFEC DUP2 PUSH3 0xFAA JUMP JUMPDEST SWAP1 POP SWAP2 SWAP1 POP JUMP JUMPDEST PUSH1 0x0 DUP2 MLOAD SWAP1 POP SWAP2 SWAP1 POP JUMP JUMPDEST PUSH1 0x0 JUMPDEST DUP4 DUP2 LT ISZERO PUSH3 0x101E JUMPI DUP1 DUP3 ADD MLOAD DUP2 DUP5 ADD MSTORE PUSH1 0x20 DUP2 ADD SWAP1 POP PUSH3 0x1001 JUMP JUMPDEST DUP4 DUP2 GT ISZERO PUSH3 0x102E JUMPI PUSH1 0x0 DUP5 DUP5 ADD MSTORE JUMPDEST POP POP POP POP JUMP JUMPDEST PUSH1 0x0 PUSH3 0x1041 DUP3 PUSH3 0xFF3 JUMP JUMPDEST PUSH3 0x104D DUP2 DUP6 PUSH3 0xEFE JUMP JUMPDEST SWAP4 POP PUSH3 0x105F DUP2 DUP6 PUSH1 0x20 DUP7 ADD PUSH3 0xFFE JUMP JUMPDEST PUSH3 0x106A DUP2 PUSH3 0xC52 JUMP JUMPDEST DUP5 ADD SWAP2 POP POP SWAP3 SWAP2 POP POP JUMP JUMPDEST PUSH1 0x0 PUSH2 0x100 DUP3 ADD SWAP1 POP PUSH3 0x108D PUSH1 0x0 DUP4 ADD DUP12 PUSH3 0xBEC JUMP JUMPDEST PUSH3 0x109C PUSH1 0x20 DUP4 ADD DUP11 PUSH3 0xBEC JUMP JUMPDEST PUSH3 0x10AB PUSH1 0x40 DUP4 ADD DUP10 PUSH3 0xC1A JUMP JUMPDEST PUSH3 0x10BA PUSH1 0x60 DUP4 ADD DUP9 PUSH3 0xC1A JUMP JUMPDEST PUSH3 0x10C9 PUSH1 0x80 DUP4 ADD DUP8 PUSH3 0xC1A JUMP JUMPDEST PUSH3 0x10D8 PUSH1 0xA0 DUP4 ADD DUP7 PUSH3 0xC1A JUMP JUMPDEST DUP2 DUP2 SUB PUSH1 0xC0 DUP4 ADD MSTORE PUSH3 0x10EC DUP2 DUP6 PUSH3 0x1034 JUMP JUMPDEST SWAP1 POP DUP2 DUP2 SUB PUSH1 0xE0 DUP4 ADD MSTORE PUSH3 0x1102 DUP2 DUP5 PUSH3 0x1034 JUMP JUMPDEST SWAP1 POP SWAP10 SWAP9 POP POP POP POP POP POP POP POP POP JUMP JUMPDEST PUSH1 0x0 DUP2 MLOAD SWAP1 POP SWAP2 SWAP1 POP JUMP JUMPDEST PUSH1 0x0 DUP3 DUP3 MSTORE PUSH1 0x20 DUP3 ADD SWAP1 POP SWAP3 SWAP2 POP POP JUMP JUMPDEST PUSH1 0x0 PUSH3 0x113A DUP3 PUSH3 0x1111 JUMP JUMPDEST PUSH3 0x1146 DUP2 DUP6 PUSH3 0x111C JUMP JUMPDEST SWAP4 POP PUSH3 0x1158 DUP2 DUP6 PUSH1 0x20 DUP7 ADD PUSH3 0xFFE JUMP JUMPDEST PUSH3 0x1163 DUP2 PUSH3 0xC52 JUMP JUMPDEST DUP5 ADD SWAP2 POP POP SWAP3 SWAP2 POP POP JUMP JUMPDEST PUSH1 0x0 PUSH1 0x40 DUP3 ADD SWAP1 POP PUSH3 0x1185 PUSH1 0x0 DUP4 ADD DUP6 PUSH3 0xBEC JUMP JUMPDEST DUP2 DUP2 SUB PUSH1 0x20 DUP4 ADD MSTORE PUSH3 0x1199 DUP2 DUP5 PUSH3 0x112D JUMP JUMPDEST SWAP1 POP SWAP4 SWAP3 POP POP POP JUMP JUMPDEST PUSH1 0x0 PUSH1 0x80 DUP3 ADD SWAP1 POP PUSH3 0x11B9 PUSH1 0x0 DUP4 ADD DUP8 PUSH3 0xC1A JUMP JUMPDEST PUSH3 0x11C8 PUSH1 0x20 DUP4 ADD DUP7 PUSH3 0xC1A JUMP JUMPDEST PUSH3 0x11D7 PUSH1 0x40 DUP4 ADD DUP6 PUSH3 0xBEC JUMP JUMPDEST PUSH3 0x11E6 PUSH1 0x60 DUP4 ADD DUP5 PUSH3 0xC1A JUMP JUMPDEST SWAP6 SWAP5 POP POP POP POP POP JUMP JUMPDEST PUSH1 0x0 PUSH1 0x60 DUP3 ADD SWAP1 POP PUSH3 0x1206 PUSH1 0x0 DUP4 ADD DUP7 PUSH3 0xBEC JUMP JUMPDEST PUSH3 0x1215 PUSH1 0x20 DUP4 ADD DUP6 PUSH3 0xBEC JUMP JUMPDEST PUSH3 0x1224 PUSH1 0x40 DUP4 ADD DUP5 PUSH3 0xC1A JUMP JUMPDEST SWAP5 SWAP4 POP POP POP POP JUMP JUMPDEST PUSH32 0x4E487B7100000000000000000000000000000000000000000000000000000000 PUSH1 0x0 MSTORE PUSH1 0x11 PUSH1 0x4 MSTORE PUSH1 0x24 PUSH1 0x0 REVERT JUMPDEST PUSH1 0x0 PUSH3 0x1268 DUP3 PUSH3 0xB4B JUMP JUMPDEST SWAP2 POP PUSH32 0xFFFFFFFFFFFFFFFFFFFFFFFFFFFFFFFFFFFFFFFFFFFFFFFFFFFFFFFFFFFFFFFF DUP3 EQ ISZERO PUSH3 0x129E JUMPI PUSH3 0x129D PUSH3 0x122C JUMP JUMPDEST JUMPDEST PUSH1 0x1 DUP3 ADD SWAP1 POP SWAP2 SWAP1 POP JUMP JUMPDEST PUSH1 0x0 PUSH3 0x12B6 DUP3 PUSH3 0xB4B JUMP JUMPDEST SWAP2 POP PUSH3 0x12C3 DUP4 PUSH3 0xB4B JUMP JUMPDEST SWAP3 POP DUP3 DUP3 LT ISZERO PUSH3 0x12D9 JUMPI PUSH3 0x12D8 PUSH3 0x122C JUMP JUMPDEST JUMPDEST DUP3 DUP3 SUB SWAP1 POP SWAP3 SWAP2 POP POP JUMP JUMPDEST PUSH32 0x4F776E61626C653A206E6577206F776E657220697320746865207A65726F2061 PUSH1 0x0 DUP3 ADD MSTORE PUSH32 0x6464726573730000000000000000000000000000000000000000000000000000 PUSH1 0x20 DUP3 ADD MSTORE POP JUMP JUMPDEST PUSH1 0x0 PUSH3 0x1342 PUSH1 0x26 DUP4 PUSH3 0xEFE JUMP JUMPDEST SWAP2 POP PUSH3 0x134F DUP3 PUSH3 0x12E4 JUMP JUMPDEST PUSH1 0x40 DUP3 ADD SWAP1 POP SWAP2 SWAP1 POP JUMP JUMPDEST PUSH1 0x0 PUSH1 0x20 DUP3 ADD SWAP1 POP DUP2 DUP2 SUB PUSH1 0x0 DUP4 ADD MSTORE PUSH3 0x1375 DUP2 PUSH3 0x1333 JUMP JUMPDEST SWAP1 POP SWAP2 SWAP1 POP JUMP JUMPDEST PUSH32 0x5061757361626C653A206E6F7420706175736564000000000000000000000000 PUSH1 0x0 DUP3 ADD MSTORE POP JUMP JUMPDEST PUSH1 0x0 PUSH3 0x13B4 PUSH1 0x14 DUP4 PUSH3 0xEFE JUMP JUMPDEST SWAP2 POP PUSH3 0x13C1 DUP3 PUSH3 0x137C JUMP JUMPDEST PUSH1 0x20 DUP3 ADD SWAP1 POP SWAP2 SWAP1 POP JUMP JUMPDEST PUSH1 0x0 PUSH1 0x20 DUP3 ADD SWAP1 POP DUP2 DUP2 SUB PUSH1 0x0 DUP4 ADD MSTORE PUSH3 0x13E7 DUP2 PUSH3 0x13A5 JUMP JUMPDEST SWAP1 POP SWAP2 SWAP1 POP JUMP INVALID PUSH1 0xA0 PUSH1 0x40 MSTORE CALLVALUE DUP1 ISZERO PUSH2 0x10 JUMPI PUSH1 0x0 DUP1 REVERT JUMPDEST POP PUSH1 0x40 MLOAD PUSH2 0x5A3 CODESIZE SUB DUP1 PUSH2 0x5A3 DUP4 CODECOPY DUP2 DUP2 ADD PUSH1 0x40 MSTORE DUP2 ADD SWAP1 PUSH2 0x32 SWAP2 SWAP1 PUSH2 0x2FC JUMP JUMPDEST DUP2 PUSH20 0xFFFFFFFFFFFFFFFFFFFFFFFFFFFFFFFFFFFFFFFF AND PUSH1 0x80 DUP2 PUSH20 0xFFFFFFFFFFFFFFFFFFFFFFFFFFFFFFFFFFFFFFFF AND DUP2 MSTORE POP POP PUSH1 0x0 DUP1 DUP4 PUSH20 0xFFFFFFFFFFFFFFFFFFFFFFFFFFFFFFFFFFFFFFFF AND DUP4 PUSH1 0x40 MLOAD PUSH2 0x8E SWAP2 SWAP1 PUSH2 0x39F JUMP JUMPDEST PUSH1 0x0 PUSH1 0x40 MLOAD DUP1 DUP4 SUB DUP2 DUP6 GAS DELEGATECALL SWAP2 POP POP RETURNDATASIZE DUP1 PUSH1 0x0 DUP2 EQ PUSH2 0xC9 JUMPI PUSH1 0x40 MLOAD SWAP2 POP PUSH1 0x1F NOT PUSH1 0x3F RETURNDATASIZE ADD AND DUP3 ADD PUSH1 0x40 MSTORE RETURNDATASIZE DUP3 MSTORE RETURNDATASIZE PUSH1 0x0 PUSH1 0x20 DUP5 ADD RETURNDATACOPY PUSH2 0xCE JUMP JUMPDEST PUSH1 0x60 SWAP2 POP JUMPDEST POP SWAP2 POP SWAP2 POP DUP2 DUP2 SWAP1 PUSH2 0x116 JUMPI PUSH1 0x40 MLOAD PUSH32 0x8C379A000000000000000000000000000000000000000000000000000000000 DUP2 MSTORE PUSH1 0x4 ADD PUSH2 0x10D SWAP2 SWAP1 PUSH2 0x40B JUMP JUMPDEST PUSH1 0x40 MLOAD DUP1 SWAP2 SUB SWAP1 REVERT JUMPDEST POP POP POP POP POP PUSH2 0x42D JUMP JUMPDEST PUSH1 0x0 PUSH1 0x40 MLOAD SWAP1 POP SWAP1 JUMP JUMPDEST PUSH1 0x0 DUP1 REVERT JUMPDEST PUSH1 0x0 DUP1 REVERT JUMPDEST PUSH1 0x0 PUSH20 0xFFFFFFFFFFFFFFFFFFFFFFFFFFFFFFFFFFFFFFFF DUP3 AND SWAP1 POP SWAP2 SWAP1 POP JUMP JUMPDEST PUSH1 0x0 PUSH2 0x15F DUP3 PUSH2 0x134 JUMP JUMPDEST SWAP1 POP SWAP2 SWAP1 POP JUMP JUMPDEST PUSH2 0x16F DUP2 PUSH2 0x154 JUMP JUMPDEST DUP2 EQ PUSH2 0x17A JUMPI PUSH1 0x0 DUP1 REVERT JUMPDEST POP JUMP JUMPDEST PUSH1 0x0 DUP2 MLOAD SWAP1 POP PUSH2 0x18C DUP2 PUSH2 0x166 JUMP JUMPDEST SWAP3 SWAP2 POP POP JUMP JUMPDEST PUSH1 0x0 DUP1 REVERT JUMPDEST PUSH1 0x0 DUP1 REVERT JUMPDEST PUSH1 0x0 PUSH1 0x1F NOT PUSH1 0x1F DUP4 ADD AND SWAP1 POP SWAP2 SWAP1 POP JUMP JUMPDEST PUSH32 0x4E487B7100000000000000000000000000000000000000000000000000000000 PUSH1 0x0 MSTORE PUSH1 0x41 PUSH1 0x4 MSTORE PUSH1 0x24 PUSH1 0x0 REVERT JUMPDEST PUSH2 0x1E5 DUP3 PUSH2 0x19C JUMP JUMPDEST DUP2 ADD DUP2 DUP2 LT PUSH8 0xFFFFFFFFFFFFFFFF DUP3 GT OR ISZERO PUSH2 0x204 JUMPI PUSH2 0x203 PUSH2 0x1AD JUMP JUMPDEST JUMPDEST DUP1 PUSH1 0x40 MSTORE POP POP POP JUMP JUMPDEST PUSH1 0x0 PUSH2 0x217 PUSH2 0x120 JUMP JUMPDEST SWAP1 POP PUSH2 0x223 DUP3 DUP3 PUSH2 0x1DC JUMP JUMPDEST SWAP2 SWAP1 POP JUMP JUMPDEST PUSH1 0x0 PUSH8 0xFFFFFFFFFFFFFFFF DUP3 GT ISZERO PUSH2 0x243 JUMPI PUSH2 0x242 PUSH2 0x1AD JUMP JUMPDEST JUMPDEST PUSH2 0x24C DUP3 PUSH2 0x19C JUMP JUMPDEST SWAP1 POP PUSH1 0x20 DUP2 ADD SWAP1 POP SWAP2 SWAP1 POP JUMP JUMPDEST PUSH1 0x0 JUMPDEST DUP4 DUP2 LT ISZERO PUSH2 0x277 JUMPI DUP1 DUP3 ADD MLOAD DUP2 DUP5 ADD MSTORE PUSH1 0x20 DUP2 ADD SWAP1 POP PUSH2 0x25C JUMP JUMPDEST DUP4 DUP2 GT ISZERO PUSH2 0x286 JUMPI PUSH1 0x0 DUP5 DUP5 ADD MSTORE JUMPDEST POP POP POP POP JUMP JUMPDEST PUSH1 0x0 PUSH2 0x29F PUSH2 0x29A DUP5 PUSH2 0x228 JUMP JUMPDEST PUSH2 0x20D JUMP JUMPDEST SWAP1 POP DUP3 DUP2 MSTORE PUSH1 0x20 DUP2 ADD DUP5 DUP5 DUP5 ADD GT ISZERO PUSH2 0x2BB JUMPI PUSH2 0x2BA PUSH2 0x197 JUMP JUMPDEST JUMPDEST PUSH2 0x2C6 DUP5 DUP3 DUP6 PUSH2 0x259 JUMP JUMPDEST POP SWAP4 SWAP3 POP POP POP JUMP JUMPDEST PUSH1 0x0 DUP3 PUSH1 0x1F DUP4 ADD SLT PUSH2 0x2E3 JUMPI PUSH2 0x2E2 PUSH2 0x192 JUMP JUMPDEST JUMPDEST DUP2 MLOAD PUSH2 0x2F3 DUP5 DUP3 PUSH1 0x20 DUP7 ADD PUSH2 0x28C JUMP JUMPDEST SWAP2 POP POP SWAP3 SWAP2 POP POP JUMP JUMPDEST PUSH1 0x0 DUP1 PUSH1 0x40 DUP4 DUP6 SUB SLT ISZERO PUSH2 0x313 JUMPI PUSH2 0x312 PUSH2 0x12A JUMP JUMPDEST JUMPDEST PUSH1 0x0 PUSH2 0x321 DUP6 DUP3 DUP7 ADD PUSH2 0x17D JUMP JUMPDEST SWAP3 POP POP PUSH1 0x20 DUP4 ADD MLOAD PUSH8 0xFFFFFFFFFFFFFFFF DUP2 GT ISZERO PUSH2 0x342 JUMPI PUSH2 0x341 PUSH2 0x12F JUMP JUMPDEST JUMPDEST PUSH2 0x34E DUP6 DUP3 DUP7 ADD PUSH2 0x2CE JUMP JUMPDEST SWAP2 POP POP SWAP3 POP SWAP3 SWAP1 POP JUMP JUMPDEST PUSH1 0x0 DUP2 MLOAD SWAP1 POP SWAP2 SWAP1 POP JUMP JUMPDEST PUSH1 0x0 DUP2 SWAP1 POP SWAP3 SWAP2 POP POP JUMP JUMPDEST PUSH1 0x0 PUSH2 0x379 DUP3 PUSH2 0x358 JUMP JUMPDEST PUSH2 0x383 DUP2 DUP6 PUSH2 0x363 JUMP JUMPDEST SWAP4 POP PUSH2 0x393 DUP2 DUP6 PUSH1 0x20 DUP7 ADD PUSH2 0x259 JUMP JUMPDEST DUP1 DUP5 ADD SWAP2 POP POP SWAP3 SWAP2 POP POP JUMP JUMPDEST PUSH1 0x0 PUSH2 0x3AB DUP3 DUP5 PUSH2 0x36E JUMP JUMPDEST SWAP2 POP DUP2 SWAP1 POP SWAP3 SWAP2 POP POP JUMP JUMPDEST PUSH1 0x0 DUP2 MLOAD SWAP1 POP SWAP2 SWAP1 POP JUMP JUMPDEST PUSH1 0x0 DUP3 DUP3 MSTORE PUSH1 0x20 DUP3 ADD SWAP1 POP SWAP3 SWAP2 POP POP JUMP JUMPDEST PUSH1 0x0 PUSH2 0x3DD DUP3 PUSH2 0x3B6 JUMP JUMPDEST PUSH2 0x3E7 DUP2 DUP6 PUSH2 0x3C1 JUMP JUMPDEST SWAP4 POP PUSH2 0x3F7 DUP2 DUP6 PUSH1 0x20 DUP7 ADD PUSH2 0x259 JUMP JUMPDEST PUSH2 0x400 DUP2 PUSH2 0x19C JUMP JUMPDEST DUP5 ADD SWAP2 POP POP SWAP3 SWAP2 POP POP JUMP JUMPDEST PUSH1 0x0 PUSH1 0x20 DUP3 ADD SWAP1 POP DUP2 DUP2 SUB PUSH1 0x0 DUP4 ADD MSTORE PUSH2 0x425 DUP2 DUP5 PUSH2 0x3D2 JUMP JUMPDEST SWAP1 POP SWAP3 SWAP2 POP POP JUMP JUMPDEST PUSH1 0x80 MLOAD PUSH2 0x156 PUSH2 0x44D PUSH1 0x0 CODECOPY PUSH1 0x0 DUP2 DUP2 PUSH1 0x2D ADD MSTORE PUSH1 0xA2 ADD MSTORE PUSH2 0x156 PUSH1 0x0 RETURN INVALID PUSH1 0x80 PUSH1 0x40 MSTORE PUSH1 0x4 CALLDATASIZE LT PUSH2 0x22 JUMPI PUSH1 0x0 CALLDATALOAD PUSH1 0xE0 SHR DUP1 PUSH4 0xD7DFA0DD EQ PUSH2 0x75 JUMPI PUSH2 0x29 JUMP JUMPDEST CALLDATASIZE PUSH2 0x29 JUMPI STOP JUMPDEST PUSH1 0x0 PUSH32 0x0 SWAP1 POP PUSH1 0x40 MLOAD CALLDATASIZE PUSH1 0x0 DUP3 CALLDATACOPY PUSH1 0x0 DUP1 CALLDATASIZE DUP4 DUP6 GAS DELEGATECALL RETURNDATASIZE DUP1 PUSH1 0x0 DUP5 RETURNDATACOPY DUP2 PUSH1 0x0 DUP2 EQ PUSH2 0x71 JUMPI DUP2 DUP5 RETURN JUMPDEST DUP2 DUP5 REVERT JUMPDEST CALLVALUE DUP1 ISZERO PUSH2 0x81 JUMPI PUSH1 0x0 DUP1 REVERT JUMPDEST POP PUSH2 0x8A PUSH2 0xA0 JUMP JUMPDEST PUSH1 0x40 MLOAD PUSH2 0x97 SWAP2 SWAP1 PUSH2 0x105 JUMP JUMPDEST PUSH1 0x40 MLOAD DUP1 SWAP2 SUB SWAP1 RETURN JUMPDEST PUSH32 0x0 DUP2 JUMP JUMPDEST PUSH1 0x0 PUSH20 0xFFFFFFFFFFFFFFFFFFFFFFFFFFFFFFFFFFFFFFFF DUP3 AND SWAP1 POP SWAP2 SWAP1 POP JUMP JUMPDEST PUSH1 0x0 PUSH2 0xEF DUP3 PUSH2 0xC4 JUMP JUMPDEST SWAP1 POP SWAP2 SWAP1 POP JUMP JUMPDEST PUSH2 0xFF DUP2 PUSH2 0xE4 JUMP JUMPDEST DUP3 MSTORE POP POP JUMP JUMPDEST PUSH1 0x0 PUSH1 0x20 DUP3 ADD SWAP1 POP PUSH2 0x11A PUSH1 0x0 DUP4 ADD DUP5 PUSH2 0xF6 JUMP JUMPDEST SWAP3 SWAP2 POP POP JUMP INVALID LOG2 PUSH5 0x6970667358 0x22 SLT KECCAK256 0x29 CALLDATACOPY CREATE2 0xD7 0xCD CREATE 0xB1 0xBA 0xCD PUSH11 0x46578898B0BB05036694AE SWAP15 SWAP12 MSIZE DUP5 0xB1 0xC3 ORIGIN SWAP1 SMOD DUP10 PUSH30 0x64736F6C634300080A0033A264697066735822122005B56C5D92A6108971 0xC5 0x5F SDIV LOG4 0xEF 0xC1 0x4A NUMBER BASEFEE SSTORE CALLCODE EXTCODEHASH 0xA8 0xAF 0xAC 0xAB 0xCE 0xC2 PUSH32 0x4219B24464736F6C634300080A003360A06040523480156200001157600080FD JUMPDEST POP PUSH1 0x40 MLOAD PUSH3 0x5D33 CODESIZE SUB DUP1 PUSH3 0x5D33 DUP4 CODECOPY DUP2 DUP2 ADD PUSH1 0x40 MSTORE DUP2 ADD SWAP1 PUSH3 0x37 SWAP2 SWAP1 PUSH3 0xDC JUMP JUMPDEST DUP1 PUSH20 0xFFFFFFFFFFFFFFFFFFFFFFFFFFFFFFFFFFFFFFFF AND PUSH1 0x80 DUP2 PUSH20 0xFFFFFFFFFFFFFFFFFFFFFFFFFFFFFFFFFFFFFFFF AND DUP2 MSTORE POP POP POP PUSH3 0x10E JUMP JUMPDEST PUSH1 0x0 DUP1 REVERT JUMPDEST PUSH1 0x0 PUSH20 0xFFFFFFFFFFFFFFFFFFFFFFFFFFFFFFFFFFFFFFFF DUP3 AND SWAP1 POP SWAP2 SWAP1 POP JUMP JUMPDEST PUSH1 0x0 PUSH3 0xA4 DUP3 PUSH3 0x77 JUMP JUMPDEST SWAP1 POP SWAP2 SWAP1 POP JUMP JUMPDEST PUSH3 0xB6 DUP2 PUSH3 0x97 JUMP JUMPDEST DUP2 EQ PUSH3 0xC2 JUMPI PUSH1 0x0 DUP1 REVERT JUMPDEST POP JUMP JUMPDEST PUSH1 0x0 DUP2 MLOAD SWAP1 POP PUSH3 0xD6 DUP2 PUSH3 0xAB JUMP JUMPDEST SWAP3 SWAP2 POP POP JUMP JUMPDEST PUSH1 0x0 PUSH1 0x20 DUP3 DUP5 SUB SLT ISZERO PUSH3 0xF5 JUMPI PUSH3 0xF4 PUSH3 0x72 JUMP JUMPDEST JUMPDEST PUSH1 0x0 PUSH3 0x105 DUP5 DUP3 DUP6 ADD PUSH3 0xC5 JUMP JUMPDEST SWAP2 POP POP SWAP3 SWAP2 POP POP JUMP JUMPDEST PUSH1 0x80 MLOAD PUSH2 0x5BAE PUSH3 0x185 PUSH1 0x0 CODECOPY PUSH1 0x0 DUP2 DUP2 PUSH2 0xB85 ADD MSTORE DUP2 DUP2 PUSH2 0xEB9 ADD MSTORE DUP2 DUP2 PUSH2 0x1089 ADD MSTORE DUP2 DUP2 PUSH2 0x1124 ADD MSTORE DUP2 DUP2 PUSH2 0x16AF ADD MSTORE DUP2 DUP2 PUSH2 0x179F ADD MSTORE DUP2 DUP2 PUSH2 0x1954 ADD MSTORE DUP2 DUP2 PUSH2 0x1A44 ADD MSTORE DUP2 DUP2 PUSH2 0x1C6A ADD MSTORE DUP2 DUP2 PUSH2 0x2041 ADD MSTORE DUP2 DUP2 PUSH2 0x26AC ADD MSTORE DUP2 DUP2 PUSH2 0x2946 ADD MSTORE DUP2 DUP2 PUSH2 0x3543 ADD MSTORE PUSH2 0x35D8 ADD MSTORE PUSH2 0x5BAE PUSH1 0x0 RETURN INVALID PUSH1 0x80 PUSH1 0x40 MSTORE PUSH1 0x4 CALLDATASIZE LT PUSH2 0x251 JUMPI PUSH1 0x0 CALLDATALOAD PUSH1 0xE0 SHR DUP1 PUSH4 0x80436FE0 GT PUSH2 0x139 JUMPI DUP1 PUSH4 0xBE040FB0 GT PUSH2 0xB6 JUMPI DUP1 PUSH4 0xDD62ED3E GT PUSH2 0x7A JUMPI DUP1 PUSH4 0xDD62ED3E EQ PUSH2 0x866 JUMPI DUP1 PUSH4 0xDDCA3F43 EQ PUSH2 0x8A3 JUMPI DUP1 PUSH4 0xE06174E4 EQ PUSH2 0x8CE JUMPI DUP1 PUSH4 0xE66F53B7 EQ PUSH2 0x8F9 JUMPI DUP1 PUSH4 0xEFBE1C1C EQ PUSH2 0x924 JUMPI DUP1 PUSH4 0xFC0C546A EQ PUSH2 0x93B JUMPI PUSH2 0x251 JUMP JUMPDEST DUP1 PUSH4 0xBE040FB0 EQ PUSH2 0x7C6 JUMPI DUP1 PUSH4 0xBE9A6555 EQ PUSH2 0x7DD JUMPI DUP1 PUSH4 0xC91DE649 EQ PUSH2 0x7E7 JUMPI DUP1 PUSH4 0xD294F093 EQ PUSH2 0x824 JUMPI DUP1 PUSH4 0xDB2E1EED EQ PUSH2 0x83B JUMPI PUSH2 0x251 JUMP JUMPDEST DUP1 PUSH4 0x9A4E6D34 GT PUSH2 0xFD JUMPI DUP1 PUSH4 0x9A4E6D34 EQ PUSH2 0x6CB JUMPI DUP1 PUSH4 0xA457C2D7 EQ PUSH2 0x6F6 JUMPI DUP1 PUSH4 0xA9059CBB EQ PUSH2 0x733 JUMPI DUP1 PUSH4 0xADC1B956 EQ PUSH2 0x770 JUMPI DUP1 PUSH4 0xAF640D0F EQ PUSH2 0x79B JUMPI PUSH2 0x251 JUMP JUMPDEST DUP1 PUSH4 0x80436FE0 EQ PUSH2 0x60C JUMPI DUP1 PUSH4 0x853A1B90 EQ PUSH2 0x635 JUMPI DUP1 PUSH4 0x9012C4A8 EQ PUSH2 0x660 JUMPI DUP1 PUSH4 0x95D89B41 EQ PUSH2 0x689 JUMPI DUP1 PUSH4 0x961BE391 EQ PUSH2 0x6B4 JUMPI PUSH2 0x251 JUMP JUMPDEST DUP1 PUSH4 0x313CE567 GT PUSH2 0x1D2 JUMPI DUP1 PUSH4 0x626FB2F0 GT PUSH2 0x196 JUMPI DUP1 PUSH4 0x626FB2F0 EQ PUSH2 0x4FC JUMPI DUP1 PUSH4 0x6A775714 EQ PUSH2 0x525 JUMPI DUP1 PUSH4 0x6DA84E6C EQ PUSH2 0x54E JUMPI DUP1 PUSH4 0x70A08231 EQ PUSH2 0x579 JUMPI DUP1 PUSH4 0x7B5581ED EQ PUSH2 0x5B6 JUMPI DUP1 PUSH4 0x7FB45099 EQ PUSH2 0x5E1 JUMPI PUSH2 0x251 JUMP JUMPDEST DUP1 PUSH4 0x313CE567 EQ PUSH2 0x413 JUMPI DUP1 PUSH4 0x325C25A2 EQ PUSH2 0x43E JUMPI DUP1 PUSH4 0x39509351 EQ PUSH2 0x469 JUMPI DUP1 PUSH4 0x3FC8CEF3 EQ PUSH2 0x4A6 JUMPI DUP1 PUSH4 0x5C9920FC EQ PUSH2 0x4D1 JUMPI PUSH2 0x251 JUMP JUMPDEST DUP1 PUSH4 0x1998AEEF GT PUSH2 0x219 JUMPI DUP1 PUSH4 0x1998AEEF EQ PUSH2 0x34F JUMPI DUP1 PUSH4 0x23B872DD EQ PUSH2 0x359 JUMPI DUP1 PUSH4 0x2A24F46C EQ PUSH2 0x396 JUMPI DUP1 PUSH4 0x2A44F120 EQ PUSH2 0x3C1 JUMPI DUP1 PUSH4 0x2BF33BD9 EQ PUSH2 0x3EA JUMPI PUSH2 0x251 JUMP JUMPDEST DUP1 PUSH4 0x6FDDE03 EQ PUSH2 0x256 JUMPI DUP1 PUSH4 0x95EA7B3 EQ PUSH2 0x281 JUMPI DUP1 PUSH4 0xC6A62DD EQ PUSH2 0x2BE JUMPI DUP1 PUSH4 0x150B7A02 EQ PUSH2 0x2E7 JUMPI DUP1 PUSH4 0x18160DDD EQ PUSH2 0x324 JUMPI JUMPDEST PUSH1 0x0 DUP1 REVERT JUMPDEST CALLVALUE DUP1 ISZERO PUSH2 0x262 JUMPI PUSH1 0x0 DUP1 REVERT JUMPDEST POP PUSH2 0x26B PUSH2 0x966 JUMP JUMPDEST PUSH1 0x40 MLOAD PUSH2 0x278 SWAP2 SWAP1 PUSH2 0x3FDF JUMP JUMPDEST PUSH1 0x40 MLOAD DUP1 SWAP2 SUB SWAP1 RETURN JUMPDEST CALLVALUE DUP1 ISZERO PUSH2 0x28D JUMPI PUSH1 0x0 DUP1 REVERT JUMPDEST POP PUSH2 0x2A8 PUSH1 0x4 DUP1 CALLDATASIZE SUB DUP2 ADD SWAP1 PUSH2 0x2A3 SWAP2 SWAP1 PUSH2 0x40A9 JUMP JUMPDEST PUSH2 0x9F8 JUMP JUMPDEST PUSH1 0x40 MLOAD PUSH2 0x2B5 SWAP2 SWAP1 PUSH2 0x4104 JUMP JUMPDEST PUSH1 0x40 MLOAD DUP1 SWAP2 SUB SWAP1 RETURN JUMPDEST CALLVALUE DUP1 ISZERO PUSH2 0x2CA JUMPI PUSH1 0x0 DUP1 REVERT JUMPDEST POP PUSH2 0x2E5 PUSH1 0x4 DUP1 CALLDATASIZE SUB DUP2 ADD SWAP1 PUSH2 0x2E0 SWAP2 SWAP1 PUSH2 0x411F JUMP JUMPDEST PUSH2 0xA16 JUMP JUMPDEST STOP JUMPDEST CALLVALUE DUP1 ISZERO PUSH2 0x2F3 JUMPI PUSH1 0x0 DUP1 REVERT JUMPDEST POP PUSH2 0x30E PUSH1 0x4 DUP1 CALLDATASIZE SUB DUP2 ADD SWAP1 PUSH2 0x309 SWAP2 SWAP1 PUSH2 0x4281 JUMP JUMPDEST PUSH2 0xAEA JUMP JUMPDEST PUSH1 0x40 MLOAD PUSH2 0x31B SWAP2 SWAP1 PUSH2 0x433F JUMP JUMPDEST PUSH1 0x40 MLOAD DUP1 SWAP2 SUB SWAP1 RETURN JUMPDEST CALLVALUE DUP1 ISZERO PUSH2 0x330 JUMPI PUSH1 0x0 DUP1 REVERT JUMPDEST POP PUSH2 0x339 PUSH2 0xAFE JUMP JUMPDEST PUSH1 0x40 MLOAD PUSH2 0x346 SWAP2 SWAP1 PUSH2 0x4369 JUMP JUMPDEST PUSH1 0x40 MLOAD DUP1 SWAP2 SUB SWAP1 RETURN JUMPDEST PUSH2 0x357 PUSH2 0xB08 JUMP JUMPDEST STOP JUMPDEST CALLVALUE DUP1 ISZERO PUSH2 0x365 JUMPI PUSH1 0x0 DUP1 REVERT JUMPDEST POP PUSH2 0x380 PUSH1 0x4 DUP1 CALLDATASIZE SUB DUP2 ADD SWAP1 PUSH2 0x37B SWAP2 SWAP1 PUSH2 0x4384 JUMP JUMPDEST PUSH2 0xDB9 JUMP JUMPDEST PUSH1 0x40 MLOAD PUSH2 0x38D SWAP2 SWAP1 PUSH2 0x4104 JUMP JUMPDEST PUSH1 0x40 MLOAD DUP1 SWAP2 SUB SWAP1 RETURN JUMPDEST CALLVALUE DUP1 ISZERO PUSH2 0x3A2 JUMPI PUSH1 0x0 DUP1 REVERT JUMPDEST POP PUSH2 0x3AB PUSH2 0xEB1 JUMP JUMPDEST PUSH1 0x40 MLOAD PUSH2 0x3B8 SWAP2 SWAP1 PUSH2 0x4369 JUMP JUMPDEST PUSH1 0x40 MLOAD DUP1 SWAP2 SUB SWAP1 RETURN JUMPDEST CALLVALUE DUP1 ISZERO PUSH2 0x3CD JUMPI PUSH1 0x0 DUP1 REVERT JUMPDEST POP PUSH2 0x3E8 PUSH1 0x4 DUP1 CALLDATASIZE SUB DUP2 ADD SWAP1 PUSH2 0x3E3 SWAP2 SWAP1 PUSH2 0x411F JUMP JUMPDEST PUSH2 0xEB7 JUMP JUMPDEST STOP JUMPDEST CALLVALUE DUP1 ISZERO PUSH2 0x3F6 JUMPI PUSH1 0x0 DUP1 REVERT JUMPDEST POP PUSH2 0x411 PUSH1 0x4 DUP1 CALLDATASIZE SUB DUP2 ADD SWAP1 PUSH2 0x40C SWAP2 SWAP1 PUSH2 0x43D7 JUMP JUMPDEST PUSH2 0xFF7 JUMP JUMPDEST STOP JUMPDEST CALLVALUE DUP1 ISZERO PUSH2 0x41F JUMPI PUSH1 0x0 DUP1 REVERT JUMPDEST POP PUSH2 0x428 PUSH2 0x1237 JUMP JUMPDEST PUSH1 0x40 MLOAD PUSH2 0x435 SWAP2 SWAP1 PUSH2 0x4420 JUMP JUMPDEST PUSH1 0x40 MLOAD DUP1 SWAP2 SUB SWAP1 RETURN JUMPDEST CALLVALUE DUP1 ISZERO PUSH2 0x44A JUMPI PUSH1 0x0 DUP1 REVERT JUMPDEST POP PUSH2 0x453 PUSH2 0x1240 JUMP JUMPDEST PUSH1 0x40 MLOAD PUSH2 0x460 SWAP2 SWAP1 PUSH2 0x4369 JUMP JUMPDEST PUSH1 0x40 MLOAD DUP1 SWAP2 SUB SWAP1 RETURN JUMPDEST CALLVALUE DUP1 ISZERO PUSH2 0x475 JUMPI PUSH1 0x0 DUP1 REVERT JUMPDEST POP PUSH2 0x490 PUSH1 0x4 DUP1 CALLDATASIZE SUB DUP2 ADD SWAP1 PUSH2 0x48B SWAP2 SWAP1 PUSH2 0x40A9 JUMP JUMPDEST PUSH2 0x1246 JUMP JUMPDEST PUSH1 0x40 MLOAD PUSH2 0x49D SWAP2 SWAP1 PUSH2 0x4104 JUMP JUMPDEST PUSH1 0x40 MLOAD DUP1 SWAP2 SUB SWAP1 RETURN JUMPDEST CALLVALUE DUP1 ISZERO PUSH2 0x4B2 JUMPI PUSH1 0x0 DUP1 REVERT JUMPDEST POP PUSH2 0x4BB PUSH2 0x12F2 JUMP JUMPDEST PUSH1 0x40 MLOAD PUSH2 0x4C8 SWAP2 SWAP1 PUSH2 0x444A JUMP JUMPDEST PUSH1 0x40 MLOAD DUP1 SWAP2 SUB SWAP1 RETURN JUMPDEST CALLVALUE DUP1 ISZERO PUSH2 0x4DD JUMPI PUSH1 0x0 DUP1 REVERT JUMPDEST POP PUSH2 0x4E6 PUSH2 0x130A JUMP JUMPDEST PUSH1 0x40 MLOAD PUSH2 0x4F3 SWAP2 SWAP1 PUSH2 0x4104 JUMP JUMPDEST PUSH1 0x40 MLOAD DUP1 SWAP2 SUB SWAP1 RETURN JUMPDEST CALLVALUE DUP1 ISZERO PUSH2 0x508 JUMPI PUSH1 0x0 DUP1 REVERT JUMPDEST POP PUSH2 0x523 PUSH1 0x4 DUP1 CALLDATASIZE SUB DUP2 ADD SWAP1 PUSH2 0x51E SWAP2 SWAP1 PUSH2 0x4506 JUMP JUMPDEST PUSH2 0x131D JUMP JUMPDEST STOP JUMPDEST CALLVALUE DUP1 ISZERO PUSH2 0x531 JUMPI PUSH1 0x0 DUP1 REVERT JUMPDEST POP PUSH2 0x54C PUSH1 0x4 DUP1 CALLDATASIZE SUB DUP2 ADD SWAP1 PUSH2 0x547 SWAP2 SWAP1 PUSH2 0x43D7 JUMP JUMPDEST PUSH2 0x152A JUMP JUMPDEST STOP JUMPDEST CALLVALUE DUP1 ISZERO PUSH2 0x55A JUMPI PUSH1 0x0 DUP1 REVERT JUMPDEST POP PUSH2 0x563 PUSH2 0x1C00 JUMP JUMPDEST PUSH1 0x40 MLOAD PUSH2 0x570 SWAP2 SWAP1 PUSH2 0x4369 JUMP JUMPDEST PUSH1 0x40 MLOAD DUP1 SWAP2 SUB SWAP1 RETURN JUMPDEST CALLVALUE DUP1 ISZERO PUSH2 0x585 JUMPI PUSH1 0x0 DUP1 REVERT JUMPDEST POP PUSH2 0x5A0 PUSH1 0x4 DUP1 CALLDATASIZE SUB DUP2 ADD SWAP1 PUSH2 0x59B SWAP2 SWAP1 PUSH2 0x411F JUMP JUMPDEST PUSH2 0x1C06 JUMP JUMPDEST PUSH1 0x40 MLOAD PUSH2 0x5AD SWAP2 SWAP1 PUSH2 0x4369 JUMP JUMPDEST PUSH1 0x40 MLOAD DUP1 SWAP2 SUB SWAP1 RETURN JUMPDEST CALLVALUE DUP1 ISZERO PUSH2 0x5C2 JUMPI PUSH1 0x0 DUP1 REVERT JUMPDEST POP PUSH2 0x5CB PUSH2 0x1C4F JUMP JUMPDEST PUSH1 0x40 MLOAD PUSH2 0x5D8 SWAP2 SWAP1 PUSH2 0x4369 JUMP JUMPDEST PUSH1 0x40 MLOAD DUP1 SWAP2 SUB SWAP1 RETURN JUMPDEST CALLVALUE DUP1 ISZERO PUSH2 0x5ED JUMPI PUSH1 0x0 DUP1 REVERT JUMPDEST POP PUSH2 0x5F6 PUSH2 0x1C55 JUMP JUMPDEST PUSH1 0x40 MLOAD PUSH2 0x603 SWAP2 SWAP1 PUSH2 0x466B JUMP JUMPDEST PUSH1 0x40 MLOAD DUP1 SWAP2 SUB SWAP1 RETURN JUMPDEST CALLVALUE DUP1 ISZERO PUSH2 0x618 JUMPI PUSH1 0x0 DUP1 REVERT JUMPDEST POP PUSH2 0x633 PUSH1 0x4 DUP1 CALLDATASIZE SUB DUP2 ADD SWAP1 PUSH2 0x62E SWAP2 SWAP1 PUSH2 0x411F JUMP JUMPDEST PUSH2 0x1C68 JUMP JUMPDEST STOP JUMPDEST CALLVALUE DUP1 ISZERO PUSH2 0x641 JUMPI PUSH1 0x0 DUP1 REVERT JUMPDEST POP PUSH2 0x64A PUSH2 0x1F45 JUMP JUMPDEST PUSH1 0x40 MLOAD PUSH2 0x657 SWAP2 SWAP1 PUSH2 0x46A7 JUMP JUMPDEST PUSH1 0x40 MLOAD DUP1 SWAP2 SUB SWAP1 RETURN JUMPDEST CALLVALUE DUP1 ISZERO PUSH2 0x66C JUMPI PUSH1 0x0 DUP1 REVERT JUMPDEST POP PUSH2 0x687 PUSH1 0x4 DUP1 CALLDATASIZE SUB DUP2 ADD SWAP1 PUSH2 0x682 SWAP2 SWAP1 PUSH2 0x43D7 JUMP JUMPDEST PUSH2 0x1F6B JUMP JUMPDEST STOP JUMPDEST CALLVALUE DUP1 ISZERO PUSH2 0x695 JUMPI PUSH1 0x0 DUP1 REVERT JUMPDEST POP PUSH2 0x69E PUSH2 0x215D JUMP JUMPDEST PUSH1 0x40 MLOAD PUSH2 0x6AB SWAP2 SWAP1 PUSH2 0x3FDF JUMP JUMPDEST PUSH1 0x40 MLOAD DUP1 SWAP2 SUB SWAP1 RETURN JUMPDEST CALLVALUE DUP1 ISZERO PUSH2 0x6C0 JUMPI PUSH1 0x0 DUP1 REVERT JUMPDEST POP PUSH2 0x6C9 PUSH2 0x21EF JUMP JUMPDEST STOP JUMPDEST CALLVALUE DUP1 ISZERO PUSH2 0x6D7 JUMPI PUSH1 0x0 DUP1 REVERT JUMPDEST POP PUSH2 0x6E0 PUSH2 0x233D JUMP JUMPDEST PUSH1 0x40 MLOAD PUSH2 0x6ED SWAP2 SWAP1 PUSH2 0x4369 JUMP JUMPDEST PUSH1 0x40 MLOAD DUP1 SWAP2 SUB SWAP1 RETURN JUMPDEST CALLVALUE DUP1 ISZERO PUSH2 0x702 JUMPI PUSH1 0x0 DUP1 REVERT JUMPDEST POP PUSH2 0x71D PUSH1 0x4 DUP1 CALLDATASIZE SUB DUP2 ADD SWAP1 PUSH2 0x718 SWAP2 SWAP1 PUSH2 0x40A9 JUMP JUMPDEST PUSH2 0x2343 JUMP JUMPDEST PUSH1 0x40 MLOAD PUSH2 0x72A SWAP2 SWAP1 PUSH2 0x4104 JUMP JUMPDEST PUSH1 0x40 MLOAD DUP1 SWAP2 SUB SWAP1 RETURN JUMPDEST CALLVALUE DUP1 ISZERO PUSH2 0x73F JUMPI PUSH1 0x0 DUP1 REVERT JUMPDEST POP PUSH2 0x75A PUSH1 0x4 DUP1 CALLDATASIZE SUB DUP2 ADD SWAP1 PUSH2 0x755 SWAP2 SWAP1 PUSH2 0x40A9 JUMP JUMPDEST PUSH2 0x242E JUMP JUMPDEST PUSH1 0x40 MLOAD PUSH2 0x767 SWAP2 SWAP1 PUSH2 0x4104 JUMP JUMPDEST PUSH1 0x40 MLOAD DUP1 SWAP2 SUB SWAP1 RETURN JUMPDEST CALLVALUE DUP1 ISZERO PUSH2 0x77C JUMPI PUSH1 0x0 DUP1 REVERT JUMPDEST POP PUSH2 0x785 PUSH2 0x244C JUMP JUMPDEST PUSH1 0x40 MLOAD PUSH2 0x792 SWAP2 SWAP1 PUSH2 0x4369 JUMP JUMPDEST PUSH1 0x40 MLOAD DUP1 SWAP2 SUB SWAP1 RETURN JUMPDEST CALLVALUE DUP1 ISZERO PUSH2 0x7A7 JUMPI PUSH1 0x0 DUP1 REVERT JUMPDEST POP PUSH2 0x7B0 PUSH2 0x2452 JUMP JUMPDEST PUSH1 0x40 MLOAD PUSH2 0x7BD SWAP2 SWAP1 PUSH2 0x4369 JUMP JUMPDEST PUSH1 0x40 MLOAD DUP1 SWAP2 SUB SWAP1 RETURN JUMPDEST CALLVALUE DUP1 ISZERO PUSH2 0x7D2 JUMPI PUSH1 0x0 DUP1 REVERT JUMPDEST POP PUSH2 0x7DB PUSH2 0x2458 JUMP JUMPDEST STOP JUMPDEST PUSH2 0x7E5 PUSH2 0x25E2 JUMP JUMPDEST STOP JUMPDEST CALLVALUE DUP1 ISZERO PUSH2 0x7F3 JUMPI PUSH1 0x0 DUP1 REVERT JUMPDEST POP PUSH2 0x80E PUSH1 0x4 DUP1 CALLDATASIZE SUB DUP2 ADD SWAP1 PUSH2 0x809 SWAP2 SWAP1 PUSH2 0x411F JUMP JUMPDEST PUSH2 0x286D JUMP JUMPDEST PUSH1 0x40 MLOAD PUSH2 0x81B SWAP2 SWAP1 PUSH2 0x4369 JUMP JUMPDEST PUSH1 0x40 MLOAD DUP1 SWAP2 SUB SWAP1 RETURN JUMPDEST CALLVALUE DUP1 ISZERO PUSH2 0x830 JUMPI PUSH1 0x0 DUP1 REVERT JUMPDEST POP PUSH2 0x839 PUSH2 0x2885 JUMP JUMPDEST STOP JUMPDEST CALLVALUE DUP1 ISZERO PUSH2 0x847 JUMPI PUSH1 0x0 DUP1 REVERT JUMPDEST POP PUSH2 0x850 PUSH2 0x288F JUMP JUMPDEST PUSH1 0x40 MLOAD PUSH2 0x85D SWAP2 SWAP1 PUSH2 0x4369 JUMP JUMPDEST PUSH1 0x40 MLOAD DUP1 SWAP2 SUB SWAP1 RETURN JUMPDEST CALLVALUE DUP1 ISZERO PUSH2 0x872 JUMPI PUSH1 0x0 DUP1 REVERT JUMPDEST POP PUSH2 0x88D PUSH1 0x4 DUP1 CALLDATASIZE SUB DUP2 ADD SWAP1 PUSH2 0x888 SWAP2 SWAP1 PUSH2 0x46C2 JUMP JUMPDEST PUSH2 0x28B7 JUMP JUMPDEST PUSH1 0x40 MLOAD PUSH2 0x89A SWAP2 SWAP1 PUSH2 0x4369 JUMP JUMPDEST PUSH1 0x40 MLOAD DUP1 SWAP2 SUB SWAP1 RETURN JUMPDEST CALLVALUE DUP1 ISZERO PUSH2 0x8AF JUMPI PUSH1 0x0 DUP1 REVERT JUMPDEST POP PUSH2 0x8B8 PUSH2 0x293E JUMP JUMPDEST PUSH1 0x40 MLOAD PUSH2 0x8C5 SWAP2 SWAP1 PUSH2 0x4369 JUMP JUMPDEST PUSH1 0x40 MLOAD DUP1 SWAP2 SUB SWAP1 RETURN JUMPDEST CALLVALUE DUP1 ISZERO PUSH2 0x8DA JUMPI PUSH1 0x0 DUP1 REVERT JUMPDEST POP PUSH2 0x8E3 PUSH2 0x2944 JUMP JUMPDEST PUSH1 0x40 MLOAD PUSH2 0x8F0 SWAP2 SWAP1 PUSH2 0x444A JUMP JUMPDEST PUSH1 0x40 MLOAD DUP1 SWAP2 SUB SWAP1 RETURN JUMPDEST CALLVALUE DUP1 ISZERO PUSH2 0x905 JUMPI PUSH1 0x0 DUP1 REVERT JUMPDEST POP PUSH2 0x90E PUSH2 0x2968 JUMP JUMPDEST PUSH1 0x40 MLOAD PUSH2 0x91B SWAP2 SWAP1 PUSH2 0x444A JUMP JUMPDEST PUSH1 0x40 MLOAD DUP1 SWAP2 SUB SWAP1 RETURN JUMPDEST CALLVALUE DUP1 ISZERO PUSH2 0x930 JUMPI PUSH1 0x0 DUP1 REVERT JUMPDEST POP PUSH2 0x939 PUSH2 0x298E JUMP JUMPDEST STOP JUMPDEST CALLVALUE DUP1 ISZERO PUSH2 0x947 JUMPI PUSH1 0x0 DUP1 REVERT JUMPDEST POP PUSH2 0x950 PUSH2 0x2BA5 JUMP JUMPDEST PUSH1 0x40 MLOAD PUSH2 0x95D SWAP2 SWAP1 PUSH2 0x444A JUMP JUMPDEST PUSH1 0x40 MLOAD DUP1 SWAP2 SUB SWAP1 RETURN JUMPDEST PUSH1 0x60 PUSH1 0x36 DUP1 SLOAD PUSH2 0x975 SWAP1 PUSH2 0x4731 JUMP JUMPDEST DUP1 PUSH1 0x1F ADD PUSH1 0x20 DUP1 SWAP2 DIV MUL PUSH1 0x20 ADD PUSH1 0x40 MLOAD SWAP1 DUP2 ADD PUSH1 0x40 MSTORE DUP1 SWAP3 SWAP2 SWAP1 DUP2 DUP2 MSTORE PUSH1 0x20 ADD DUP3 DUP1 SLOAD PUSH2 0x9A1 SWAP1 PUSH2 0x4731 JUMP JUMPDEST DUP1 ISZERO PUSH2 0x9EE JUMPI DUP1 PUSH1 0x1F LT PUSH2 0x9C3 JUMPI PUSH2 0x100 DUP1 DUP4 SLOAD DIV MUL DUP4 MSTORE SWAP2 PUSH1 0x20 ADD SWAP2 PUSH2 0x9EE JUMP JUMPDEST DUP3 ADD SWAP2 SWAP1 PUSH1 0x0 MSTORE PUSH1 0x20 PUSH1 0x0 KECCAK256 SWAP1 JUMPDEST DUP2 SLOAD DUP2 MSTORE SWAP1 PUSH1 0x1 ADD SWAP1 PUSH1 0x20 ADD DUP1 DUP4 GT PUSH2 0x9D1 JUMPI DUP3 SWAP1 SUB PUSH1 0x1F AND DUP3 ADD SWAP2 JUMPDEST POP POP POP POP POP SWAP1 POP SWAP1 JUMP JUMPDEST PUSH1 0x0 PUSH2 0xA0C PUSH2 0xA05 PUSH2 0x2BCB JUMP JUMPDEST DUP5 DUP5 PUSH2 0x2BD3 JUMP JUMPDEST PUSH1 0x1 SWAP1 POP SWAP3 SWAP2 POP POP JUMP JUMPDEST PUSH1 0x9E PUSH1 0x0 SWAP1 SLOAD SWAP1 PUSH2 0x100 EXP SWAP1 DIV PUSH20 0xFFFFFFFFFFFFFFFFFFFFFFFFFFFFFFFFFFFFFFFF AND PUSH20 0xFFFFFFFFFFFFFFFFFFFFFFFFFFFFFFFFFFFFFFFF AND CALLER PUSH20 0xFFFFFFFFFFFFFFFFFFFFFFFFFFFFFFFFFFFFFFFF AND EQ PUSH2 0xAA6 JUMPI PUSH1 0x40 MLOAD PUSH32 0x8C379A000000000000000000000000000000000000000000000000000000000 DUP2 MSTORE PUSH1 0x4 ADD PUSH2 0xA9D SWAP1 PUSH2 0x47AF JUMP JUMPDEST PUSH1 0x40 MLOAD DUP1 SWAP2 SUB SWAP1 REVERT JUMPDEST DUP1 PUSH1 0x9E PUSH1 0x0 PUSH2 0x100 EXP DUP2 SLOAD DUP2 PUSH20 0xFFFFFFFFFFFFFFFFFFFFFFFFFFFFFFFFFFFFFFFF MUL NOT AND SWAP1 DUP4 PUSH20 0xFFFFFFFFFFFFFFFFFFFFFFFFFFFFFFFFFFFFFFFF AND MUL OR SWAP1 SSTORE POP POP JUMP JUMPDEST PUSH1 0x0 PUSH4 0x150B7A02 PUSH1 0xE0 SHL SWAP1 POP SWAP5 SWAP4 POP POP POP POP JUMP JUMPDEST PUSH1 0x0 PUSH1 0x35 SLOAD SWAP1 POP SWAP1 JUMP JUMPDEST PUSH1 0x1 PUSH1 0x3 DUP2 GT ISZERO PUSH2 0xB1C JUMPI PUSH2 0xB1B PUSH2 0x45F4 JUMP JUMPDEST JUMPDEST PUSH1 0x9D PUSH1 0x14 SWAP1 SLOAD SWAP1 PUSH2 0x100 EXP SWAP1 DIV PUSH1 0xFF AND PUSH1 0x3 DUP2 GT ISZERO PUSH2 0xB3E JUMPI PUSH2 0xB3D PUSH2 0x45F4 JUMP JUMPDEST JUMPDEST EQ PUSH2 0xB7E JUMPI PUSH1 0x40 MLOAD PUSH32 0x8C379A000000000000000000000000000000000000000000000000000000000 DUP2 MSTORE PUSH1 0x4 ADD PUSH2 0xB75 SWAP1 PUSH2 0x481B JUMP JUMPDEST PUSH1 0x40 MLOAD DUP1 SWAP2 SUB SWAP1 REVERT JUMPDEST PUSH1 0x0 PUSH2 0x3E8 PUSH32 0x0 PUSH20 0xFFFFFFFFFFFFFFFFFFFFFFFFFFFFFFFFFFFFFFFF AND PUSH4 0x7C513C0F PUSH1 0x40 MLOAD DUP2 PUSH4 0xFFFFFFFF AND PUSH1 0xE0 SHL DUP2 MSTORE PUSH1 0x4 ADD PUSH1 0x20 PUSH1 0x40 MLOAD DUP1 DUP4 SUB DUP2 PUSH1 0x0 DUP8 GAS CALL ISZERO DUP1 ISZERO PUSH2 0xBF0 JUMPI RETURNDATASIZE PUSH1 0x0 DUP1 RETURNDATACOPY RETURNDATASIZE PUSH1 0x0 REVERT JUMPDEST POP POP POP POP PUSH1 0x40 MLOAD RETURNDATASIZE PUSH1 0x1F NOT PUSH1 0x1F DUP3 ADD AND DUP3 ADD DUP1 PUSH1 0x40 MSTORE POP DUP2 ADD SWAP1 PUSH2 0xC14 SWAP2 SWAP1 PUSH2 0x4850 JUMP JUMPDEST PUSH2 0xC1E SWAP2 SWAP1 PUSH2 0x48AC JUMP JUMPDEST SWAP1 POP DUP1 PUSH1 0x9C SLOAD PUSH2 0xC2E SWAP2 SWAP1 PUSH2 0x4902 JUMP JUMPDEST PUSH2 0x3E8 CALLVALUE PUSH2 0xC3C SWAP2 SWAP1 PUSH2 0x4902 JUMP JUMPDEST LT ISZERO PUSH2 0xC7D JUMPI PUSH1 0x40 MLOAD PUSH32 0x8C379A000000000000000000000000000000000000000000000000000000000 DUP2 MSTORE PUSH1 0x4 ADD PUSH2 0xC74 SWAP1 PUSH2 0x49A8 JUMP JUMPDEST PUSH1 0x40 MLOAD DUP1 SWAP2 SUB SWAP1 REVERT JUMPDEST PUSH1 0x99 SLOAD TIMESTAMP LT PUSH2 0xCC1 JUMPI PUSH1 0x40 MLOAD PUSH32 0x8C379A000000000000000000000000000000000000000000000000000000000 DUP2 MSTORE PUSH1 0x4 ADD PUSH2 0xCB8 SWAP1 PUSH2 0x4A14 JUMP JUMPDEST PUSH1 0x40 MLOAD DUP1 SWAP2 SUB SWAP1 REVERT JUMPDEST PUSH2 0x384 TIMESTAMP PUSH1 0x99 SLOAD PUSH2 0xCD2 SWAP2 SWAP1 PUSH2 0x4A34 JUMP JUMPDEST GT PUSH2 0xCF2 JUMPI PUSH1 0x3C PUSH1 0x99 PUSH1 0x0 DUP3 DUP3 SLOAD PUSH2 0xCEA SWAP2 SWAP1 PUSH2 0x48AC JUMP JUMPDEST SWAP3 POP POP DUP2 SWAP1 SSTORE POP JUMPDEST PUSH2 0xD20 PUSH1 0x9D PUSH1 0x0 SWAP1 SLOAD SWAP1 PUSH2 0x100 EXP SWAP1 DIV PUSH20 0xFFFFFFFFFFFFFFFFFFFFFFFFFFFFFFFFFFFFFFFF AND PUSH1 0x9C SLOAD PUSH2 0x2D9E JUMP JUMPDEST CALLVALUE PUSH1 0x9C DUP2 SWAP1 SSTORE POP CALLER PUSH1 0x9D PUSH1 0x0 PUSH2 0x100 EXP DUP2 SLOAD DUP2 PUSH20 0xFFFFFFFFFFFFFFFFFFFFFFFFFFFFFFFFFFFFFFFF MUL NOT AND SWAP1 DUP4 PUSH20 0xFFFFFFFFFFFFFFFFFFFFFFFFFFFFFFFFFFFFFFFF AND MUL OR SWAP1 SSTORE POP CALLER PUSH20 0xFFFFFFFFFFFFFFFFFFFFFFFFFFFFFFFFFFFFFFFF AND PUSH32 0xE684A55F31B79ECA403DF938249029212A5925EC6BE8012E099B45BC1019E5D2 CALLVALUE PUSH1 0x40 MLOAD PUSH2 0xDAE SWAP2 SWAP1 PUSH2 0x4369 JUMP JUMPDEST PUSH1 0x40 MLOAD DUP1 SWAP2 SUB SWAP1 LOG2 POP JUMP JUMPDEST PUSH1 0x0 PUSH2 0xDC6 DUP5 DUP5 DUP5 PUSH2 0x2EB9 JUMP JUMPDEST PUSH1 0x0 PUSH1 0x34 PUSH1 0x0 DUP7 PUSH20 0xFFFFFFFFFFFFFFFFFFFFFFFFFFFFFFFFFFFFFFFF AND PUSH20 0xFFFFFFFFFFFFFFFFFFFFFFFFFFFFFFFFFFFFFFFF AND DUP2 MSTORE PUSH1 0x20 ADD SWAP1 DUP2 MSTORE PUSH1 0x20 ADD PUSH1 0x0 KECCAK256 PUSH1 0x0 PUSH2 0xE11 PUSH2 0x2BCB JUMP JUMPDEST PUSH20 0xFFFFFFFFFFFFFFFFFFFFFFFFFFFFFFFFFFFFFFFF AND PUSH20 0xFFFFFFFFFFFFFFFFFFFFFFFFFFFFFFFFFFFFFFFF AND DUP2 MSTORE PUSH1 0x20 ADD SWAP1 DUP2 MSTORE PUSH1 0x20 ADD PUSH1 0x0 KECCAK256 SLOAD SWAP1 POP DUP3 DUP2 LT ISZERO PUSH2 0xE91 JUMPI PUSH1 0x40 MLOAD PUSH32 0x8C379A000000000000000000000000000000000000000000000000000000000 DUP2 MSTORE PUSH1 0x4 ADD PUSH2 0xE88 SWAP1 PUSH2 0x4ADA JUMP JUMPDEST PUSH1 0x40 MLOAD DUP1 SWAP2 SUB SWAP1 REVERT JUMPDEST PUSH2 0xEA5 DUP6 PUSH2 0xE9D PUSH2 0x2BCB JUMP JUMPDEST DUP6 DUP5 SUB PUSH2 0x2BD3 JUMP JUMPDEST PUSH1 0x1 SWAP2 POP POP SWAP4 SWAP3 POP POP POP JUMP JUMPDEST PUSH1 0x99 SLOAD DUP2 JUMP JUMPDEST PUSH32 0x0 PUSH20 0xFFFFFFFFFFFFFFFFFFFFFFFFFFFFFFFFFFFFFFFF AND PUSH4 0x8DA5CB5B PUSH1 0x40 MLOAD DUP2 PUSH4 0xFFFFFFFF AND PUSH1 0xE0 SHL DUP2 MSTORE PUSH1 0x4 ADD PUSH1 0x20 PUSH1 0x40 MLOAD DUP1 DUP4 SUB DUP2 DUP7 GAS STATICCALL ISZERO DUP1 ISZERO PUSH2 0xF22 JUMPI RETURNDATASIZE PUSH1 0x0 DUP1 RETURNDATACOPY RETURNDATASIZE PUSH1 0x0 REVERT JUMPDEST POP POP POP POP PUSH1 0x40 MLOAD RETURNDATASIZE PUSH1 0x1F NOT PUSH1 0x1F DUP3 ADD AND DUP3 ADD DUP1 PUSH1 0x40 MSTORE POP DUP2 ADD SWAP1 PUSH2 0xF46 SWAP2 SWAP1 PUSH2 0x4B0F JUMP JUMPDEST PUSH20 0xFFFFFFFFFFFFFFFFFFFFFFFFFFFFFFFFFFFFFFFF AND CALLER PUSH20 0xFFFFFFFFFFFFFFFFFFFFFFFFFFFFFFFFFFFFFFFF AND EQ PUSH2 0xFB3 JUMPI PUSH1 0x40 MLOAD PUSH32 0x8C379A000000000000000000000000000000000000000000000000000000000 DUP2 MSTORE PUSH1 0x4 ADD PUSH2 0xFAA SWAP1 PUSH2 0x4B88 JUMP JUMPDEST PUSH1 0x40 MLOAD DUP1 SWAP2 SUB SWAP1 REVERT JUMPDEST DUP1 PUSH1 0x9E PUSH1 0x0 PUSH2 0x100 EXP DUP2 SLOAD DUP2 PUSH20 0xFFFFFFFFFFFFFFFFFFFFFFFFFFFFFFFFFFFFFFFF MUL NOT AND SWAP1 DUP4 PUSH20 0xFFFFFFFFFFFFFFFFFFFFFFFFFFFFFFFFFFFFFFFF AND MUL OR SWAP1 SSTORE POP POP JUMP JUMPDEST PUSH1 0x9E PUSH1 0x0 SWAP1 SLOAD SWAP1 PUSH2 0x100 EXP SWAP1 DIV PUSH20 0xFFFFFFFFFFFFFFFFFFFFFFFFFFFFFFFFFFFFFFFF AND PUSH20 0xFFFFFFFFFFFFFFFFFFFFFFFFFFFFFFFFFFFFFFFF AND CALLER PUSH20 0xFFFFFFFFFFFFFFFFFFFFFFFFFFFFFFFFFFFFFFFF AND EQ PUSH2 0x1087 JUMPI PUSH1 0x40 MLOAD PUSH32 0x8C379A000000000000000000000000000000000000000000000000000000000 DUP2 MSTORE PUSH1 0x4 ADD PUSH2 0x107E SWAP1 PUSH2 0x47AF JUMP JUMPDEST PUSH1 0x40 MLOAD DUP1 SWAP2 SUB SWAP1 REVERT JUMPDEST PUSH32 0x0 PUSH20 0xFFFFFFFFFFFFFFFFFFFFFFFFFFFFFFFFFFFFFFFF AND PUSH4 0xA0B335E3 PUSH1 0x40 MLOAD DUP2 PUSH4 0xFFFFFFFF AND PUSH1 0xE0 SHL DUP2 MSTORE PUSH1 0x4 ADD PUSH1 0x20 PUSH1 0x40 MLOAD DUP1 DUP4 SUB DUP2 PUSH1 0x0 DUP8 GAS CALL ISZERO DUP1 ISZERO PUSH2 0x10F4 JUMPI RETURNDATASIZE PUSH1 0x0 DUP1 RETURNDATACOPY RETURNDATASIZE PUSH1 0x0 REVERT JUMPDEST POP POP POP POP PUSH1 0x40 MLOAD RETURNDATASIZE PUSH1 0x1F NOT PUSH1 0x1F DUP3 ADD AND DUP3 ADD DUP1 PUSH1 0x40 MSTORE POP DUP2 ADD SWAP1 PUSH2 0x1118 SWAP2 SWAP1 PUSH2 0x4850 JUMP JUMPDEST DUP2 LT ISZERO DUP1 ISZERO PUSH2 0x11B7 JUMPI POP PUSH32 0x0 PUSH20 0xFFFFFFFFFFFFFFFFFFFFFFFFFFFFFFFFFFFFFFFF AND PUSH4 0xE519EF9 PUSH1 0x40 MLOAD DUP2 PUSH4 0xFFFFFFFF AND PUSH1 0xE0 SHL DUP2 MSTORE PUSH1 0x4 ADD PUSH1 0x20 PUSH1 0x40 MLOAD DUP1 DUP4 SUB DUP2 PUSH1 0x0 DUP8 GAS CALL ISZERO DUP1 ISZERO PUSH2 0x118F JUMPI RETURNDATASIZE PUSH1 0x0 DUP1 RETURNDATACOPY RETURNDATASIZE PUSH1 0x0 REVERT JUMPDEST POP POP POP POP PUSH1 0x40 MLOAD RETURNDATASIZE PUSH1 0x1F NOT PUSH1 0x1F DUP3 ADD AND DUP3 ADD DUP1 PUSH1 0x40 MSTORE POP DUP2 ADD SWAP1 PUSH2 0x11B3 SWAP2 SWAP1 PUSH2 0x4850 JUMP JUMPDEST DUP2 GT ISZERO JUMPDEST PUSH2 0x11F6 JUMPI PUSH1 0x40 MLOAD PUSH32 0x8C379A000000000000000000000000000000000000000000000000000000000 DUP2 MSTORE PUSH1 0x4 ADD PUSH2 0x11ED SWAP1 PUSH2 0x4BF4 JUMP JUMPDEST PUSH1 0x40 MLOAD DUP1 SWAP2 SUB SWAP1 REVERT JUMPDEST DUP1 PUSH1 0x9A DUP2 SWAP1 SSTORE POP PUSH32 0x4AB86AE701798277AA378943B9DFD155D3B19703CD57BE298908FADD32F7BF46 DUP2 PUSH1 0x40 MLOAD PUSH2 0x122C SWAP2 SWAP1 PUSH2 0x4369 JUMP JUMPDEST PUSH1 0x40 MLOAD DUP1 SWAP2 SUB SWAP1 LOG1 POP JUMP JUMPDEST PUSH1 0x0 PUSH1 0x12 SWAP1 POP SWAP1 JUMP JUMPDEST PUSH1 0x9A SLOAD DUP2 JUMP JUMPDEST PUSH1 0x0 PUSH2 0x12E8 PUSH2 0x1253 PUSH2 0x2BCB JUMP JUMPDEST DUP5 DUP5 PUSH1 0x34 PUSH1 0x0 PUSH2 0x1261 PUSH2 0x2BCB JUMP JUMPDEST PUSH20 0xFFFFFFFFFFFFFFFFFFFFFFFFFFFFFFFFFFFFFFFF AND PUSH20 0xFFFFFFFFFFFFFFFFFFFFFFFFFFFFFFFFFFFFFFFF AND DUP2 MSTORE PUSH1 0x20 ADD SWAP1 DUP2 MSTORE PUSH1 0x20 ADD PUSH1 0x0 KECCAK256 PUSH1 0x0 DUP9 PUSH20 0xFFFFFFFFFFFFFFFFFFFFFFFFFFFFFFFFFFFFFFFF AND PUSH20 0xFFFFFFFFFFFFFFFFFFFFFFFFFFFFFFFFFFFFFFFF AND DUP2 MSTORE PUSH1 0x20 ADD SWAP1 DUP2 MSTORE PUSH1 0x20 ADD PUSH1 0x0 KECCAK256 SLOAD PUSH2 0x12E3 SWAP2 SWAP1 PUSH2 0x48AC JUMP JUMPDEST PUSH2 0x2BD3 JUMP JUMPDEST PUSH1 0x1 SWAP1 POP SWAP3 SWAP2 POP POP JUMP JUMPDEST PUSH20 0xC02AAA39B223FE8D0A0E5C4F27EAD9083C756CC2 DUP2 JUMP JUMPDEST PUSH1 0xA1 PUSH1 0x0 SWAP1 SLOAD SWAP1 PUSH2 0x100 EXP SWAP1 DIV PUSH1 0xFF AND DUP2 JUMP JUMPDEST PUSH1 0x0 PUSH1 0x1 SWAP1 SLOAD SWAP1 PUSH2 0x100 EXP SWAP1 DIV PUSH1 0xFF AND DUP1 PUSH2 0x1343 JUMPI POP PUSH1 0x0 DUP1 SLOAD SWAP1 PUSH2 0x100 EXP SWAP1 DIV PUSH1 0xFF AND ISZERO JUMPDEST PUSH2 0x1382 JUMPI PUSH1 0x40 MLOAD PUSH32 0x8C379A000000000000000000000000000000000000000000000000000000000 DUP2 MSTORE PUSH1 0x4 ADD PUSH2 0x1379 SWAP1 PUSH2 0x4C86 JUMP JUMPDEST PUSH1 0x40 MLOAD DUP1 SWAP2 SUB SWAP1 REVERT JUMPDEST PUSH1 0x0 DUP1 PUSH1 0x1 SWAP1 SLOAD SWAP1 PUSH2 0x100 EXP SWAP1 DIV PUSH1 0xFF AND ISZERO SWAP1 POP DUP1 ISZERO PUSH2 0x13D2 JUMPI PUSH1 0x1 PUSH1 0x0 PUSH1 0x1 PUSH2 0x100 EXP DUP2 SLOAD DUP2 PUSH1 0xFF MUL NOT AND SWAP1 DUP4 ISZERO ISZERO MUL OR SWAP1 SSTORE POP PUSH1 0x1 PUSH1 0x0 DUP1 PUSH2 0x100 EXP DUP2 SLOAD DUP2 PUSH1 0xFF MUL NOT AND SWAP1 DUP4 ISZERO ISZERO MUL OR SWAP1 SSTORE POP JUMPDEST PUSH2 0x13DC DUP4 DUP4 PUSH2 0x313D JUMP JUMPDEST PUSH2 0x13E4 PUSH2 0x322A JUMP JUMPDEST DUP8 PUSH1 0x97 PUSH1 0x0 PUSH2 0x100 EXP DUP2 SLOAD DUP2 PUSH20 0xFFFFFFFFFFFFFFFFFFFFFFFFFFFFFFFFFFFFFFFF MUL NOT AND SWAP1 DUP4 PUSH20 0xFFFFFFFFFFFFFFFFFFFFFFFFFFFFFFFFFFFFFFFF AND MUL OR SWAP1 SSTORE POP DUP7 PUSH1 0x98 DUP2 SWAP1 SSTORE POP PUSH3 0x3F480 PUSH1 0x9A DUP2 SWAP1 SSTORE POP DUP9 PUSH1 0x9E PUSH1 0x0 PUSH2 0x100 EXP DUP2 SLOAD DUP2 PUSH20 0xFFFFFFFFFFFFFFFFFFFFFFFFFFFFFFFFFFFFFFFF MUL NOT AND SWAP1 DUP4 PUSH20 0xFFFFFFFFFFFFFFFFFFFFFFFFFFFFFFFFFFFFFFFF AND MUL OR SWAP1 SSTORE POP DUP4 PUSH1 0x9F DUP2 SWAP1 SSTORE POP TIMESTAMP PUSH1 0xA0 DUP2 SWAP1 SSTORE POP PUSH1 0x0 PUSH1 0x9D PUSH1 0x14 PUSH2 0x100 EXP DUP2 SLOAD DUP2 PUSH1 0xFF MUL NOT AND SWAP1 DUP4 PUSH1 0x3 DUP2 GT ISZERO PUSH2 0x14AB JUMPI PUSH2 0x14AA PUSH2 0x45F4 JUMP JUMPDEST JUMPDEST MUL OR SWAP1 SSTORE POP DUP5 PUSH1 0xA3 PUSH1 0x0 DUP12 PUSH20 0xFFFFFFFFFFFFFFFFFFFFFFFFFFFFFFFFFFFFFFFF AND PUSH20 0xFFFFFFFFFFFFFFFFFFFFFFFFFFFFFFFFFFFFFFFF AND DUP2 MSTORE PUSH1 0x20 ADD SWAP1 DUP2 MSTORE PUSH1 0x20 ADD PUSH1 0x0 KECCAK256 DUP2 SWAP1 SSTORE POP PUSH2 0x14FE DUP10 DUP8 PUSH2 0x330B JUMP JUMPDEST DUP1 ISZERO PUSH2 0x151F JUMPI PUSH1 0x0 DUP1 PUSH1 0x1 PUSH2 0x100 EXP DUP2 SLOAD DUP2 PUSH1 0xFF MUL NOT AND SWAP1 DUP4 ISZERO ISZERO MUL OR SWAP1 SSTORE POP JUMPDEST POP POP POP POP POP POP POP POP POP JUMP JUMPDEST PUSH1 0x0 PUSH1 0x3 DUP2 GT ISZERO PUSH2 0x153E JUMPI PUSH2 0x153D PUSH2 0x45F4 JUMP JUMPDEST JUMPDEST PUSH1 0x9D PUSH1 0x14 SWAP1 SLOAD SWAP1 PUSH2 0x100 EXP SWAP1 DIV PUSH1 0xFF AND PUSH1 0x3 DUP2 GT ISZERO PUSH2 0x1560 JUMPI PUSH2 0x155F PUSH2 0x45F4 JUMP JUMPDEST JUMPDEST EQ PUSH2 0x15A0 JUMPI PUSH1 0x40 MLOAD PUSH32 0x8C379A000000000000000000000000000000000000000000000000000000000 DUP2 MSTORE PUSH1 0x4 ADD PUSH2 0x1597 SWAP1 PUSH2 0x4D18 JUMP JUMPDEST PUSH1 0x40 MLOAD DUP1 SWAP2 SUB SWAP1 REVERT JUMPDEST PUSH1 0x0 PUSH1 0xA3 PUSH1 0x0 CALLER PUSH20 0xFFFFFFFFFFFFFFFFFFFFFFFFFFFFFFFFFFFFFFFF AND PUSH20 0xFFFFFFFFFFFFFFFFFFFFFFFFFFFFFFFFFFFFFFFF AND DUP2 MSTORE PUSH1 0x20 ADD SWAP1 DUP2 MSTORE PUSH1 0x20 ADD PUSH1 0x0 KECCAK256 SLOAD SWAP1 POP DUP1 DUP3 EQ ISZERO PUSH2 0x1627 JUMPI PUSH1 0x40 MLOAD PUSH32 0x8C379A000000000000000000000000000000000000000000000000000000000 DUP2 MSTORE PUSH1 0x4 ADD PUSH2 0x161E SWAP1 PUSH2 0x4D84 JUMP JUMPDEST PUSH1 0x40 MLOAD DUP1 SWAP2 SUB SWAP1 REVERT JUMPDEST PUSH1 0x0 PUSH2 0x1632 CALLER PUSH2 0x1C06 JUMP JUMPDEST SWAP1 POP PUSH1 0x0 PUSH1 0xA2 SLOAD EQ ISZERO PUSH2 0x165D JUMPI DUP1 PUSH1 0xA2 DUP2 SWAP1 SSTORE POP DUP3 DUP2 PUSH2 0x1652 SWAP2 SWAP1 PUSH2 0x4902 JUMP JUMPDEST PUSH1 0x9B DUP2 SWAP1 SSTORE POP PUSH2 0x1B69 JUMP JUMPDEST PUSH1 0xA2 SLOAD DUP2 EQ DUP1 ISZERO PUSH2 0x166F JUMPI POP PUSH1 0x0 DUP3 EQ ISZERO JUMPDEST ISZERO PUSH2 0x168B JUMPI DUP3 DUP2 PUSH2 0x1680 SWAP2 SWAP1 PUSH2 0x4902 JUMP JUMPDEST PUSH1 0x9B DUP2 SWAP1 SSTORE POP PUSH2 0x1B68 JUMP JUMPDEST PUSH1 0x0 DUP3 EQ ISZERO PUSH2 0x18CD JUMPI PUSH1 0x0 PUSH1 0xA2 SLOAD PUSH1 0x9B SLOAD PUSH2 0x16A6 SWAP2 SWAP1 PUSH2 0x4DD3 JUMP JUMPDEST SWAP1 POP PUSH1 0x0 PUSH2 0x3E8 PUSH32 0x0 PUSH20 0xFFFFFFFFFFFFFFFFFFFFFFFFFFFFFFFFFFFFFFFF AND PUSH4 0x9990A96 PUSH1 0x40 MLOAD DUP2 PUSH4 0xFFFFFFFF AND PUSH1 0xE0 SHL DUP2 MSTORE PUSH1 0x4 ADD PUSH1 0x20 PUSH1 0x40 MLOAD DUP1 DUP4 SUB DUP2 PUSH1 0x0 DUP8 GAS CALL ISZERO DUP1 ISZERO PUSH2 0x171A JUMPI RETURNDATASIZE PUSH1 0x0 DUP1 RETURNDATACOPY RETURNDATASIZE PUSH1 0x0 REVERT JUMPDEST POP POP POP POP PUSH1 0x40 MLOAD RETURNDATASIZE PUSH1 0x1F NOT PUSH1 0x1F DUP3 ADD AND DUP3 ADD DUP1 PUSH1 0x40 MSTORE POP DUP2 ADD SWAP1 PUSH2 0x173E SWAP2 SWAP1 PUSH2 0x4850 JUMP JUMPDEST DUP4 PUSH2 0x1749 SWAP2 SWAP1 PUSH2 0x4902 JUMP JUMPDEST PUSH2 0x1753 SWAP2 SWAP1 PUSH2 0x4DD3 JUMP JUMPDEST SWAP1 POP DUP1 DUP6 LT ISZERO PUSH2 0x1798 JUMPI PUSH1 0x40 MLOAD PUSH32 0x8C379A000000000000000000000000000000000000000000000000000000000 DUP2 MSTORE PUSH1 0x4 ADD PUSH2 0x178F SWAP1 PUSH2 0x4E50 JUMP JUMPDEST PUSH1 0x40 MLOAD DUP1 SWAP2 SUB SWAP1 REVERT JUMPDEST PUSH1 0x0 PUSH2 0x3E8 PUSH32 0x0 PUSH20 0xFFFFFFFFFFFFFFFFFFFFFFFFFFFFFFFFFFFFFFFF AND PUSH4 0x5410BFC9 PUSH1 0x40 MLOAD DUP2 PUSH4 0xFFFFFFFF AND PUSH1 0xE0 SHL DUP2 MSTORE PUSH1 0x4 ADD PUSH1 0x20 PUSH1 0x40 MLOAD DUP1 DUP4 SUB DUP2 PUSH1 0x0 DUP8 GAS CALL ISZERO DUP1 ISZERO PUSH2 0x180A JUMPI RETURNDATASIZE PUSH1 0x0 DUP1 RETURNDATACOPY RETURNDATASIZE PUSH1 0x0 REVERT JUMPDEST POP POP POP POP PUSH1 0x40 MLOAD RETURNDATASIZE PUSH1 0x1F NOT PUSH1 0x1F DUP3 ADD AND DUP3 ADD DUP1 PUSH1 0x40 MSTORE POP DUP2 ADD SWAP1 PUSH2 0x182E SWAP2 SWAP1 PUSH2 0x4850 JUMP JUMPDEST DUP5 PUSH2 0x1839 SWAP2 SWAP1 PUSH2 0x4902 JUMP JUMPDEST PUSH2 0x1843 SWAP2 SWAP1 PUSH2 0x4DD3 JUMP JUMPDEST SWAP1 POP DUP1 DUP7 GT ISZERO PUSH2 0x1888 JUMPI PUSH1 0x40 MLOAD PUSH32 0x8C379A000000000000000000000000000000000000000000000000000000000 DUP2 MSTORE PUSH1 0x4 ADD PUSH2 0x187F SWAP1 PUSH2 0x4EBC JUMP JUMPDEST PUSH1 0x40 MLOAD DUP1 SWAP2 SUB SWAP1 REVERT JUMPDEST DUP4 PUSH1 0xA2 PUSH1 0x0 DUP3 DUP3 SLOAD PUSH2 0x189A SWAP2 SWAP1 PUSH2 0x48AC JUMP JUMPDEST SWAP3 POP POP DUP2 SWAP1 SSTORE POP DUP6 DUP5 PUSH2 0x18AD SWAP2 SWAP1 PUSH2 0x4902 JUMP JUMPDEST PUSH1 0x9B PUSH1 0x0 DUP3 DUP3 SLOAD PUSH2 0x18BE SWAP2 SWAP1 PUSH2 0x48AC JUMP JUMPDEST SWAP3 POP POP DUP2 SWAP1 SSTORE POP POP POP POP PUSH2 0x1B67 JUMP JUMPDEST PUSH1 0x0 DUP4 EQ ISZERO PUSH2 0x1918 JUMPI DUP1 PUSH1 0xA2 PUSH1 0x0 DUP3 DUP3 SLOAD PUSH2 0x18E8 SWAP2 SWAP1 PUSH2 0x4A34 JUMP JUMPDEST SWAP3 POP POP DUP2 SWAP1 SSTORE POP DUP2 DUP2 PUSH2 0x18FB SWAP2 SWAP1 PUSH2 0x4902 JUMP JUMPDEST PUSH1 0x9B PUSH1 0x0 DUP3 DUP3 SLOAD PUSH2 0x190C SWAP2 SWAP1 PUSH2 0x4A34 JUMP JUMPDEST SWAP3 POP POP DUP2 SWAP1 SSTORE POP PUSH2 0x1B66 JUMP JUMPDEST PUSH1 0x0 DUP2 PUSH1 0xA2 SLOAD PUSH2 0x1928 SWAP2 SWAP1 PUSH2 0x4A34 JUMP JUMPDEST DUP3 DUP5 PUSH2 0x1934 SWAP2 SWAP1 PUSH2 0x4902 JUMP JUMPDEST PUSH1 0x9B SLOAD PUSH2 0x1941 SWAP2 SWAP1 PUSH2 0x4A34 JUMP JUMPDEST PUSH2 0x194B SWAP2 SWAP1 PUSH2 0x4DD3 JUMP JUMPDEST SWAP1 POP PUSH1 0x0 PUSH2 0x3E8 PUSH32 0x0 PUSH20 0xFFFFFFFFFFFFFFFFFFFFFFFFFFFFFFFFFFFFFFFF AND PUSH4 0x9990A96 PUSH1 0x40 MLOAD DUP2 PUSH4 0xFFFFFFFF AND PUSH1 0xE0 SHL DUP2 MSTORE PUSH1 0x4 ADD PUSH1 0x20 PUSH1 0x40 MLOAD DUP1 DUP4 SUB DUP2 PUSH1 0x0 DUP8 GAS CALL ISZERO DUP1 ISZERO PUSH2 0x19BF JUMPI RETURNDATASIZE PUSH1 0x0 DUP1 RETURNDATACOPY RETURNDATASIZE PUSH1 0x0 REVERT JUMPDEST POP POP POP POP PUSH1 0x40 MLOAD RETURNDATASIZE PUSH1 0x1F NOT PUSH1 0x1F DUP3 ADD AND DUP3 ADD DUP1 PUSH1 0x40 MSTORE POP DUP2 ADD SWAP1 PUSH2 0x19E3 SWAP2 SWAP1 PUSH2 0x4850 JUMP JUMPDEST DUP4 PUSH2 0x19EE SWAP2 SWAP1 PUSH2 0x4902 JUMP JUMPDEST PUSH2 0x19F8 SWAP2 SWAP1 PUSH2 0x4DD3 JUMP JUMPDEST SWAP1 POP DUP1 DUP6 LT ISZERO PUSH2 0x1A3D JUMPI PUSH1 0x40 MLOAD PUSH32 0x8C379A000000000000000000000000000000000000000000000000000000000 DUP2 MSTORE PUSH1 0x4 ADD PUSH2 0x1A34 SWAP1 PUSH2 0x4E50 JUMP JUMPDEST PUSH1 0x40 MLOAD DUP1 SWAP2 SUB SWAP1 REVERT JUMPDEST PUSH1 0x0 PUSH2 0x3E8 PUSH32 0x0 PUSH20 0xFFFFFFFFFFFFFFFFFFFFFFFFFFFFFFFFFFFFFFFF AND PUSH4 0x5410BFC9 PUSH1 0x40 MLOAD DUP2 PUSH4 0xFFFFFFFF AND PUSH1 0xE0 SHL DUP2 MSTORE PUSH1 0x4 ADD PUSH1 0x20 PUSH1 0x40 MLOAD DUP1 DUP4 SUB DUP2 PUSH1 0x0 DUP8 GAS CALL ISZERO DUP1 ISZERO PUSH2 0x1AAF JUMPI RETURNDATASIZE PUSH1 0x0 DUP1 RETURNDATACOPY RETURNDATASIZE PUSH1 0x0 REVERT JUMPDEST POP POP POP POP PUSH1 0x40 MLOAD RETURNDATASIZE PUSH1 0x1F NOT PUSH1 0x1F DUP3 ADD AND DUP3 ADD DUP1 PUSH1 0x40 MSTORE POP DUP2 ADD SWAP1 PUSH2 0x1AD3 SWAP2 SWAP1 PUSH2 0x4850 JUMP JUMPDEST DUP5 PUSH2 0x1ADE SWAP2 SWAP1 PUSH2 0x4902 JUMP JUMPDEST PUSH2 0x1AE8 SWAP2 SWAP1 PUSH2 0x4DD3 JUMP JUMPDEST SWAP1 POP DUP1 DUP7 GT ISZERO PUSH2 0x1B2D JUMPI PUSH1 0x40 MLOAD PUSH32 0x8C379A000000000000000000000000000000000000000000000000000000000 DUP2 MSTORE PUSH1 0x4 ADD PUSH2 0x1B24 SWAP1 PUSH2 0x4EBC JUMP JUMPDEST PUSH1 0x40 MLOAD DUP1 SWAP2 SUB SWAP1 REVERT JUMPDEST DUP5 DUP5 PUSH2 0x1B39 SWAP2 SWAP1 PUSH2 0x4902 JUMP JUMPDEST DUP7 DUP6 PUSH2 0x1B45 SWAP2 SWAP1 PUSH2 0x4902 JUMP JUMPDEST PUSH1 0x9B SLOAD PUSH2 0x1B52 SWAP2 SWAP1 PUSH2 0x48AC JUMP JUMPDEST PUSH2 0x1B5C SWAP2 SWAP1 PUSH2 0x4A34 JUMP JUMPDEST PUSH1 0x9B DUP2 SWAP1 SSTORE POP POP POP POP JUMPDEST JUMPDEST JUMPDEST JUMPDEST DUP3 PUSH1 0xA3 PUSH1 0x0 CALLER PUSH20 0xFFFFFFFFFFFFFFFFFFFFFFFFFFFFFFFFFFFFFFFF AND PUSH20 0xFFFFFFFFFFFFFFFFFFFFFFFFFFFFFFFFFFFFFFFF AND DUP2 MSTORE PUSH1 0x20 ADD SWAP1 DUP2 MSTORE PUSH1 0x20 ADD PUSH1 0x0 KECCAK256 DUP2 SWAP1 SSTORE POP CALLER PUSH20 0xFFFFFFFFFFFFFFFFFFFFFFFFFFFFFFFFFFFFFFFF AND PUSH32 0x64E6E7BD72B853C4E62FD6CEACA05A104700C70A4CB567C75C7F2242BA7F037C DUP5 PUSH1 0x40 MLOAD PUSH2 0x1BF3 SWAP2 SWAP1 PUSH2 0x4369 JUMP JUMPDEST PUSH1 0x40 MLOAD DUP1 SWAP2 SUB SWAP1 LOG2 POP POP POP JUMP JUMPDEST PUSH1 0x9C SLOAD DUP2 JUMP JUMPDEST PUSH1 0x0 PUSH1 0x33 PUSH1 0x0 DUP4 PUSH20 0xFFFFFFFFFFFFFFFFFFFFFFFFFFFFFFFFFFFFFFFF AND PUSH20 0xFFFFFFFFFFFFFFFFFFFFFFFFFFFFFFFFFFFFFFFF AND DUP2 MSTORE PUSH1 0x20 ADD SWAP1 DUP2 MSTORE PUSH1 0x20 ADD PUSH1 0x0 KECCAK256 SLOAD SWAP1 POP SWAP2 SWAP1 POP JUMP JUMPDEST PUSH1 0x9B SLOAD DUP2 JUMP JUMPDEST PUSH1 0x9D PUSH1 0x14 SWAP1 SLOAD SWAP1 PUSH2 0x100 EXP SWAP1 DIV PUSH1 0xFF AND DUP2 JUMP JUMPDEST PUSH32 0x0 PUSH20 0xFFFFFFFFFFFFFFFFFFFFFFFFFFFFFFFFFFFFFFFF AND PUSH4 0x8DA5CB5B PUSH1 0x40 MLOAD DUP2 PUSH4 0xFFFFFFFF AND PUSH1 0xE0 SHL DUP2 MSTORE PUSH1 0x4 ADD PUSH1 0x20 PUSH1 0x40 MLOAD DUP1 DUP4 SUB DUP2 DUP7 GAS STATICCALL ISZERO DUP1 ISZERO PUSH2 0x1CD3 JUMPI RETURNDATASIZE PUSH1 0x0 DUP1 RETURNDATACOPY RETURNDATASIZE PUSH1 0x0 REVERT JUMPDEST POP POP POP POP PUSH1 0x40 MLOAD RETURNDATASIZE PUSH1 0x1F NOT PUSH1 0x1F DUP3 ADD AND DUP3 ADD DUP1 PUSH1 0x40 MSTORE POP DUP2 ADD SWAP1 PUSH2 0x1CF7 SWAP2 SWAP1 PUSH2 0x4B0F JUMP JUMPDEST PUSH20 0xFFFFFFFFFFFFFFFFFFFFFFFFFFFFFFFFFFFFFFFF AND CALLER PUSH20 0xFFFFFFFFFFFFFFFFFFFFFFFFFFFFFFFFFFFFFFFF AND EQ PUSH2 0x1D64 JUMPI PUSH1 0x40 MLOAD PUSH32 0x8C379A000000000000000000000000000000000000000000000000000000000 DUP2 MSTORE PUSH1 0x4 ADD PUSH2 0x1D5B SWAP1 PUSH2 0x4F28 JUMP JUMPDEST PUSH1 0x40 MLOAD DUP1 SWAP2 SUB SWAP1 REVERT JUMPDEST PUSH1 0x0 PUSH1 0x3 DUP2 GT ISZERO PUSH2 0x1D78 JUMPI PUSH2 0x1D77 PUSH2 0x45F4 JUMP JUMPDEST JUMPDEST PUSH1 0x9D PUSH1 0x14 SWAP1 SLOAD SWAP1 PUSH2 0x100 EXP SWAP1 DIV PUSH1 0xFF AND PUSH1 0x3 DUP2 GT ISZERO PUSH2 0x1D9A JUMPI PUSH2 0x1D99 PUSH2 0x45F4 JUMP JUMPDEST JUMPDEST EQ PUSH2 0x1DDA JUMPI PUSH1 0x40 MLOAD PUSH32 0x8C379A000000000000000000000000000000000000000000000000000000000 DUP2 MSTORE PUSH1 0x4 ADD PUSH2 0x1DD1 SWAP1 PUSH2 0x4D18 JUMP JUMPDEST PUSH1 0x40 MLOAD DUP1 SWAP2 SUB SWAP1 REVERT JUMPDEST PUSH1 0x0 PUSH1 0xA3 PUSH1 0x0 DUP4 PUSH20 0xFFFFFFFFFFFFFFFFFFFFFFFFFFFFFFFFFFFFFFFF AND PUSH20 0xFFFFFFFFFFFFFFFFFFFFFFFFFFFFFFFFFFFFFFFF AND DUP2 MSTORE PUSH1 0x20 ADD SWAP1 DUP2 MSTORE PUSH1 0x20 ADD PUSH1 0x0 KECCAK256 SLOAD SWAP1 POP DUP1 PUSH1 0x0 EQ ISZERO PUSH2 0x1E62 JUMPI PUSH1 0x40 MLOAD PUSH32 0x8C379A000000000000000000000000000000000000000000000000000000000 DUP2 MSTORE PUSH1 0x4 ADD PUSH2 0x1E59 SWAP1 PUSH2 0x4D84 JUMP JUMPDEST PUSH1 0x40 MLOAD DUP1 SWAP2 SUB SWAP1 REVERT JUMPDEST PUSH1 0x0 PUSH2 0x1E6D DUP4 PUSH2 0x1C06 JUMP JUMPDEST SWAP1 POP DUP1 PUSH1 0xA2 PUSH1 0x0 DUP3 DUP3 SLOAD PUSH2 0x1E81 SWAP2 SWAP1 PUSH2 0x4A34 JUMP JUMPDEST SWAP3 POP POP DUP2 SWAP1 SSTORE POP DUP2 DUP2 PUSH2 0x1E94 SWAP2 SWAP1 PUSH2 0x4902 JUMP JUMPDEST PUSH1 0x9B PUSH1 0x0 DUP3 DUP3 SLOAD PUSH2 0x1EA5 SWAP2 SWAP1 PUSH2 0x4A34 JUMP JUMPDEST SWAP3 POP POP DUP2 SWAP1 SSTORE POP PUSH1 0x0 PUSH1 0xA3 PUSH1 0x0 DUP6 PUSH20 0xFFFFFFFFFFFFFFFFFFFFFFFFFFFFFFFFFFFFFFFF AND PUSH20 0xFFFFFFFFFFFFFFFFFFFFFFFFFFFFFFFFFFFFFFFF AND DUP2 MSTORE PUSH1 0x20 ADD SWAP1 DUP2 MSTORE PUSH1 0x20 ADD PUSH1 0x0 KECCAK256 DUP2 SWAP1 SSTORE POP DUP3 PUSH20 0xFFFFFFFFFFFFFFFFFFFFFFFFFFFFFFFFFFFFFFFF AND PUSH32 0x64E6E7BD72B853C4E62FD6CEACA05A104700C70A4CB567C75C7F2242BA7F037C PUSH1 0x0 PUSH1 0x40 MLOAD PUSH2 0x1F38 SWAP2 SWAP1 PUSH2 0x4F8D JUMP JUMPDEST PUSH1 0x40 MLOAD DUP1 SWAP2 SUB SWAP1 LOG2 POP POP POP JUMP JUMPDEST PUSH1 0x9D PUSH1 0x0 SWAP1 SLOAD SWAP1 PUSH2 0x100 EXP SWAP1 DIV PUSH20 0xFFFFFFFFFFFFFFFFFFFFFFFFFFFFFFFFFFFFFFFF AND DUP2 JUMP JUMPDEST PUSH1 0x9E PUSH1 0x0 SWAP1 SLOAD SWAP1 PUSH2 0x100 EXP SWAP1 DIV PUSH20 0xFFFFFFFFFFFFFFFFFFFFFFFFFFFFFFFFFFFFFFFF AND PUSH20 0xFFFFFFFFFFFFFFFFFFFFFFFFFFFFFFFFFFFFFFFF AND CALLER PUSH20 0xFFFFFFFFFFFFFFFFFFFFFFFFFFFFFFFFFFFFFFFF AND EQ PUSH2 0x1FFB JUMPI PUSH1 0x40 MLOAD PUSH32 0x8C379A000000000000000000000000000000000000000000000000000000000 DUP2 MSTORE PUSH1 0x4 ADD PUSH2 0x1FF2 SWAP1 PUSH2 0x47AF JUMP JUMPDEST PUSH1 0x40 MLOAD DUP1 SWAP2 SUB SWAP1 REVERT JUMPDEST PUSH1 0x9F SLOAD DUP2 LT PUSH2 0x203F JUMPI PUSH1 0x40 MLOAD PUSH32 0x8C379A000000000000000000000000000000000000000000000000000000000 DUP2 MSTORE PUSH1 0x4 ADD PUSH2 0x2036 SWAP1 PUSH2 0x4FF4 JUMP JUMPDEST PUSH1 0x40 MLOAD DUP1 SWAP2 SUB SWAP1 REVERT JUMPDEST PUSH32 0x0 PUSH20 0xFFFFFFFFFFFFFFFFFFFFFFFFFFFFFFFFFFFFFFFF AND PUSH4 0x8A364BC1 PUSH1 0x40 MLOAD DUP2 PUSH4 0xFFFFFFFF AND PUSH1 0xE0 SHL DUP2 MSTORE PUSH1 0x4 ADD PUSH1 0x20 PUSH1 0x40 MLOAD DUP1 DUP4 SUB DUP2 PUSH1 0x0 DUP8 GAS CALL ISZERO DUP1 ISZERO PUSH2 0x20AC JUMPI RETURNDATASIZE PUSH1 0x0 DUP1 RETURNDATACOPY RETURNDATASIZE PUSH1 0x0 REVERT JUMPDEST POP POP POP POP PUSH1 0x40 MLOAD RETURNDATASIZE PUSH1 0x1F NOT PUSH1 0x1F DUP3 ADD AND DUP3 ADD DUP1 PUSH1 0x40 MSTORE POP DUP2 ADD SWAP1 PUSH2 0x20D0 SWAP2 SWAP1 PUSH2 0x4850 JUMP JUMPDEST DUP2 GT ISZERO PUSH2 0x2112 JUMPI PUSH1 0x40 MLOAD PUSH32 0x8C379A000000000000000000000000000000000000000000000000000000000 DUP2 MSTORE PUSH1 0x4 ADD PUSH2 0x2109 SWAP1 PUSH2 0x5086 JUMP JUMPDEST PUSH1 0x40 MLOAD DUP1 SWAP2 SUB SWAP1 REVERT JUMPDEST PUSH2 0x211A PUSH2 0x346C JUMP JUMPDEST DUP1 PUSH1 0x9F DUP2 SWAP1 SSTORE POP PUSH32 0x2D1DAE59A9E9EC0BC2AB19D45B7D10C8C55304FA08B40A7998E9F67F03223D04 PUSH1 0x9F SLOAD PUSH1 0x40 MLOAD PUSH2 0x2152 SWAP2 SWAP1 PUSH2 0x4369 JUMP JUMPDEST PUSH1 0x40 MLOAD DUP1 SWAP2 SUB SWAP1 LOG1 POP JUMP JUMPDEST PUSH1 0x60 PUSH1 0x37 DUP1 SLOAD PUSH2 0x216C SWAP1 PUSH2 0x4731 JUMP JUMPDEST DUP1 PUSH1 0x1F ADD PUSH1 0x20 DUP1 SWAP2 DIV MUL PUSH1 0x20 ADD PUSH1 0x40 MLOAD SWAP1 DUP2 ADD PUSH1 0x40 MSTORE DUP1 SWAP3 SWAP2 SWAP1 DUP2 DUP2 MSTORE PUSH1 0x20 ADD DUP3 DUP1 SLOAD PUSH2 0x2198 SWAP1 PUSH2 0x4731 JUMP JUMPDEST DUP1 ISZERO PUSH2 0x21E5 JUMPI DUP1 PUSH1 0x1F LT PUSH2 0x21BA JUMPI PUSH2 0x100 DUP1 DUP4 SLOAD DIV MUL DUP4 MSTORE SWAP2 PUSH1 0x20 ADD SWAP2 PUSH2 0x21E5 JUMP JUMPDEST DUP3 ADD SWAP2 SWAP1 PUSH1 0x0 MSTORE PUSH1 0x20 PUSH1 0x0 KECCAK256 SWAP1 JUMPDEST DUP2 SLOAD DUP2 MSTORE SWAP1 PUSH1 0x1 ADD SWAP1 PUSH1 0x20 ADD DUP1 DUP4 GT PUSH2 0x21C8 JUMPI DUP3 SWAP1 SUB PUSH1 0x1F AND DUP3 ADD SWAP2 JUMPDEST POP POP POP POP POP SWAP1 POP SWAP1 JUMP JUMPDEST PUSH1 0x2 PUSH1 0x3 DUP2 GT ISZERO PUSH2 0x2203 JUMPI PUSH2 0x2202 PUSH2 0x45F4 JUMP JUMPDEST JUMPDEST PUSH1 0x9D PUSH1 0x14 SWAP1 SLOAD SWAP1 PUSH2 0x100 EXP SWAP1 DIV PUSH1 0xFF AND PUSH1 0x3 DUP2 GT ISZERO PUSH2 0x2225 JUMPI PUSH2 0x2224 PUSH2 0x45F4 JUMP JUMPDEST JUMPDEST EQ PUSH2 0x2265 JUMPI PUSH1 0x40 MLOAD PUSH32 0x8C379A000000000000000000000000000000000000000000000000000000000 DUP2 MSTORE PUSH1 0x4 ADD PUSH2 0x225C SWAP1 PUSH2 0x50F2 JUMP JUMPDEST PUSH1 0x40 MLOAD DUP1 SWAP2 SUB SWAP1 REVERT JUMPDEST PUSH1 0x0 PUSH2 0x2270 CALLER PUSH2 0x1C06 JUMP JUMPDEST SWAP1 POP PUSH1 0x0 DUP2 GT PUSH2 0x22B5 JUMPI PUSH1 0x40 MLOAD PUSH32 0x8C379A000000000000000000000000000000000000000000000000000000000 DUP2 MSTORE PUSH1 0x4 ADD PUSH2 0x22AC SWAP1 PUSH2 0x515E JUMP JUMPDEST PUSH1 0x40 MLOAD DUP1 SWAP2 SUB SWAP1 REVERT JUMPDEST PUSH1 0x0 PUSH2 0x22BF PUSH2 0xAFE JUMP JUMPDEST SELFBALANCE DUP4 PUSH2 0x22CB SWAP2 SWAP1 PUSH2 0x4902 JUMP JUMPDEST PUSH2 0x22D5 SWAP2 SWAP1 PUSH2 0x4DD3 JUMP JUMPDEST SWAP1 POP PUSH2 0x22E1 CALLER DUP4 PUSH2 0x37ED JUMP JUMPDEST PUSH2 0x22EB CALLER DUP3 PUSH2 0x2D9E JUMP JUMPDEST CALLER PUSH20 0xFFFFFFFFFFFFFFFFFFFFFFFFFFFFFFFFFFFFFFFF AND PUSH32 0x730831A1E4AA2D187DDD8E03D7BEEAC760A3927DA5F112D645E0F8DF7494B367 DUP3 PUSH1 0x40 MLOAD PUSH2 0x2331 SWAP2 SWAP1 PUSH2 0x4369 JUMP JUMPDEST PUSH1 0x40 MLOAD DUP1 SWAP2 SUB SWAP1 LOG2 POP POP JUMP JUMPDEST PUSH1 0xA2 SLOAD DUP2 JUMP JUMPDEST PUSH1 0x0 DUP1 PUSH1 0x34 PUSH1 0x0 PUSH2 0x2352 PUSH2 0x2BCB JUMP JUMPDEST PUSH20 0xFFFFFFFFFFFFFFFFFFFFFFFFFFFFFFFFFFFFFFFF AND PUSH20 0xFFFFFFFFFFFFFFFFFFFFFFFFFFFFFFFFFFFFFFFF AND DUP2 MSTORE PUSH1 0x20 ADD SWAP1 DUP2 MSTORE PUSH1 0x20 ADD PUSH1 0x0 KECCAK256 PUSH1 0x0 DUP6 PUSH20 0xFFFFFFFFFFFFFFFFFFFFFFFFFFFFFFFFFFFFFFFF AND PUSH20 0xFFFFFFFFFFFFFFFFFFFFFFFFFFFFFFFFFFFFFFFF AND DUP2 MSTORE PUSH1 0x20 ADD SWAP1 DUP2 MSTORE PUSH1 0x20 ADD PUSH1 0x0 KECCAK256 SLOAD SWAP1 POP DUP3 DUP2 LT ISZERO PUSH2 0x240F JUMPI PUSH1 0x40 MLOAD PUSH32 0x8C379A000000000000000000000000000000000000000000000000000000000 DUP2 MSTORE PUSH1 0x4 ADD PUSH2 0x2406 SWAP1 PUSH2 0x51F0 JUMP JUMPDEST PUSH1 0x40 MLOAD DUP1 SWAP2 SUB SWAP1 REVERT JUMPDEST PUSH2 0x2423 PUSH2 0x241A PUSH2 0x2BCB JUMP JUMPDEST DUP6 DUP6 DUP5 SUB PUSH2 0x2BD3 JUMP JUMPDEST PUSH1 0x1 SWAP2 POP POP SWAP3 SWAP2 POP POP JUMP JUMPDEST PUSH1 0x0 PUSH2 0x2442 PUSH2 0x243B PUSH2 0x2BCB JUMP JUMPDEST DUP5 DUP5 PUSH2 0x2EB9 JUMP JUMPDEST PUSH1 0x1 SWAP1 POP SWAP3 SWAP2 POP POP JUMP JUMPDEST PUSH1 0xA0 SLOAD DUP2 JUMP JUMPDEST PUSH1 0x98 SLOAD DUP2 JUMP JUMPDEST PUSH1 0x0 PUSH1 0x3 DUP2 GT ISZERO PUSH2 0x246C JUMPI PUSH2 0x246B PUSH2 0x45F4 JUMP JUMPDEST JUMPDEST PUSH1 0x9D PUSH1 0x14 SWAP1 SLOAD SWAP1 PUSH2 0x100 EXP SWAP1 DIV PUSH1 0xFF AND PUSH1 0x3 DUP2 GT ISZERO PUSH2 0x248E JUMPI PUSH2 0x248D PUSH2 0x45F4 JUMP JUMPDEST JUMPDEST EQ PUSH2 0x24CE JUMPI PUSH1 0x40 MLOAD PUSH32 0x8C379A000000000000000000000000000000000000000000000000000000000 DUP2 MSTORE PUSH1 0x4 ADD PUSH2 0x24C5 SWAP1 PUSH2 0x525C JUMP JUMPDEST PUSH1 0x40 MLOAD DUP1 SWAP2 SUB SWAP1 REVERT JUMPDEST PUSH2 0x24DF CALLER PUSH2 0x24DA PUSH2 0xAFE JUMP JUMPDEST PUSH2 0x37ED JUMP JUMPDEST PUSH1 0x97 PUSH1 0x0 SWAP1 SLOAD SWAP1 PUSH2 0x100 EXP SWAP1 DIV PUSH20 0xFFFFFFFFFFFFFFFFFFFFFFFFFFFFFFFFFFFFFFFF AND PUSH20 0xFFFFFFFFFFFFFFFFFFFFFFFFFFFFFFFFFFFFFFFF AND PUSH4 0x23B872DD ADDRESS CALLER PUSH1 0x98 SLOAD PUSH1 0x40 MLOAD DUP5 PUSH4 0xFFFFFFFF AND PUSH1 0xE0 SHL DUP2 MSTORE PUSH1 0x4 ADD PUSH2 0x2540 SWAP4 SWAP3 SWAP2 SWAP1 PUSH2 0x527C JUMP JUMPDEST PUSH1 0x0 PUSH1 0x40 MLOAD DUP1 DUP4 SUB DUP2 PUSH1 0x0 DUP8 DUP1 EXTCODESIZE ISZERO DUP1 ISZERO PUSH2 0x255A JUMPI PUSH1 0x0 DUP1 REVERT JUMPDEST POP GAS CALL ISZERO DUP1 ISZERO PUSH2 0x256E JUMPI RETURNDATASIZE PUSH1 0x0 DUP1 RETURNDATACOPY RETURNDATASIZE PUSH1 0x0 REVERT JUMPDEST POP POP POP POP PUSH1 0x3 PUSH1 0x9D PUSH1 0x14 PUSH2 0x100 EXP DUP2 SLOAD DUP2 PUSH1 0xFF MUL NOT AND SWAP1 DUP4 PUSH1 0x3 DUP2 GT ISZERO PUSH2 0x2598 JUMPI PUSH2 0x2597 PUSH2 0x45F4 JUMP JUMPDEST JUMPDEST MUL OR SWAP1 SSTORE POP CALLER PUSH20 0xFFFFFFFFFFFFFFFFFFFFFFFFFFFFFFFFFFFFFFFF AND PUSH32 0xD1B5EA7FE0F1C2FA09D49C2AA9B2200664BA57A734F1D95481D95B7F99AF991C PUSH1 0x40 MLOAD PUSH1 0x40 MLOAD DUP1 SWAP2 SUB SWAP1 LOG2 JUMP JUMPDEST PUSH1 0x0 PUSH1 0x3 DUP2 GT ISZERO PUSH2 0x25F6 JUMPI PUSH2 0x25F5 PUSH2 0x45F4 JUMP JUMPDEST JUMPDEST PUSH1 0x9D PUSH1 0x14 SWAP1 SLOAD SWAP1 PUSH2 0x100 EXP SWAP1 DIV PUSH1 0xFF AND PUSH1 0x3 DUP2 GT ISZERO PUSH2 0x2618 JUMPI PUSH2 0x2617 PUSH2 0x45F4 JUMP JUMPDEST JUMPDEST EQ PUSH2 0x2658 JUMPI PUSH1 0x40 MLOAD PUSH32 0x8C379A000000000000000000000000000000000000000000000000000000000 DUP2 MSTORE PUSH1 0x4 ADD PUSH2 0x264F SWAP1 PUSH2 0x52FF JUMP JUMPDEST PUSH1 0x40 MLOAD DUP1 SWAP2 SUB SWAP1 REVERT JUMPDEST PUSH2 0x2660 PUSH2 0x288F JUMP JUMPDEST CALLVALUE LT ISZERO PUSH2 0x26A2 JUMPI PUSH1 0x40 MLOAD PUSH32 0x8C379A000000000000000000000000000000000000000000000000000000000 DUP2 MSTORE PUSH1 0x4 ADD PUSH2 0x2699 SWAP1 PUSH2 0x536B JUMP JUMPDEST PUSH1 0x40 MLOAD DUP1 SWAP2 SUB SWAP1 REVERT JUMPDEST PUSH2 0x26AA PUSH2 0xAFE JUMP JUMPDEST PUSH32 0x0 PUSH20 0xFFFFFFFFFFFFFFFFFFFFFFFFFFFFFFFFFFFFFFFF AND PUSH4 0x32977C73 PUSH1 0x40 MLOAD DUP2 PUSH4 0xFFFFFFFF AND PUSH1 0xE0 SHL DUP2 MSTORE PUSH1 0x4 ADD PUSH1 0x20 PUSH1 0x40 MLOAD DUP1 DUP4 SUB DUP2 PUSH1 0x0 DUP8 GAS CALL ISZERO DUP1 ISZERO PUSH2 0x2717 JUMPI RETURNDATASIZE PUSH1 0x0 DUP1 RETURNDATACOPY RETURNDATASIZE PUSH1 0x0 REVERT JUMPDEST POP POP POP POP PUSH1 0x40 MLOAD RETURNDATASIZE PUSH1 0x1F NOT PUSH1 0x1F DUP3 ADD AND DUP3 ADD DUP1 PUSH1 0x40 MSTORE POP DUP2 ADD SWAP1 PUSH2 0x273B SWAP2 SWAP1 PUSH2 0x4850 JUMP JUMPDEST PUSH2 0x2745 SWAP2 SWAP1 PUSH2 0x4902 JUMP JUMPDEST PUSH2 0x3E8 PUSH1 0xA2 SLOAD PUSH2 0x2755 SWAP2 SWAP1 PUSH2 0x4902 JUMP JUMPDEST LT ISZERO PUSH2 0x2796 JUMPI PUSH1 0x40 MLOAD PUSH32 0x8C379A000000000000000000000000000000000000000000000000000000000 DUP2 MSTORE PUSH1 0x4 ADD PUSH2 0x278D SWAP1 PUSH2 0x53D7 JUMP JUMPDEST PUSH1 0x40 MLOAD DUP1 SWAP2 SUB SWAP1 REVERT JUMPDEST PUSH1 0x9A SLOAD TIMESTAMP PUSH2 0x27A4 SWAP2 SWAP1 PUSH2 0x48AC JUMP JUMPDEST PUSH1 0x99 DUP2 SWAP1 SSTORE POP PUSH1 0x1 PUSH1 0x9D PUSH1 0x14 PUSH2 0x100 EXP DUP2 SLOAD DUP2 PUSH1 0xFF MUL NOT AND SWAP1 DUP4 PUSH1 0x3 DUP2 GT ISZERO PUSH2 0x27D0 JUMPI PUSH2 0x27CF PUSH2 0x45F4 JUMP JUMPDEST JUMPDEST MUL OR SWAP1 SSTORE POP CALLVALUE PUSH1 0x9C DUP2 SWAP1 SSTORE POP CALLER PUSH1 0x9D PUSH1 0x0 PUSH2 0x100 EXP DUP2 SLOAD DUP2 PUSH20 0xFFFFFFFFFFFFFFFFFFFFFFFFFFFFFFFFFFFFFFFF MUL NOT AND SWAP1 DUP4 PUSH20 0xFFFFFFFFFFFFFFFFFFFFFFFFFFFFFFFFFFFFFFFF AND MUL OR SWAP1 SSTORE POP CALLER PUSH20 0xFFFFFFFFFFFFFFFFFFFFFFFFFFFFFFFFFFFFFFFF AND PUSH32 0xCFB9C5312B25EC7B809D61E638DF25F749EAE5D5C25399E1C93D1D319BFD5821 CALLVALUE PUSH1 0x40 MLOAD PUSH2 0x2863 SWAP2 SWAP1 PUSH2 0x4369 JUMP JUMPDEST PUSH1 0x40 MLOAD DUP1 SWAP2 SUB SWAP1 LOG2 JUMP JUMPDEST PUSH1 0xA3 PUSH1 0x20 MSTORE DUP1 PUSH1 0x0 MSTORE PUSH1 0x40 PUSH1 0x0 KECCAK256 PUSH1 0x0 SWAP2 POP SWAP1 POP SLOAD DUP2 JUMP JUMPDEST PUSH2 0x288D PUSH2 0x346C JUMP JUMPDEST JUMP JUMPDEST PUSH1 0x0 DUP1 PUSH1 0xA2 SLOAD EQ PUSH2 0x28AF JUMPI PUSH1 0xA2 SLOAD PUSH1 0x9B SLOAD PUSH2 0x28AA SWAP2 SWAP1 PUSH2 0x4DD3 JUMP JUMPDEST PUSH2 0x28B2 JUMP JUMPDEST PUSH1 0x0 JUMPDEST SWAP1 POP SWAP1 JUMP JUMPDEST PUSH1 0x0 PUSH1 0x34 PUSH1 0x0 DUP5 PUSH20 0xFFFFFFFFFFFFFFFFFFFFFFFFFFFFFFFFFFFFFFFF AND PUSH20 0xFFFFFFFFFFFFFFFFFFFFFFFFFFFFFFFFFFFFFFFF AND DUP2 MSTORE PUSH1 0x20 ADD SWAP1 DUP2 MSTORE PUSH1 0x20 ADD PUSH1 0x0 KECCAK256 PUSH1 0x0 DUP4 PUSH20 0xFFFFFFFFFFFFFFFFFFFFFFFFFFFFFFFFFFFFFFFF AND PUSH20 0xFFFFFFFFFFFFFFFFFFFFFFFFFFFFFFFFFFFFFFFF AND DUP2 MSTORE PUSH1 0x20 ADD SWAP1 DUP2 MSTORE PUSH1 0x20 ADD PUSH1 0x0 KECCAK256 SLOAD SWAP1 POP SWAP3 SWAP2 POP POP JUMP JUMPDEST PUSH1 0x9F SLOAD DUP2 JUMP JUMPDEST PUSH32 0x0 DUP2 JUMP JUMPDEST PUSH1 0x9E PUSH1 0x0 SWAP1 SLOAD SWAP1 PUSH2 0x100 EXP SWAP1 DIV PUSH20 0xFFFFFFFFFFFFFFFFFFFFFFFFFFFFFFFFFFFFFFFF AND DUP2 JUMP JUMPDEST PUSH1 0x1 PUSH1 0x3 DUP2 GT ISZERO PUSH2 0x29A2 JUMPI PUSH2 0x29A1 PUSH2 0x45F4 JUMP JUMPDEST JUMPDEST PUSH1 0x9D PUSH1 0x14 SWAP1 SLOAD SWAP1 PUSH2 0x100 EXP SWAP1 DIV PUSH1 0xFF AND PUSH1 0x3 DUP2 GT ISZERO PUSH2 0x29C4 JUMPI PUSH2 0x29C3 PUSH2 0x45F4 JUMP JUMPDEST JUMPDEST EQ PUSH2 0x2A04 JUMPI PUSH1 0x40 MLOAD PUSH32 0x8C379A000000000000000000000000000000000000000000000000000000000 DUP2 MSTORE PUSH1 0x4 ADD PUSH2 0x29FB SWAP1 PUSH2 0x5443 JUMP JUMPDEST PUSH1 0x40 MLOAD DUP1 SWAP2 SUB SWAP1 REVERT JUMPDEST PUSH1 0x99 SLOAD TIMESTAMP LT ISZERO PUSH2 0x2A49 JUMPI PUSH1 0x40 MLOAD PUSH32 0x8C379A000000000000000000000000000000000000000000000000000000000 DUP2 MSTORE PUSH1 0x4 ADD PUSH2 0x2A40 SWAP1 PUSH2 0x54AF JUMP JUMPDEST PUSH1 0x40 MLOAD DUP1 SWAP2 SUB SWAP1 REVERT JUMPDEST PUSH2 0x2A51 PUSH2 0x346C JUMP JUMPDEST PUSH1 0x97 PUSH1 0x0 SWAP1 SLOAD SWAP1 PUSH2 0x100 EXP SWAP1 DIV PUSH20 0xFFFFFFFFFFFFFFFFFFFFFFFFFFFFFFFFFFFFFFFF AND PUSH20 0xFFFFFFFFFFFFFFFFFFFFFFFFFFFFFFFFFFFFFFFF AND PUSH4 0x23B872DD ADDRESS PUSH1 0x9D PUSH1 0x0 SWAP1 SLOAD SWAP1 PUSH2 0x100 EXP SWAP1 DIV PUSH20 0xFFFFFFFFFFFFFFFFFFFFFFFFFFFFFFFFFFFFFFFF AND PUSH1 0x98 SLOAD PUSH1 0x40 MLOAD DUP5 PUSH4 0xFFFFFFFF AND PUSH1 0xE0 SHL DUP2 MSTORE PUSH1 0x4 ADD PUSH2 0x2AD4 SWAP4 SWAP3 SWAP2 SWAP1 PUSH2 0x5524 JUMP JUMPDEST PUSH1 0x0 PUSH1 0x40 MLOAD DUP1 DUP4 SUB DUP2 PUSH1 0x0 DUP8 DUP1 EXTCODESIZE ISZERO DUP1 ISZERO PUSH2 0x2AEE JUMPI PUSH1 0x0 DUP1 REVERT JUMPDEST POP GAS CALL ISZERO DUP1 ISZERO PUSH2 0x2B02 JUMPI RETURNDATASIZE PUSH1 0x0 DUP1 RETURNDATACOPY RETURNDATASIZE PUSH1 0x0 REVERT JUMPDEST POP POP POP POP PUSH1 0x2 PUSH1 0x9D PUSH1 0x14 PUSH2 0x100 EXP DUP2 SLOAD DUP2 PUSH1 0xFF MUL NOT AND SWAP1 DUP4 PUSH1 0x3 DUP2 GT ISZERO PUSH2 0x2B2C JUMPI PUSH2 0x2B2B PUSH2 0x45F4 JUMP JUMPDEST JUMPDEST MUL OR SWAP1 SSTORE POP PUSH1 0x9D PUSH1 0x0 SWAP1 SLOAD SWAP1 PUSH2 0x100 EXP SWAP1 DIV PUSH20 0xFFFFFFFFFFFFFFFFFFFFFFFFFFFFFFFFFFFFFFFF AND PUSH20 0xFFFFFFFFFFFFFFFFFFFFFFFFFFFFFFFFFFFFFFFF AND PUSH32 0x8B01F9DD0400D6A1E84369A5FB8F6033934856FFA8EBADD707DCA302AB551695 PUSH1 0x9C SLOAD PUSH1 0x40 MLOAD PUSH2 0x2B9B SWAP2 SWAP1 PUSH2 0x4369 JUMP JUMPDEST PUSH1 0x40 MLOAD DUP1 SWAP2 SUB SWAP1 LOG2 JUMP JUMPDEST PUSH1 0x97 PUSH1 0x0 SWAP1 SLOAD SWAP1 PUSH2 0x100 EXP SWAP1 DIV PUSH20 0xFFFFFFFFFFFFFFFFFFFFFFFFFFFFFFFFFFFFFFFF AND DUP2 JUMP JUMPDEST PUSH1 0x0 CALLER SWAP1 POP SWAP1 JUMP JUMPDEST PUSH1 0x0 PUSH20 0xFFFFFFFFFFFFFFFFFFFFFFFFFFFFFFFFFFFFFFFF AND DUP4 PUSH20 0xFFFFFFFFFFFFFFFFFFFFFFFFFFFFFFFFFFFFFFFF AND EQ ISZERO PUSH2 0x2C43 JUMPI PUSH1 0x40 MLOAD PUSH32 0x8C379A000000000000000000000000000000000000000000000000000000000 DUP2 MSTORE PUSH1 0x4 ADD PUSH2 0x2C3A SWAP1 PUSH2 0x55CD JUMP JUMPDEST PUSH1 0x40 MLOAD DUP1 SWAP2 SUB SWAP1 REVERT JUMPDEST PUSH1 0x0 PUSH20 0xFFFFFFFFFFFFFFFFFFFFFFFFFFFFFFFFFFFFFFFF AND DUP3 PUSH20 0xFFFFFFFFFFFFFFFFFFFFFFFFFFFFFFFFFFFFFFFF AND EQ ISZERO PUSH2 0x2CB3 JUMPI PUSH1 0x40 MLOAD PUSH32 0x8C379A000000000000000000000000000000000000000000000000000000000 DUP2 MSTORE PUSH1 0x4 ADD PUSH2 0x2CAA SWAP1 PUSH2 0x565F JUMP JUMPDEST PUSH1 0x40 MLOAD DUP1 SWAP2 SUB SWAP1 REVERT JUMPDEST DUP1 PUSH1 0x34 PUSH1 0x0 DUP6 PUSH20 0xFFFFFFFFFFFFFFFFFFFFFFFFFFFFFFFFFFFFFFFF AND PUSH20 0xFFFFFFFFFFFFFFFFFFFFFFFFFFFFFFFFFFFFFFFF AND DUP2 MSTORE PUSH1 0x20 ADD SWAP1 DUP2 MSTORE PUSH1 0x20 ADD PUSH1 0x0 KECCAK256 PUSH1 0x0 DUP5 PUSH20 0xFFFFFFFFFFFFFFFFFFFFFFFFFFFFFFFFFFFFFFFF AND PUSH20 0xFFFFFFFFFFFFFFFFFFFFFFFFFFFFFFFFFFFFFFFF AND DUP2 MSTORE PUSH1 0x20 ADD SWAP1 DUP2 MSTORE PUSH1 0x20 ADD PUSH1 0x0 KECCAK256 DUP2 SWAP1 SSTORE POP DUP2 PUSH20 0xFFFFFFFFFFFFFFFFFFFFFFFFFFFFFFFFFFFFFFFF AND DUP4 PUSH20 0xFFFFFFFFFFFFFFFFFFFFFFFFFFFFFFFFFFFFFFFF AND PUSH32 0x8C5BE1E5EBEC7D5BD14F71427D1E84F3DD0314C0F7B2291E5B200AC8C7C3B925 DUP4 PUSH1 0x40 MLOAD PUSH2 0x2D91 SWAP2 SWAP1 PUSH2 0x4369 JUMP JUMPDEST PUSH1 0x40 MLOAD DUP1 SWAP2 SUB SWAP1 LOG3 POP POP POP JUMP JUMPDEST PUSH2 0x2DA8 DUP3 DUP3 PUSH2 0x39C6 JUMP JUMPDEST PUSH2 0x2EB5 JUMPI PUSH20 0xC02AAA39B223FE8D0A0E5C4F27EAD9083C756CC2 PUSH20 0xFFFFFFFFFFFFFFFFFFFFFFFFFFFFFFFFFFFFFFFF AND PUSH4 0xD0E30DB0 DUP3 PUSH1 0x40 MLOAD DUP3 PUSH4 0xFFFFFFFF AND PUSH1 0xE0 SHL DUP2 MSTORE PUSH1 0x4 ADD PUSH1 0x0 PUSH1 0x40 MLOAD DUP1 DUP4 SUB DUP2 DUP6 DUP9 DUP1 EXTCODESIZE ISZERO DUP1 ISZERO PUSH2 0x2E08 JUMPI PUSH1 0x0 DUP1 REVERT JUMPDEST POP GAS CALL ISZERO DUP1 ISZERO PUSH2 0x2E1C JUMPI RETURNDATASIZE PUSH1 0x0 DUP1 RETURNDATACOPY RETURNDATASIZE PUSH1 0x0 REVERT JUMPDEST POP POP POP POP POP PUSH20 0xC02AAA39B223FE8D0A0E5C4F27EAD9083C756CC2 PUSH20 0xFFFFFFFFFFFFFFFFFFFFFFFFFFFFFFFFFFFFFFFF AND PUSH4 0xA9059CBB DUP4 DUP4 PUSH1 0x40 MLOAD DUP4 PUSH4 0xFFFFFFFF AND PUSH1 0xE0 SHL DUP2 MSTORE PUSH1 0x4 ADD PUSH2 0x2E70 SWAP3 SWAP2 SWAP1 PUSH2 0x567F JUMP JUMPDEST PUSH1 0x20 PUSH1 0x40 MLOAD DUP1 DUP4 SUB DUP2 PUSH1 0x0 DUP8 GAS CALL ISZERO DUP1 ISZERO PUSH2 0x2E8F JUMPI RETURNDATASIZE PUSH1 0x0 DUP1 RETURNDATACOPY RETURNDATASIZE PUSH1 0x0 REVERT JUMPDEST POP POP POP POP PUSH1 0x40 MLOAD RETURNDATASIZE PUSH1 0x1F NOT PUSH1 0x1F DUP3 ADD AND DUP3 ADD DUP1 PUSH1 0x40 MSTORE POP DUP2 ADD SWAP1 PUSH2 0x2EB3 SWAP2 SWAP1 PUSH2 0x56D4 JUMP JUMPDEST POP JUMPDEST POP POP JUMP JUMPDEST PUSH1 0x0 PUSH20 0xFFFFFFFFFFFFFFFFFFFFFFFFFFFFFFFFFFFFFFFF AND DUP4 PUSH20 0xFFFFFFFFFFFFFFFFFFFFFFFFFFFFFFFFFFFFFFFF AND EQ ISZERO PUSH2 0x2F29 JUMPI PUSH1 0x40 MLOAD PUSH32 0x8C379A000000000000000000000000000000000000000000000000000000000 DUP2 MSTORE PUSH1 0x4 ADD PUSH2 0x2F20 SWAP1 PUSH2 0x5773 JUMP JUMPDEST PUSH1 0x40 MLOAD DUP1 SWAP2 SUB SWAP1 REVERT JUMPDEST PUSH1 0x0 PUSH20 0xFFFFFFFFFFFFFFFFFFFFFFFFFFFFFFFFFFFFFFFF AND DUP3 PUSH20 0xFFFFFFFFFFFFFFFFFFFFFFFFFFFFFFFFFFFFFFFF AND EQ ISZERO PUSH2 0x2F99 JUMPI PUSH1 0x40 MLOAD PUSH32 0x8C379A000000000000000000000000000000000000000000000000000000000 DUP2 MSTORE PUSH1 0x4 ADD PUSH2 0x2F90 SWAP1 PUSH2 0x5805 JUMP JUMPDEST PUSH1 0x40 MLOAD DUP1 SWAP2 SUB SWAP1 REVERT JUMPDEST PUSH2 0x2FA4 DUP4 DUP4 DUP4 PUSH2 0x3A42 JUMP JUMPDEST PUSH1 0x0 PUSH1 0x33 PUSH1 0x0 DUP6 PUSH20 0xFFFFFFFFFFFFFFFFFFFFFFFFFFFFFFFFFFFFFFFF AND PUSH20 0xFFFFFFFFFFFFFFFFFFFFFFFFFFFFFFFFFFFFFFFF AND DUP2 MSTORE PUSH1 0x20 ADD SWAP1 DUP2 MSTORE PUSH1 0x20 ADD PUSH1 0x0 KECCAK256 SLOAD SWAP1 POP DUP2 DUP2 LT ISZERO PUSH2 0x302B JUMPI PUSH1 0x40 MLOAD PUSH32 0x8C379A000000000000000000000000000000000000000000000000000000000 DUP2 MSTORE PUSH1 0x4 ADD PUSH2 0x3022 SWAP1 PUSH2 0x5897 JUMP JUMPDEST PUSH1 0x40 MLOAD DUP1 SWAP2 SUB SWAP1 REVERT JUMPDEST DUP2 DUP2 SUB PUSH1 0x33 PUSH1 0x0 DUP7 PUSH20 0xFFFFFFFFFFFFFFFFFFFFFFFFFFFFFFFFFFFFFFFF AND PUSH20 0xFFFFFFFFFFFFFFFFFFFFFFFFFFFFFFFFFFFFFFFF AND DUP2 MSTORE PUSH1 0x20 ADD SWAP1 DUP2 MSTORE PUSH1 0x20 ADD PUSH1 0x0 KECCAK256 DUP2 SWAP1 SSTORE POP DUP2 PUSH1 0x33 PUSH1 0x0 DUP6 PUSH20 0xFFFFFFFFFFFFFFFFFFFFFFFFFFFFFFFFFFFFFFFF AND PUSH20 0xFFFFFFFFFFFFFFFFFFFFFFFFFFFFFFFFFFFFFFFF AND DUP2 MSTORE PUSH1 0x20 ADD SWAP1 DUP2 MSTORE PUSH1 0x20 ADD PUSH1 0x0 KECCAK256 PUSH1 0x0 DUP3 DUP3 SLOAD PUSH2 0x30C0 SWAP2 SWAP1 PUSH2 0x48AC JUMP JUMPDEST SWAP3 POP POP DUP2 SWAP1 SSTORE POP DUP3 PUSH20 0xFFFFFFFFFFFFFFFFFFFFFFFFFFFFFFFFFFFFFFFF AND DUP5 PUSH20 0xFFFFFFFFFFFFFFFFFFFFFFFFFFFFFFFFFFFFFFFF AND PUSH32 0xDDF252AD1BE2C89B69C2B068FC378DAA952BA7F163C4A11628F55A4DF523B3EF DUP5 PUSH1 0x40 MLOAD PUSH2 0x3124 SWAP2 SWAP1 PUSH2 0x4369 JUMP JUMPDEST PUSH1 0x40 MLOAD DUP1 SWAP2 SUB SWAP1 LOG3 PUSH2 0x3137 DUP5 DUP5 DUP5 PUSH2 0x3BE3 JUMP JUMPDEST POP POP POP POP JUMP JUMPDEST PUSH1 0x0 PUSH1 0x1 SWAP1 SLOAD SWAP1 PUSH2 0x100 EXP SWAP1 DIV PUSH1 0xFF AND DUP1 PUSH2 0x3163 JUMPI POP PUSH1 0x0 DUP1 SLOAD SWAP1 PUSH2 0x100 EXP SWAP1 DIV PUSH1 0xFF AND ISZERO JUMPDEST PUSH2 0x31A2 JUMPI PUSH1 0x40 MLOAD PUSH32 0x8C379A000000000000000000000000000000000000000000000000000000000 DUP2 MSTORE PUSH1 0x4 ADD PUSH2 0x3199 SWAP1 PUSH2 0x4C86 JUMP JUMPDEST PUSH1 0x40 MLOAD DUP1 SWAP2 SUB SWAP1 REVERT JUMPDEST PUSH1 0x0 DUP1 PUSH1 0x1 SWAP1 SLOAD SWAP1 PUSH2 0x100 EXP SWAP1 DIV PUSH1 0xFF AND ISZERO SWAP1 POP DUP1 ISZERO PUSH2 0x31F2 JUMPI PUSH1 0x1 PUSH1 0x0 PUSH1 0x1 PUSH2 0x100 EXP DUP2 SLOAD DUP2 PUSH1 0xFF MUL NOT AND SWAP1 DUP4 ISZERO ISZERO MUL OR SWAP1 SSTORE POP PUSH1 0x1 PUSH1 0x0 DUP1 PUSH2 0x100 EXP DUP2 SLOAD DUP2 PUSH1 0xFF MUL NOT AND SWAP1 DUP4 ISZERO ISZERO MUL OR SWAP1 SSTORE POP JUMPDEST PUSH2 0x31FA PUSH2 0x3BE8 JUMP JUMPDEST PUSH2 0x3204 DUP4 DUP4 PUSH2 0x3CC1 JUMP JUMPDEST DUP1 ISZERO PUSH2 0x3225 JUMPI PUSH1 0x0 DUP1 PUSH1 0x1 PUSH2 0x100 EXP DUP2 SLOAD DUP2 PUSH1 0xFF MUL NOT AND SWAP1 DUP4 ISZERO ISZERO MUL OR SWAP1 SSTORE POP JUMPDEST POP POP POP JUMP JUMPDEST PUSH1 0x0 PUSH1 0x1 SWAP1 SLOAD SWAP1 PUSH2 0x100 EXP SWAP1 DIV PUSH1 0xFF AND DUP1 PUSH2 0x3250 JUMPI POP PUSH1 0x0 DUP1 SLOAD SWAP1 PUSH2 0x100 EXP SWAP1 DIV PUSH1 0xFF AND ISZERO JUMPDEST PUSH2 0x328F JUMPI PUSH1 0x40 MLOAD PUSH32 0x8C379A000000000000000000000000000000000000000000000000000000000 DUP2 MSTORE PUSH1 0x4 ADD PUSH2 0x3286 SWAP1 PUSH2 0x4C86 JUMP JUMPDEST PUSH1 0x40 MLOAD DUP1 SWAP2 SUB SWAP1 REVERT JUMPDEST PUSH1 0x0 DUP1 PUSH1 0x1 SWAP1 SLOAD SWAP1 PUSH2 0x100 EXP SWAP1 DIV PUSH1 0xFF AND ISZERO SWAP1 POP DUP1 ISZERO PUSH2 0x32DF JUMPI PUSH1 0x1 PUSH1 0x0 PUSH1 0x1 PUSH2 0x100 EXP DUP2 SLOAD DUP2 PUSH1 0xFF MUL NOT AND SWAP1 DUP4 ISZERO ISZERO MUL OR SWAP1 SSTORE POP PUSH1 0x1 PUSH1 0x0 DUP1 PUSH2 0x100 EXP DUP2 SLOAD DUP2 PUSH1 0xFF MUL NOT AND SWAP1 DUP4 ISZERO ISZERO MUL OR SWAP1 SSTORE POP JUMPDEST PUSH2 0x32E7 PUSH2 0x3DCA JUMP JUMPDEST DUP1 ISZERO PUSH2 0x3308 JUMPI PUSH1 0x0 DUP1 PUSH1 0x1 PUSH2 0x100 EXP DUP2 SLOAD DUP2 PUSH1 0xFF MUL NOT AND SWAP1 DUP4 ISZERO ISZERO MUL OR SWAP1 SSTORE POP JUMPDEST POP JUMP JUMPDEST PUSH1 0x0 PUSH20 0xFFFFFFFFFFFFFFFFFFFFFFFFFFFFFFFFFFFFFFFF AND DUP3 PUSH20 0xFFFFFFFFFFFFFFFFFFFFFFFFFFFFFFFFFFFFFFFF AND EQ ISZERO PUSH2 0x337B JUMPI PUSH1 0x40 MLOAD PUSH32 0x8C379A000000000000000000000000000000000000000000000000000000000 DUP2 MSTORE PUSH1 0x4 ADD PUSH2 0x3372 SWAP1 PUSH2 0x5903 JUMP JUMPDEST PUSH1 0x40 MLOAD DUP1 SWAP2 SUB SWAP1 REVERT JUMPDEST PUSH2 0x3387 PUSH1 0x0 DUP4 DUP4 PUSH2 0x3A42 JUMP JUMPDEST DUP1 PUSH1 0x35 PUSH1 0x0 DUP3 DUP3 SLOAD PUSH2 0x3399 SWAP2 SWAP1 PUSH2 0x48AC JUMP JUMPDEST SWAP3 POP POP DUP2 SWAP1 SSTORE POP DUP1 PUSH1 0x33 PUSH1 0x0 DUP5 PUSH20 0xFFFFFFFFFFFFFFFFFFFFFFFFFFFFFFFFFFFFFFFF AND PUSH20 0xFFFFFFFFFFFFFFFFFFFFFFFFFFFFFFFFFFFFFFFF AND DUP2 MSTORE PUSH1 0x20 ADD SWAP1 DUP2 MSTORE PUSH1 0x20 ADD PUSH1 0x0 KECCAK256 PUSH1 0x0 DUP3 DUP3 SLOAD PUSH2 0x33EF SWAP2 SWAP1 PUSH2 0x48AC JUMP JUMPDEST SWAP3 POP POP DUP2 SWAP1 SSTORE POP DUP2 PUSH20 0xFFFFFFFFFFFFFFFFFFFFFFFFFFFFFFFFFFFFFFFF AND PUSH1 0x0 PUSH20 0xFFFFFFFFFFFFFFFFFFFFFFFFFFFFFFFFFFFFFFFF AND PUSH32 0xDDF252AD1BE2C89B69C2B068FC378DAA952BA7F163C4A11628F55A4DF523B3EF DUP4 PUSH1 0x40 MLOAD PUSH2 0x3454 SWAP2 SWAP1 PUSH2 0x4369 JUMP JUMPDEST PUSH1 0x40 MLOAD DUP1 SWAP2 SUB SWAP1 LOG3 PUSH2 0x3468 PUSH1 0x0 DUP4 DUP4 PUSH2 0x3BE3 JUMP JUMPDEST POP POP JUMP JUMPDEST PUSH1 0x2 PUSH1 0x3 DUP2 GT ISZERO PUSH2 0x3480 JUMPI PUSH2 0x347F PUSH2 0x45F4 JUMP JUMPDEST JUMPDEST PUSH1 0x9D PUSH1 0x14 SWAP1 SLOAD SWAP1 PUSH2 0x100 EXP SWAP1 DIV PUSH1 0xFF AND PUSH1 0x3 DUP2 GT ISZERO PUSH2 0x34A2 JUMPI PUSH2 0x34A1 PUSH2 0x45F4 JUMP JUMPDEST JUMPDEST EQ ISZERO PUSH2 0x34E3 JUMPI PUSH1 0x40 MLOAD PUSH32 0x8C379A000000000000000000000000000000000000000000000000000000000 DUP2 MSTORE PUSH1 0x4 ADD PUSH2 0x34DA SWAP1 PUSH2 0x5995 JUMP JUMPDEST PUSH1 0x40 MLOAD DUP1 SWAP2 SUB SWAP1 REVERT JUMPDEST PUSH1 0x0 PUSH2 0x3E8 PUSH2 0x34F0 PUSH2 0xAFE JUMP JUMPDEST PUSH1 0x9F SLOAD PUSH2 0x34FD SWAP2 SWAP1 PUSH2 0x4902 JUMP JUMPDEST PUSH2 0x3507 SWAP2 SWAP1 PUSH2 0x4DD3 JUMP JUMPDEST SWAP1 POP PUSH1 0x0 PUSH4 0x1E13380 DUP3 PUSH2 0x351B SWAP2 SWAP1 PUSH2 0x4DD3 JUMP JUMPDEST SWAP1 POP PUSH1 0x0 PUSH1 0xA0 SLOAD TIMESTAMP PUSH2 0x352D SWAP2 SWAP1 PUSH2 0x4A34 JUMP JUMPDEST SWAP1 POP PUSH1 0x0 DUP3 DUP3 PUSH2 0x353D SWAP2 SWAP1 PUSH2 0x4902 JUMP JUMPDEST SWAP1 POP PUSH1 0x0 PUSH32 0x0 PUSH20 0xFFFFFFFFFFFFFFFFFFFFFFFFFFFFFFFFFFFFFFFF AND PUSH4 0xB3F00674 PUSH1 0x40 MLOAD DUP2 PUSH4 0xFFFFFFFF AND PUSH1 0xE0 SHL DUP2 MSTORE PUSH1 0x4 ADD PUSH1 0x20 PUSH1 0x40 MLOAD DUP1 DUP4 SUB DUP2 PUSH1 0x0 DUP8 GAS CALL ISZERO DUP1 ISZERO PUSH2 0x35AE JUMPI RETURNDATASIZE PUSH1 0x0 DUP1 RETURNDATACOPY RETURNDATASIZE PUSH1 0x0 REVERT JUMPDEST POP POP POP POP PUSH1 0x40 MLOAD RETURNDATASIZE PUSH1 0x1F NOT PUSH1 0x1F DUP3 ADD AND DUP3 ADD DUP1 PUSH1 0x40 MSTORE POP DUP2 ADD SWAP1 PUSH2 0x35D2 SWAP2 SWAP1 PUSH2 0x59E1 JUMP JUMPDEST SWAP1 POP PUSH1 0x0 PUSH32 0x0 PUSH20 0xFFFFFFFFFFFFFFFFFFFFFFFFFFFFFFFFFFFFFFFF AND PUSH4 0xEA90A12 PUSH1 0x40 MLOAD DUP2 PUSH4 0xFFFFFFFF AND PUSH1 0xE0 SHL DUP2 MSTORE PUSH1 0x4 ADD PUSH1 0x20 PUSH1 0x40 MLOAD DUP1 DUP4 SUB DUP2 PUSH1 0x0 DUP8 GAS CALL ISZERO DUP1 ISZERO PUSH2 0x3643 JUMPI RETURNDATASIZE PUSH1 0x0 DUP1 RETURNDATACOPY RETURNDATASIZE PUSH1 0x0 REVERT JUMPDEST POP POP POP POP PUSH1 0x40 MLOAD RETURNDATASIZE PUSH1 0x1F NOT PUSH1 0x1F DUP3 ADD AND DUP3 ADD DUP1 PUSH1 0x40 MSTORE POP DUP2 ADD SWAP1 PUSH2 0x3667 SWAP2 SWAP1 PUSH2 0x4850 JUMP JUMPDEST SWAP1 POP PUSH2 0x3E8 PUSH2 0x3674 PUSH2 0xAFE JUMP JUMPDEST DUP3 PUSH2 0x367F SWAP2 SWAP1 PUSH2 0x4902 JUMP JUMPDEST PUSH2 0x3689 SWAP2 SWAP1 PUSH2 0x4DD3 JUMP JUMPDEST SWAP6 POP PUSH4 0x1E13380 DUP7 PUSH2 0x369B SWAP2 SWAP1 PUSH2 0x4DD3 JUMP JUMPDEST SWAP5 POP PUSH1 0x0 DUP6 DUP6 PUSH2 0x36AB SWAP2 SWAP1 PUSH2 0x4902 JUMP JUMPDEST SWAP1 POP TIMESTAMP PUSH1 0xA0 DUP2 SWAP1 SSTORE POP PUSH1 0x0 PUSH20 0xFFFFFFFFFFFFFFFFFFFFFFFFFFFFFFFFFFFFFFFF AND PUSH1 0x9E PUSH1 0x0 SWAP1 SLOAD SWAP1 PUSH2 0x100 EXP SWAP1 DIV PUSH20 0xFFFFFFFFFFFFFFFFFFFFFFFFFFFFFFFFFFFFFFFF AND PUSH20 0xFFFFFFFFFFFFFFFFFFFFFFFFFFFFFFFFFFFFFFFF AND EQ PUSH2 0x376E JUMPI PUSH2 0x3736 PUSH1 0x9E PUSH1 0x0 SWAP1 SLOAD SWAP1 PUSH2 0x100 EXP SWAP1 DIV PUSH20 0xFFFFFFFFFFFFFFFFFFFFFFFFFFFFFFFFFFFFFFFF AND DUP6 PUSH2 0x330B JUMP JUMPDEST PUSH32 0x62B10E3FF3D45B5FF546E740B893897FACB1680285F989A64AE932D62C5388E1 DUP5 PUSH1 0x40 MLOAD PUSH2 0x3765 SWAP2 SWAP1 PUSH2 0x4369 JUMP JUMPDEST PUSH1 0x40 MLOAD DUP1 SWAP2 SUB SWAP1 LOG1 JUMPDEST PUSH1 0x0 PUSH20 0xFFFFFFFFFFFFFFFFFFFFFFFFFFFFFFFFFFFFFFFF AND DUP4 PUSH20 0xFFFFFFFFFFFFFFFFFFFFFFFFFFFFFFFFFFFFFFFF AND EQ PUSH2 0x37E4 JUMPI PUSH2 0x37AC DUP4 DUP3 PUSH2 0x330B JUMP JUMPDEST PUSH32 0x62B10E3FF3D45B5FF546E740B893897FACB1680285F989A64AE932D62C5388E1 DUP2 PUSH1 0x40 MLOAD PUSH2 0x37DB SWAP2 SWAP1 PUSH2 0x4369 JUMP JUMPDEST PUSH1 0x40 MLOAD DUP1 SWAP2 SUB SWAP1 LOG1 JUMPDEST POP POP POP POP POP POP POP JUMP JUMPDEST PUSH1 0x0 PUSH20 0xFFFFFFFFFFFFFFFFFFFFFFFFFFFFFFFFFFFFFFFF AND DUP3 PUSH20 0xFFFFFFFFFFFFFFFFFFFFFFFFFFFFFFFFFFFFFFFF AND EQ ISZERO PUSH2 0x385D JUMPI PUSH1 0x40 MLOAD PUSH32 0x8C379A000000000000000000000000000000000000000000000000000000000 DUP2 MSTORE PUSH1 0x4 ADD PUSH2 0x3854 SWAP1 PUSH2 0x5A80 JUMP JUMPDEST PUSH1 0x40 MLOAD DUP1 SWAP2 SUB SWAP1 REVERT JUMPDEST PUSH2 0x3869 DUP3 PUSH1 0x0 DUP4 PUSH2 0x3A42 JUMP JUMPDEST PUSH1 0x0 PUSH1 0x33 PUSH1 0x0 DUP5 PUSH20 0xFFFFFFFFFFFFFFFFFFFFFFFFFFFFFFFFFFFFFFFF AND PUSH20 0xFFFFFFFFFFFFFFFFFFFFFFFFFFFFFFFFFFFFFFFF AND DUP2 MSTORE PUSH1 0x20 ADD SWAP1 DUP2 MSTORE PUSH1 0x20 ADD PUSH1 0x0 KECCAK256 SLOAD SWAP1 POP DUP2 DUP2 LT ISZERO PUSH2 0x38F0 JUMPI PUSH1 0x40 MLOAD PUSH32 0x8C379A000000000000000000000000000000000000000000000000000000000 DUP2 MSTORE PUSH1 0x4 ADD PUSH2 0x38E7 SWAP1 PUSH2 0x5B12 JUMP JUMPDEST PUSH1 0x40 MLOAD DUP1 SWAP2 SUB SWAP1 REVERT JUMPDEST DUP2 DUP2 SUB PUSH1 0x33 PUSH1 0x0 DUP6 PUSH20 0xFFFFFFFFFFFFFFFFFFFFFFFFFFFFFFFFFFFFFFFF AND PUSH20 0xFFFFFFFFFFFFFFFFFFFFFFFFFFFFFFFFFFFFFFFF AND DUP2 MSTORE PUSH1 0x20 ADD SWAP1 DUP2 MSTORE PUSH1 0x20 ADD PUSH1 0x0 KECCAK256 DUP2 SWAP1 SSTORE POP DUP2 PUSH1 0x35 PUSH1 0x0 DUP3 DUP3 SLOAD PUSH2 0x3948 SWAP2 SWAP1 PUSH2 0x4A34 JUMP JUMPDEST SWAP3 POP POP DUP2 SWAP1 SSTORE POP PUSH1 0x0 PUSH20 0xFFFFFFFFFFFFFFFFFFFFFFFFFFFFFFFFFFFFFFFF AND DUP4 PUSH20 0xFFFFFFFFFFFFFFFFFFFFFFFFFFFFFFFFFFFFFFFF AND PUSH32 0xDDF252AD1BE2C89B69C2B068FC378DAA952BA7F163C4A11628F55A4DF523B3EF DUP5 PUSH1 0x40 MLOAD PUSH2 0x39AD SWAP2 SWAP1 PUSH2 0x4369 JUMP JUMPDEST PUSH1 0x40 MLOAD DUP1 SWAP2 SUB SWAP1 LOG3 PUSH2 0x39C1 DUP4 PUSH1 0x0 DUP5 PUSH2 0x3BE3 JUMP JUMPDEST POP POP POP JUMP JUMPDEST PUSH1 0x0 DUP1 DUP4 PUSH20 0xFFFFFFFFFFFFFFFFFFFFFFFFFFFFFFFFFFFFFFFF AND DUP4 PUSH2 0x7530 SWAP1 PUSH1 0x40 MLOAD PUSH2 0x39F1 SWAP1 PUSH2 0x5B63 JUMP JUMPDEST PUSH1 0x0 PUSH1 0x40 MLOAD DUP1 DUP4 SUB DUP2 DUP6 DUP9 DUP9 CALL SWAP4 POP POP POP POP RETURNDATASIZE DUP1 PUSH1 0x0 DUP2 EQ PUSH2 0x3A2F JUMPI PUSH1 0x40 MLOAD SWAP2 POP PUSH1 0x1F NOT PUSH1 0x3F RETURNDATASIZE ADD AND DUP3 ADD PUSH1 0x40 MSTORE RETURNDATASIZE DUP3 MSTORE RETURNDATASIZE PUSH1 0x0 PUSH1 0x20 DUP5 ADD RETURNDATACOPY PUSH2 0x3A34 JUMP JUMPDEST PUSH1 0x60 SWAP2 POP JUMPDEST POP POP SWAP1 POP DUP1 SWAP2 POP POP SWAP3 SWAP2 POP POP JUMP JUMPDEST PUSH1 0x0 PUSH1 0x3 DUP2 GT ISZERO PUSH2 0x3A56 JUMPI PUSH2 0x3A55 PUSH2 0x45F4 JUMP JUMPDEST JUMPDEST PUSH1 0x9D PUSH1 0x14 SWAP1 SLOAD SWAP1 PUSH2 0x100 EXP SWAP1 DIV PUSH1 0xFF AND PUSH1 0x3 DUP2 GT ISZERO PUSH2 0x3A78 JUMPI PUSH2 0x3A77 PUSH2 0x45F4 JUMP JUMPDEST JUMPDEST EQ ISZERO PUSH2 0x3BDE JUMPI PUSH1 0x0 PUSH1 0xA3 PUSH1 0x0 DUP6 PUSH20 0xFFFFFFFFFFFFFFFFFFFFFFFFFFFFFFFFFFFFFFFF AND PUSH20 0xFFFFFFFFFFFFFFFFFFFFFFFFFFFFFFFFFFFFFFFF AND DUP2 MSTORE PUSH1 0x20 ADD SWAP1 DUP2 MSTORE PUSH1 0x20 ADD PUSH1 0x0 KECCAK256 SLOAD SWAP1 POP PUSH1 0x0 PUSH1 0xA3 PUSH1 0x0 DUP6 PUSH20 0xFFFFFFFFFFFFFFFFFFFFFFFFFFFFFFFFFFFFFFFF AND PUSH20 0xFFFFFFFFFFFFFFFFFFFFFFFFFFFFFFFFFFFFFFFF AND DUP2 MSTORE PUSH1 0x20 ADD SWAP1 DUP2 MSTORE PUSH1 0x20 ADD PUSH1 0x0 KECCAK256 SLOAD SWAP1 POP DUP2 DUP2 EQ PUSH2 0x3BDB JUMPI PUSH1 0x0 DUP2 EQ ISZERO PUSH2 0x3B58 JUMPI DUP3 PUSH1 0xA2 PUSH1 0x0 DUP3 DUP3 SLOAD PUSH2 0x3B28 SWAP2 SWAP1 PUSH2 0x4A34 JUMP JUMPDEST SWAP3 POP POP DUP2 SWAP1 SSTORE POP DUP2 DUP4 PUSH2 0x3B3B SWAP2 SWAP1 PUSH2 0x4902 JUMP JUMPDEST PUSH1 0x9B PUSH1 0x0 DUP3 DUP3 SLOAD PUSH2 0x3B4C SWAP2 SWAP1 PUSH2 0x4A34 JUMP JUMPDEST SWAP3 POP POP DUP2 SWAP1 SSTORE POP PUSH2 0x3BDA JUMP JUMPDEST PUSH1 0x0 DUP3 EQ ISZERO PUSH2 0x3BA3 JUMPI DUP3 PUSH1 0xA2 PUSH1 0x0 DUP3 DUP3 SLOAD PUSH2 0x3B73 SWAP2 SWAP1 PUSH2 0x48AC JUMP JUMPDEST SWAP3 POP POP DUP2 SWAP1 SSTORE POP DUP1 DUP4 PUSH2 0x3B86 SWAP2 SWAP1 PUSH2 0x4902 JUMP JUMPDEST PUSH1 0x9B PUSH1 0x0 DUP3 DUP3 SLOAD PUSH2 0x3B97 SWAP2 SWAP1 PUSH2 0x48AC JUMP JUMPDEST SWAP3 POP POP DUP2 SWAP1 SSTORE POP PUSH2 0x3BD9 JUMP JUMPDEST DUP2 DUP4 PUSH2 0x3BAF SWAP2 SWAP1 PUSH2 0x4902 JUMP JUMPDEST DUP2 DUP5 PUSH2 0x3BBB SWAP2 SWAP1 PUSH2 0x4902 JUMP JUMPDEST PUSH1 0x9B SLOAD PUSH2 0x3BC8 SWAP2 SWAP1 PUSH2 0x48AC JUMP JUMPDEST PUSH2 0x3BD2 SWAP2 SWAP1 PUSH2 0x4A34 JUMP JUMPDEST PUSH1 0x9B DUP2 SWAP1 SSTORE POP JUMPDEST JUMPDEST JUMPDEST POP POP JUMPDEST POP POP POP JUMP JUMPDEST POP POP POP JUMP JUMPDEST PUSH1 0x0 PUSH1 0x1 SWAP1 SLOAD SWAP1 PUSH2 0x100 EXP SWAP1 DIV PUSH1 0xFF AND DUP1 PUSH2 0x3C0E JUMPI POP PUSH1 0x0 DUP1 SLOAD SWAP1 PUSH2 0x100 EXP SWAP1 DIV PUSH1 0xFF AND ISZERO JUMPDEST PUSH2 0x3C4D JUMPI PUSH1 0x40 MLOAD PUSH32 0x8C379A000000000000000000000000000000000000000000000000000000000 DUP2 MSTORE PUSH1 0x4 ADD PUSH2 0x3C44 SWAP1 PUSH2 0x4C86 JUMP JUMPDEST PUSH1 0x40 MLOAD DUP1 SWAP2 SUB SWAP1 REVERT JUMPDEST PUSH1 0x0 DUP1 PUSH1 0x1 SWAP1 SLOAD SWAP1 PUSH2 0x100 EXP SWAP1 DIV PUSH1 0xFF AND ISZERO SWAP1 POP DUP1 ISZERO PUSH2 0x3C9D JUMPI PUSH1 0x1 PUSH1 0x0 PUSH1 0x1 PUSH2 0x100 EXP DUP2 SLOAD DUP2 PUSH1 0xFF MUL NOT AND SWAP1 DUP4 ISZERO ISZERO MUL OR SWAP1 SSTORE POP PUSH1 0x1 PUSH1 0x0 DUP1 PUSH2 0x100 EXP DUP2 SLOAD DUP2 PUSH1 0xFF MUL NOT AND SWAP1 DUP4 ISZERO ISZERO MUL OR SWAP1 SSTORE POP JUMPDEST DUP1 ISZERO PUSH2 0x3CBE JUMPI PUSH1 0x0 DUP1 PUSH1 0x1 PUSH2 0x100 EXP DUP2 SLOAD DUP2 PUSH1 0xFF MUL NOT AND SWAP1 DUP4 ISZERO ISZERO MUL OR SWAP1 SSTORE POP JUMPDEST POP JUMP JUMPDEST PUSH1 0x0 PUSH1 0x1 SWAP1 SLOAD SWAP1 PUSH2 0x100 EXP SWAP1 DIV PUSH1 0xFF AND DUP1 PUSH2 0x3CE7 JUMPI POP PUSH1 0x0 DUP1 SLOAD SWAP1 PUSH2 0x100 EXP SWAP1 DIV PUSH1 0xFF AND ISZERO JUMPDEST PUSH2 0x3D26 JUMPI PUSH1 0x40 MLOAD PUSH32 0x8C379A000000000000000000000000000000000000000000000000000000000 DUP2 MSTORE PUSH1 0x4 ADD PUSH2 0x3D1D SWAP1 PUSH2 0x4C86 JUMP JUMPDEST PUSH1 0x40 MLOAD DUP1 SWAP2 SUB SWAP1 REVERT JUMPDEST PUSH1 0x0 DUP1 PUSH1 0x1 SWAP1 SLOAD SWAP1 PUSH2 0x100 EXP SWAP1 DIV PUSH1 0xFF AND ISZERO SWAP1 POP DUP1 ISZERO PUSH2 0x3D76 JUMPI PUSH1 0x1 PUSH1 0x0 PUSH1 0x1 PUSH2 0x100 EXP DUP2 SLOAD DUP2 PUSH1 0xFF MUL NOT AND SWAP1 DUP4 ISZERO ISZERO MUL OR SWAP1 SSTORE POP PUSH1 0x1 PUSH1 0x0 DUP1 PUSH2 0x100 EXP DUP2 SLOAD DUP2 PUSH1 0xFF MUL NOT AND SWAP1 DUP4 ISZERO ISZERO MUL OR SWAP1 SSTORE POP JUMPDEST DUP3 PUSH1 0x36 SWAP1 DUP1 MLOAD SWAP1 PUSH1 0x20 ADD SWAP1 PUSH2 0x3D8C SWAP3 SWAP2 SWAP1 PUSH2 0x3EA3 JUMP JUMPDEST POP DUP2 PUSH1 0x37 SWAP1 DUP1 MLOAD SWAP1 PUSH1 0x20 ADD SWAP1 PUSH2 0x3DA3 SWAP3 SWAP2 SWAP1 PUSH2 0x3EA3 JUMP JUMPDEST POP DUP1 ISZERO PUSH2 0x3DC5 JUMPI PUSH1 0x0 DUP1 PUSH1 0x1 PUSH2 0x100 EXP DUP2 SLOAD DUP2 PUSH1 0xFF MUL NOT AND SWAP1 DUP4 ISZERO ISZERO MUL OR SWAP1 SSTORE POP JUMPDEST POP POP POP JUMP JUMPDEST PUSH1 0x0 PUSH1 0x1 SWAP1 SLOAD SWAP1 PUSH2 0x100 EXP SWAP1 DIV PUSH1 0xFF AND DUP1 PUSH2 0x3DF0 JUMPI POP PUSH1 0x0 DUP1 SLOAD SWAP1 PUSH2 0x100 EXP SWAP1 DIV PUSH1 0xFF AND ISZERO JUMPDEST PUSH2 0x3E2F JUMPI PUSH1 0x40 MLOAD PUSH32 0x8C379A000000000000000000000000000000000000000000000000000000000 DUP2 MSTORE PUSH1 0x4 ADD PUSH2 0x3E26 SWAP1 PUSH2 0x4C86 JUMP JUMPDEST PUSH1 0x40 MLOAD DUP1 SWAP2 SUB SWAP1 REVERT JUMPDEST PUSH1 0x0 DUP1 PUSH1 0x1 SWAP1 SLOAD SWAP1 PUSH2 0x100 EXP SWAP1 DIV PUSH1 0xFF AND ISZERO SWAP1 POP DUP1 ISZERO PUSH2 0x3E7F JUMPI PUSH1 0x1 PUSH1 0x0 PUSH1 0x1 PUSH2 0x100 EXP DUP2 SLOAD DUP2 PUSH1 0xFF MUL NOT AND SWAP1 DUP4 ISZERO ISZERO MUL OR SWAP1 SSTORE POP PUSH1 0x1 PUSH1 0x0 DUP1 PUSH2 0x100 EXP DUP2 SLOAD DUP2 PUSH1 0xFF MUL NOT AND SWAP1 DUP4 ISZERO ISZERO MUL OR SWAP1 SSTORE POP JUMPDEST DUP1 ISZERO PUSH2 0x3EA0 JUMPI PUSH1 0x0 DUP1 PUSH1 0x1 PUSH2 0x100 EXP DUP2 SLOAD DUP2 PUSH1 0xFF MUL NOT AND SWAP1 DUP4 ISZERO ISZERO MUL OR SWAP1 SSTORE POP JUMPDEST POP JUMP JUMPDEST DUP3 DUP1 SLOAD PUSH2 0x3EAF SWAP1 PUSH2 0x4731 JUMP JUMPDEST SWAP1 PUSH1 0x0 MSTORE PUSH1 0x20 PUSH1 0x0 KECCAK256 SWAP1 PUSH1 0x1F ADD PUSH1 0x20 SWAP1 DIV DUP2 ADD SWAP3 DUP3 PUSH2 0x3ED1 JUMPI PUSH1 0x0 DUP6 SSTORE PUSH2 0x3F18 JUMP JUMPDEST DUP3 PUSH1 0x1F LT PUSH2 0x3EEA JUMPI DUP1 MLOAD PUSH1 0xFF NOT AND DUP4 DUP1 ADD OR DUP6 SSTORE PUSH2 0x3F18 JUMP JUMPDEST DUP3 DUP1 ADD PUSH1 0x1 ADD DUP6 SSTORE DUP3 ISZERO PUSH2 0x3F18 JUMPI SWAP2 DUP3 ADD JUMPDEST DUP3 DUP2 GT ISZERO PUSH2 0x3F17 JUMPI DUP3 MLOAD DUP3 SSTORE SWAP2 PUSH1 0x20 ADD SWAP2 SWAP1 PUSH1 0x1 ADD SWAP1 PUSH2 0x3EFC JUMP JUMPDEST JUMPDEST POP SWAP1 POP PUSH2 0x3F25 SWAP2 SWAP1 PUSH2 0x3F29 JUMP JUMPDEST POP SWAP1 JUMP JUMPDEST JUMPDEST DUP1 DUP3 GT ISZERO PUSH2 0x3F42 JUMPI PUSH1 0x0 DUP2 PUSH1 0x0 SWAP1 SSTORE POP PUSH1 0x1 ADD PUSH2 0x3F2A JUMP JUMPDEST POP SWAP1 JUMP JUMPDEST PUSH1 0x0 DUP2 MLOAD SWAP1 POP SWAP2 SWAP1 POP JUMP JUMPDEST PUSH1 0x0 DUP3 DUP3 MSTORE PUSH1 0x20 DUP3 ADD SWAP1 POP SWAP3 SWAP2 POP POP JUMP JUMPDEST PUSH1 0x0 JUMPDEST DUP4 DUP2 LT ISZERO PUSH2 0x3F80 JUMPI DUP1 DUP3 ADD MLOAD DUP2 DUP5 ADD MSTORE PUSH1 0x20 DUP2 ADD SWAP1 POP PUSH2 0x3F65 JUMP JUMPDEST DUP4 DUP2 GT ISZERO PUSH2 0x3F8F JUMPI PUSH1 0x0 DUP5 DUP5 ADD MSTORE JUMPDEST POP POP POP POP JUMP JUMPDEST PUSH1 0x0 PUSH1 0x1F NOT PUSH1 0x1F DUP4 ADD AND SWAP1 POP SWAP2 SWAP1 POP JUMP JUMPDEST PUSH1 0x0 PUSH2 0x3FB1 DUP3 PUSH2 0x3F46 JUMP JUMPDEST PUSH2 0x3FBB DUP2 DUP6 PUSH2 0x3F51 JUMP JUMPDEST SWAP4 POP PUSH2 0x3FCB DUP2 DUP6 PUSH1 0x20 DUP7 ADD PUSH2 0x3F62 JUMP JUMPDEST PUSH2 0x3FD4 DUP2 PUSH2 0x3F95 JUMP JUMPDEST DUP5 ADD SWAP2 POP POP SWAP3 SWAP2 POP POP JUMP JUMPDEST PUSH1 0x0 PUSH1 0x20 DUP3 ADD SWAP1 POP DUP2 DUP2 SUB PUSH1 0x0 DUP4 ADD MSTORE PUSH2 0x3FF9 DUP2 DUP5 PUSH2 0x3FA6 JUMP JUMPDEST SWAP1 POP SWAP3 SWAP2 POP POP JUMP JUMPDEST PUSH1 0x0 PUSH1 0x40 MLOAD SWAP1 POP SWAP1 JUMP JUMPDEST PUSH1 0x0 DUP1 REVERT JUMPDEST PUSH1 0x0 DUP1 REVERT JUMPDEST PUSH1 0x0 PUSH20 0xFFFFFFFFFFFFFFFFFFFFFFFFFFFFFFFFFFFFFFFF DUP3 AND SWAP1 POP SWAP2 SWAP1 POP JUMP JUMPDEST PUSH1 0x0 PUSH2 0x4040 DUP3 PUSH2 0x4015 JUMP JUMPDEST SWAP1 POP SWAP2 SWAP1 POP JUMP JUMPDEST PUSH2 0x4050 DUP2 PUSH2 0x4035 JUMP JUMPDEST DUP2 EQ PUSH2 0x405B JUMPI PUSH1 0x0 DUP1 REVERT JUMPDEST POP JUMP JUMPDEST PUSH1 0x0 DUP2 CALLDATALOAD SWAP1 POP PUSH2 0x406D DUP2 PUSH2 0x4047 JUMP JUMPDEST SWAP3 SWAP2 POP POP JUMP JUMPDEST PUSH1 0x0 DUP2 SWAP1 POP SWAP2 SWAP1 POP JUMP JUMPDEST PUSH2 0x4086 DUP2 PUSH2 0x4073 JUMP JUMPDEST DUP2 EQ PUSH2 0x4091 JUMPI PUSH1 0x0 DUP1 REVERT JUMPDEST POP JUMP JUMPDEST PUSH1 0x0 DUP2 CALLDATALOAD SWAP1 POP PUSH2 0x40A3 DUP2 PUSH2 0x407D JUMP JUMPDEST SWAP3 SWAP2 POP POP JUMP JUMPDEST PUSH1 0x0 DUP1 PUSH1 0x40 DUP4 DUP6 SUB SLT ISZERO PUSH2 0x40C0 JUMPI PUSH2 0x40BF PUSH2 0x400B JUMP JUMPDEST JUMPDEST PUSH1 0x0 PUSH2 0x40CE DUP6 DUP3 DUP7 ADD PUSH2 0x405E JUMP JUMPDEST SWAP3 POP POP PUSH1 0x20 PUSH2 0x40DF DUP6 DUP3 DUP7 ADD PUSH2 0x4094 JUMP JUMPDEST SWAP2 POP POP SWAP3 POP SWAP3 SWAP1 POP JUMP JUMPDEST PUSH1 0x0 DUP2 ISZERO ISZERO SWAP1 POP SWAP2 SWAP1 POP JUMP JUMPDEST PUSH2 0x40FE DUP2 PUSH2 0x40E9 JUMP JUMPDEST DUP3 MSTORE POP POP JUMP JUMPDEST PUSH1 0x0 PUSH1 0x20 DUP3 ADD SWAP1 POP PUSH2 0x4119 PUSH1 0x0 DUP4 ADD DUP5 PUSH2 0x40F5 JUMP JUMPDEST SWAP3 SWAP2 POP POP JUMP JUMPDEST PUSH1 0x0 PUSH1 0x20 DUP3 DUP5 SUB SLT ISZERO PUSH2 0x4135 JUMPI PUSH2 0x4134 PUSH2 0x400B JUMP JUMPDEST JUMPDEST PUSH1 0x0 PUSH2 0x4143 DUP5 DUP3 DUP6 ADD PUSH2 0x405E JUMP JUMPDEST SWAP2 POP POP SWAP3 SWAP2 POP POP JUMP JUMPDEST PUSH1 0x0 DUP1 REVERT JUMPDEST PUSH1 0x0 DUP1 REVERT JUMPDEST PUSH32 0x4E487B7100000000000000000000000000000000000000000000000000000000 PUSH1 0x0 MSTORE PUSH1 0x41 PUSH1 0x4 MSTORE PUSH1 0x24 PUSH1 0x0 REVERT JUMPDEST PUSH2 0x418E DUP3 PUSH2 0x3F95 JUMP JUMPDEST DUP2 ADD DUP2 DUP2 LT PUSH8 0xFFFFFFFFFFFFFFFF DUP3 GT OR ISZERO PUSH2 0x41AD JUMPI PUSH2 0x41AC PUSH2 0x4156 JUMP JUMPDEST JUMPDEST DUP1 PUSH1 0x40 MSTORE POP POP POP JUMP JUMPDEST PUSH1 0x0 PUSH2 0x41C0 PUSH2 0x4001 JUMP JUMPDEST SWAP1 POP PUSH2 0x41CC DUP3 DUP3 PUSH2 0x4185 JUMP JUMPDEST SWAP2 SWAP1 POP JUMP JUMPDEST PUSH1 0x0 PUSH8 0xFFFFFFFFFFFFFFFF DUP3 GT ISZERO PUSH2 0x41EC JUMPI PUSH2 0x41EB PUSH2 0x4156 JUMP JUMPDEST JUMPDEST PUSH2 0x41F5 DUP3 PUSH2 0x3F95 JUMP JUMPDEST SWAP1 POP PUSH1 0x20 DUP2 ADD SWAP1 POP SWAP2 SWAP1 POP JUMP JUMPDEST DUP3 DUP2 DUP4 CALLDATACOPY PUSH1 0x0 DUP4 DUP4 ADD MSTORE POP POP POP JUMP JUMPDEST PUSH1 0x0 PUSH2 0x4224 PUSH2 0x421F DUP5 PUSH2 0x41D1 JUMP JUMPDEST PUSH2 0x41B6 JUMP JUMPDEST SWAP1 POP DUP3 DUP2 MSTORE PUSH1 0x20 DUP2 ADD DUP5 DUP5 DUP5 ADD GT ISZERO PUSH2 0x4240 JUMPI PUSH2 0x423F PUSH2 0x4151 JUMP JUMPDEST JUMPDEST PUSH2 0x424B DUP5 DUP3 DUP6 PUSH2 0x4202 JUMP JUMPDEST POP SWAP4 SWAP3 POP POP POP JUMP JUMPDEST PUSH1 0x0 DUP3 PUSH1 0x1F DUP4 ADD SLT PUSH2 0x4268 JUMPI PUSH2 0x4267 PUSH2 0x414C JUMP JUMPDEST JUMPDEST DUP2 CALLDATALOAD PUSH2 0x4278 DUP5 DUP3 PUSH1 0x20 DUP7 ADD PUSH2 0x4211 JUMP JUMPDEST SWAP2 POP POP SWAP3 SWAP2 POP POP JUMP JUMPDEST PUSH1 0x0 DUP1 PUSH1 0x0 DUP1 PUSH1 0x80 DUP6 DUP8 SUB SLT ISZERO PUSH2 0x429B JUMPI PUSH2 0x429A PUSH2 0x400B JUMP JUMPDEST JUMPDEST PUSH1 0x0 PUSH2 0x42A9 DUP8 DUP3 DUP9 ADD PUSH2 0x405E JUMP JUMPDEST SWAP5 POP POP PUSH1 0x20 PUSH2 0x42BA DUP8 DUP3 DUP9 ADD PUSH2 0x405E JUMP JUMPDEST SWAP4 POP POP PUSH1 0x40 PUSH2 0x42CB DUP8 DUP3 DUP9 ADD PUSH2 0x4094 JUMP JUMPDEST SWAP3 POP POP PUSH1 0x60 DUP6 ADD CALLDATALOAD PUSH8 0xFFFFFFFFFFFFFFFF DUP2 GT ISZERO PUSH2 0x42EC JUMPI PUSH2 0x42EB PUSH2 0x4010 JUMP JUMPDEST JUMPDEST PUSH2 0x42F8 DUP8 DUP3 DUP9 ADD PUSH2 0x4253 JUMP JUMPDEST SWAP2 POP POP SWAP3 SWAP6 SWAP2 SWAP5 POP SWAP3 POP JUMP JUMPDEST PUSH1 0x0 PUSH32 0xFFFFFFFF00000000000000000000000000000000000000000000000000000000 DUP3 AND SWAP1 POP SWAP2 SWAP1 POP JUMP JUMPDEST PUSH2 0x4339 DUP2 PUSH2 0x4304 JUMP JUMPDEST DUP3 MSTORE POP POP JUMP JUMPDEST PUSH1 0x0 PUSH1 0x20 DUP3 ADD SWAP1 POP PUSH2 0x4354 PUSH1 0x0 DUP4 ADD DUP5 PUSH2 0x4330 JUMP JUMPDEST SWAP3 SWAP2 POP POP JUMP JUMPDEST PUSH2 0x4363 DUP2 PUSH2 0x4073 JUMP JUMPDEST DUP3 MSTORE POP POP JUMP JUMPDEST PUSH1 0x0 PUSH1 0x20 DUP3 ADD SWAP1 POP PUSH2 0x437E PUSH1 0x0 DUP4 ADD DUP5 PUSH2 0x435A JUMP JUMPDEST SWAP3 SWAP2 POP POP JUMP JUMPDEST PUSH1 0x0 DUP1 PUSH1 0x0 PUSH1 0x60 DUP5 DUP7 SUB SLT ISZERO PUSH2 0x439D JUMPI PUSH2 0x439C PUSH2 0x400B JUMP JUMPDEST JUMPDEST PUSH1 0x0 PUSH2 0x43AB DUP7 DUP3 DUP8 ADD PUSH2 0x405E JUMP JUMPDEST SWAP4 POP POP PUSH1 0x20 PUSH2 0x43BC DUP7 DUP3 DUP8 ADD PUSH2 0x405E JUMP JUMPDEST SWAP3 POP POP PUSH1 0x40 PUSH2 0x43CD DUP7 DUP3 DUP8 ADD PUSH2 0x4094 JUMP JUMPDEST SWAP2 POP POP SWAP3 POP SWAP3 POP SWAP3 JUMP JUMPDEST PUSH1 0x0 PUSH1 0x20 DUP3 DUP5 SUB SLT ISZERO PUSH2 0x43ED JUMPI PUSH2 0x43EC PUSH2 0x400B JUMP JUMPDEST JUMPDEST PUSH1 0x0 PUSH2 0x43FB DUP5 DUP3 DUP6 ADD PUSH2 0x4094 JUMP JUMPDEST SWAP2 POP POP SWAP3 SWAP2 POP POP JUMP JUMPDEST PUSH1 0x0 PUSH1 0xFF DUP3 AND SWAP1 POP SWAP2 SWAP1 POP JUMP JUMPDEST PUSH2 0x441A DUP2 PUSH2 0x4404 JUMP JUMPDEST DUP3 MSTORE POP POP JUMP JUMPDEST PUSH1 0x0 PUSH1 0x20 DUP3 ADD SWAP1 POP PUSH2 0x4435 PUSH1 0x0 DUP4 ADD DUP5 PUSH2 0x4411 JUMP JUMPDEST SWAP3 SWAP2 POP POP JUMP JUMPDEST PUSH2 0x4444 DUP2 PUSH2 0x4035 JUMP JUMPDEST DUP3 MSTORE POP POP JUMP JUMPDEST PUSH1 0x0 PUSH1 0x20 DUP3 ADD SWAP1 POP PUSH2 0x445F PUSH1 0x0 DUP4 ADD DUP5 PUSH2 0x443B JUMP JUMPDEST SWAP3 SWAP2 POP POP JUMP JUMPDEST PUSH1 0x0 PUSH8 0xFFFFFFFFFFFFFFFF DUP3 GT ISZERO PUSH2 0x4480 JUMPI PUSH2 0x447F PUSH2 0x4156 JUMP JUMPDEST JUMPDEST PUSH2 0x4489 DUP3 PUSH2 0x3F95 JUMP JUMPDEST SWAP1 POP PUSH1 0x20 DUP2 ADD SWAP1 POP SWAP2 SWAP1 POP JUMP JUMPDEST PUSH1 0x0 PUSH2 0x44A9 PUSH2 0x44A4 DUP5 PUSH2 0x4465 JUMP JUMPDEST PUSH2 0x41B6 JUMP JUMPDEST SWAP1 POP DUP3 DUP2 MSTORE PUSH1 0x20 DUP2 ADD DUP5 DUP5 DUP5 ADD GT ISZERO PUSH2 0x44C5 JUMPI PUSH2 0x44C4 PUSH2 0x4151 JUMP JUMPDEST JUMPDEST PUSH2 0x44D0 DUP5 DUP3 DUP6 PUSH2 0x4202 JUMP JUMPDEST POP SWAP4 SWAP3 POP POP POP JUMP JUMPDEST PUSH1 0x0 DUP3 PUSH1 0x1F DUP4 ADD SLT PUSH2 0x44ED JUMPI PUSH2 0x44EC PUSH2 0x414C JUMP JUMPDEST JUMPDEST DUP2 CALLDATALOAD PUSH2 0x44FD DUP5 DUP3 PUSH1 0x20 DUP7 ADD PUSH2 0x4496 JUMP JUMPDEST SWAP2 POP POP SWAP3 SWAP2 POP POP JUMP JUMPDEST PUSH1 0x0 DUP1 PUSH1 0x0 DUP1 PUSH1 0x0 DUP1 PUSH1 0x0 DUP1 PUSH2 0x100 DUP10 DUP12 SUB SLT ISZERO PUSH2 0x4527 JUMPI PUSH2 0x4526 PUSH2 0x400B JUMP JUMPDEST JUMPDEST PUSH1 0x0 PUSH2 0x4535 DUP12 DUP3 DUP13 ADD PUSH2 0x405E JUMP JUMPDEST SWAP9 POP POP PUSH1 0x20 PUSH2 0x4546 DUP12 DUP3 DUP13 ADD PUSH2 0x405E JUMP JUMPDEST SWAP8 POP POP PUSH1 0x40 PUSH2 0x4557 DUP12 DUP3 DUP13 ADD PUSH2 0x4094 JUMP JUMPDEST SWAP7 POP POP PUSH1 0x60 PUSH2 0x4568 DUP12 DUP3 DUP13 ADD PUSH2 0x4094 JUMP JUMPDEST SWAP6 POP POP PUSH1 0x80 PUSH2 0x4579 DUP12 DUP3 DUP13 ADD PUSH2 0x4094 JUMP JUMPDEST SWAP5 POP POP PUSH1 0xA0 PUSH2 0x458A DUP12 DUP3 DUP13 ADD PUSH2 0x4094 JUMP JUMPDEST SWAP4 POP POP PUSH1 0xC0 DUP10 ADD CALLDATALOAD PUSH8 0xFFFFFFFFFFFFFFFF DUP2 GT ISZERO PUSH2 0x45AB JUMPI PUSH2 0x45AA PUSH2 0x4010 JUMP JUMPDEST JUMPDEST PUSH2 0x45B7 DUP12 DUP3 DUP13 ADD PUSH2 0x44D8 JUMP JUMPDEST SWAP3 POP POP PUSH1 0xE0 DUP10 ADD CALLDATALOAD PUSH8 0xFFFFFFFFFFFFFFFF DUP2 GT ISZERO PUSH2 0x45D8 JUMPI PUSH2 0x45D7 PUSH2 0x4010 JUMP JUMPDEST JUMPDEST PUSH2 0x45E4 DUP12 DUP3 DUP13 ADD PUSH2 0x44D8 JUMP JUMPDEST SWAP2 POP POP SWAP3 SWAP6 SWAP9 POP SWAP3 SWAP6 SWAP9 SWAP1 SWAP4 SWAP7 POP JUMP JUMPDEST PUSH32 0x4E487B7100000000000000000000000000000000000000000000000000000000 PUSH1 0x0 MSTORE PUSH1 0x21 PUSH1 0x4 MSTORE PUSH1 0x24 PUSH1 0x0 REVERT JUMPDEST PUSH1 0x4 DUP2 LT PUSH2 0x4634 JUMPI PUSH2 0x4633 PUSH2 0x45F4 JUMP JUMPDEST JUMPDEST POP JUMP JUMPDEST PUSH1 0x0 DUP2 SWAP1 POP PUSH2 0x4645 DUP3 PUSH2 0x4623 JUMP JUMPDEST SWAP2 SWAP1 POP JUMP JUMPDEST PUSH1 0x0 PUSH2 0x4655 DUP3 PUSH2 0x4637 JUMP JUMPDEST SWAP1 POP SWAP2 SWAP1 POP JUMP JUMPDEST PUSH2 0x4665 DUP2 PUSH2 0x464A JUMP JUMPDEST DUP3 MSTORE POP POP JUMP JUMPDEST PUSH1 0x0 PUSH1 0x20 DUP3 ADD SWAP1 POP PUSH2 0x4680 PUSH1 0x0 DUP4 ADD DUP5 PUSH2 0x465C JUMP JUMPDEST SWAP3 SWAP2 POP POP JUMP JUMPDEST PUSH1 0x0 PUSH2 0x4691 DUP3 PUSH2 0x4015 JUMP JUMPDEST SWAP1 POP SWAP2 SWAP1 POP JUMP JUMPDEST PUSH2 0x46A1 DUP2 PUSH2 0x4686 JUMP JUMPDEST DUP3 MSTORE POP POP JUMP JUMPDEST PUSH1 0x0 PUSH1 0x20 DUP3 ADD SWAP1 POP PUSH2 0x46BC PUSH1 0x0 DUP4 ADD DUP5 PUSH2 0x4698 JUMP JUMPDEST SWAP3 SWAP2 POP POP JUMP JUMPDEST PUSH1 0x0 DUP1 PUSH1 0x40 DUP4 DUP6 SUB SLT ISZERO PUSH2 0x46D9 JUMPI PUSH2 0x46D8 PUSH2 0x400B JUMP JUMPDEST JUMPDEST PUSH1 0x0 PUSH2 0x46E7 DUP6 DUP3 DUP7 ADD PUSH2 0x405E JUMP JUMPDEST SWAP3 POP POP PUSH1 0x20 PUSH2 0x46F8 DUP6 DUP3 DUP7 ADD PUSH2 0x405E JUMP JUMPDEST SWAP2 POP POP SWAP3 POP SWAP3 SWAP1 POP JUMP JUMPDEST PUSH32 0x4E487B7100000000000000000000000000000000000000000000000000000000 PUSH1 0x0 MSTORE PUSH1 0x22 PUSH1 0x4 MSTORE PUSH1 0x24 PUSH1 0x0 REVERT JUMPDEST PUSH1 0x0 PUSH1 0x2 DUP3 DIV SWAP1 POP PUSH1 0x1 DUP3 AND DUP1 PUSH2 0x4749 JUMPI PUSH1 0x7F DUP3 AND SWAP2 POP JUMPDEST PUSH1 0x20 DUP3 LT DUP2 EQ ISZERO PUSH2 0x475D JUMPI PUSH2 0x475C PUSH2 0x4702 JUMP JUMPDEST JUMPDEST POP SWAP2 SWAP1 POP JUMP JUMPDEST PUSH32 0x7570646174653A6E6F742063757261746F720000000000000000000000000000 PUSH1 0x0 DUP3 ADD MSTORE POP JUMP JUMPDEST PUSH1 0x0 PUSH2 0x4799 PUSH1 0x12 DUP4 PUSH2 0x3F51 JUMP JUMPDEST SWAP2 POP PUSH2 0x47A4 DUP3 PUSH2 0x4763 JUMP JUMPDEST PUSH1 0x20 DUP3 ADD SWAP1 POP SWAP2 SWAP1 POP JUMP JUMPDEST PUSH1 0x0 PUSH1 0x20 DUP3 ADD SWAP1 POP DUP2 DUP2 SUB PUSH1 0x0 DUP4 ADD MSTORE PUSH2 0x47C8 DUP2 PUSH2 0x478C JUMP JUMPDEST SWAP1 POP SWAP2 SWAP1 POP JUMP JUMPDEST PUSH32 0x6269643A61756374696F6E206973206E6F74206C697665000000000000000000 PUSH1 0x0 DUP3 ADD MSTORE POP JUMP JUMPDEST PUSH1 0x0 PUSH2 0x4805 PUSH1 0x17 DUP4 PUSH2 0x3F51 JUMP JUMPDEST SWAP2 POP PUSH2 0x4810 DUP3 PUSH2 0x47CF JUMP JUMPDEST PUSH1 0x20 DUP3 ADD SWAP1 POP SWAP2 SWAP1 POP JUMP JUMPDEST PUSH1 0x0 PUSH1 0x20 DUP3 ADD SWAP1 POP DUP2 DUP2 SUB PUSH1 0x0 DUP4 ADD MSTORE PUSH2 0x4834 DUP2 PUSH2 0x47F8 JUMP JUMPDEST SWAP1 POP SWAP2 SWAP1 POP JUMP JUMPDEST PUSH1 0x0 DUP2 MLOAD SWAP1 POP PUSH2 0x484A DUP2 PUSH2 0x407D JUMP JUMPDEST SWAP3 SWAP2 POP POP JUMP JUMPDEST PUSH1 0x0 PUSH1 0x20 DUP3 DUP5 SUB SLT ISZERO PUSH2 0x4866 JUMPI PUSH2 0x4865 PUSH2 0x400B JUMP JUMPDEST JUMPDEST PUSH1 0x0 PUSH2 0x4874 DUP5 DUP3 DUP6 ADD PUSH2 0x483B JUMP JUMPDEST SWAP2 POP POP SWAP3 SWAP2 POP POP JUMP JUMPDEST PUSH32 0x4E487B7100000000000000000000000000000000000000000000000000000000 PUSH1 0x0 MSTORE PUSH1 0x11 PUSH1 0x4 MSTORE PUSH1 0x24 PUSH1 0x0 REVERT JUMPDEST PUSH1 0x0 PUSH2 0x48B7 DUP3 PUSH2 0x4073 JUMP JUMPDEST SWAP2 POP PUSH2 0x48C2 DUP4 PUSH2 0x4073 JUMP JUMPDEST SWAP3 POP DUP3 PUSH32 0xFFFFFFFFFFFFFFFFFFFFFFFFFFFFFFFFFFFFFFFFFFFFFFFFFFFFFFFFFFFFFFFF SUB DUP3 GT ISZERO PUSH2 0x48F7 JUMPI PUSH2 0x48F6 PUSH2 0x487D JUMP JUMPDEST JUMPDEST DUP3 DUP3 ADD SWAP1 POP SWAP3 SWAP2 POP POP JUMP JUMPDEST PUSH1 0x0 PUSH2 0x490D DUP3 PUSH2 0x4073 JUMP JUMPDEST SWAP2 POP PUSH2 0x4918 DUP4 PUSH2 0x4073 JUMP JUMPDEST SWAP3 POP DUP2 PUSH32 0xFFFFFFFFFFFFFFFFFFFFFFFFFFFFFFFFFFFFFFFFFFFFFFFFFFFFFFFFFFFFFFFF DIV DUP4 GT DUP3 ISZERO ISZERO AND ISZERO PUSH2 0x4951 JUMPI PUSH2 0x4950 PUSH2 0x487D JUMP JUMPDEST JUMPDEST DUP3 DUP3 MUL SWAP1 POP SWAP3 SWAP2 POP POP JUMP JUMPDEST PUSH32 0x6269643A746F6F206C6F77206269640000000000000000000000000000000000 PUSH1 0x0 DUP3 ADD MSTORE POP JUMP JUMPDEST PUSH1 0x0 PUSH2 0x4992 PUSH1 0xF DUP4 PUSH2 0x3F51 JUMP JUMPDEST SWAP2 POP PUSH2 0x499D DUP3 PUSH2 0x495C JUMP JUMPDEST PUSH1 0x20 DUP3 ADD SWAP1 POP SWAP2 SWAP1 POP JUMP JUMPDEST PUSH1 0x0 PUSH1 0x20 DUP3 ADD SWAP1 POP DUP2 DUP2 SUB PUSH1 0x0 DUP4 ADD MSTORE PUSH2 0x49C1 DUP2 PUSH2 0x4985 JUMP JUMPDEST SWAP1 POP SWAP2 SWAP1 POP JUMP JUMPDEST PUSH32 0x6269643A61756374696F6E20656E646564000000000000000000000000000000 PUSH1 0x0 DUP3 ADD MSTORE POP JUMP JUMPDEST PUSH1 0x0 PUSH2 0x49FE PUSH1 0x11 DUP4 PUSH2 0x3F51 JUMP JUMPDEST SWAP2 POP PUSH2 0x4A09 DUP3 PUSH2 0x49C8 JUMP JUMPDEST PUSH1 0x20 DUP3 ADD SWAP1 POP SWAP2 SWAP1 POP JUMP JUMPDEST PUSH1 0x0 PUSH1 0x20 DUP3 ADD SWAP1 POP DUP2 DUP2 SUB PUSH1 0x0 DUP4 ADD MSTORE PUSH2 0x4A2D DUP2 PUSH2 0x49F1 JUMP JUMPDEST SWAP1 POP SWAP2 SWAP1 POP JUMP JUMPDEST PUSH1 0x0 PUSH2 0x4A3F DUP3 PUSH2 0x4073 JUMP JUMPDEST SWAP2 POP PUSH2 0x4A4A DUP4 PUSH2 0x4073 JUMP JUMPDEST SWAP3 POP DUP3 DUP3 LT ISZERO PUSH2 0x4A5D JUMPI PUSH2 0x4A5C PUSH2 0x487D JUMP JUMPDEST JUMPDEST DUP3 DUP3 SUB SWAP1 POP SWAP3 SWAP2 POP POP JUMP JUMPDEST PUSH32 0x45524332303A207472616E7366657220616D6F756E7420657863656564732061 PUSH1 0x0 DUP3 ADD MSTORE PUSH32 0x6C6C6F77616E6365000000000000000000000000000000000000000000000000 PUSH1 0x20 DUP3 ADD MSTORE POP JUMP JUMPDEST PUSH1 0x0 PUSH2 0x4AC4 PUSH1 0x28 DUP4 PUSH2 0x3F51 JUMP JUMPDEST SWAP2 POP PUSH2 0x4ACF DUP3 PUSH2 0x4A68 JUMP JUMPDEST PUSH1 0x40 DUP3 ADD SWAP1 POP SWAP2 SWAP1 POP JUMP JUMPDEST PUSH1 0x0 PUSH1 0x20 DUP3 ADD SWAP1 POP DUP2 DUP2 SUB PUSH1 0x0 DUP4 ADD MSTORE PUSH2 0x4AF3 DUP2 PUSH2 0x4AB7 JUMP JUMPDEST SWAP1 POP SWAP2 SWAP1 POP JUMP JUMPDEST PUSH1 0x0 DUP2 MLOAD SWAP1 POP PUSH2 0x4B09 DUP2 PUSH2 0x4047 JUMP JUMPDEST SWAP3 SWAP2 POP POP JUMP JUMPDEST PUSH1 0x0 PUSH1 0x20 DUP3 DUP5 SUB SLT ISZERO PUSH2 0x4B25 JUMPI PUSH2 0x4B24 PUSH2 0x400B JUMP JUMPDEST JUMPDEST PUSH1 0x0 PUSH2 0x4B33 DUP5 DUP3 DUP6 ADD PUSH2 0x4AFA JUMP JUMPDEST SWAP2 POP POP SWAP3 SWAP2 POP POP JUMP JUMPDEST PUSH32 0x6B69636B3A6E6F7420676F760000000000000000000000000000000000000000 PUSH1 0x0 DUP3 ADD MSTORE POP JUMP JUMPDEST PUSH1 0x0 PUSH2 0x4B72 PUSH1 0xC DUP4 PUSH2 0x3F51 JUMP JUMPDEST SWAP2 POP PUSH2 0x4B7D DUP3 PUSH2 0x4B3C JUMP JUMPDEST PUSH1 0x20 DUP3 ADD SWAP1 POP SWAP2 SWAP1 POP JUMP JUMPDEST PUSH1 0x0 PUSH1 0x20 DUP3 ADD SWAP1 POP DUP2 DUP2 SUB PUSH1 0x0 DUP4 ADD MSTORE PUSH2 0x4BA1 DUP2 PUSH2 0x4B65 JUMP JUMPDEST SWAP1 POP SWAP2 SWAP1 POP JUMP JUMPDEST PUSH32 0x7570646174653A696E76616C69642061756374696F6E206C656E677468000000 PUSH1 0x0 DUP3 ADD MSTORE POP JUMP JUMPDEST PUSH1 0x0 PUSH2 0x4BDE PUSH1 0x1D DUP4 PUSH2 0x3F51 JUMP JUMPDEST SWAP2 POP PUSH2 0x4BE9 DUP3 PUSH2 0x4BA8 JUMP JUMPDEST PUSH1 0x20 DUP3 ADD SWAP1 POP SWAP2 SWAP1 POP JUMP JUMPDEST PUSH1 0x0 PUSH1 0x20 DUP3 ADD SWAP1 POP DUP2 DUP2 SUB PUSH1 0x0 DUP4 ADD MSTORE PUSH2 0x4C0D DUP2 PUSH2 0x4BD1 JUMP JUMPDEST SWAP1 POP SWAP2 SWAP1 POP JUMP JUMPDEST PUSH32 0x496E697469616C697A61626C653A20636F6E747261637420697320616C726561 PUSH1 0x0 DUP3 ADD MSTORE PUSH32 0x647920696E697469616C697A6564000000000000000000000000000000000000 PUSH1 0x20 DUP3 ADD MSTORE POP JUMP JUMPDEST PUSH1 0x0 PUSH2 0x4C70 PUSH1 0x2E DUP4 PUSH2 0x3F51 JUMP JUMPDEST SWAP2 POP PUSH2 0x4C7B DUP3 PUSH2 0x4C14 JUMP JUMPDEST PUSH1 0x40 DUP3 ADD SWAP1 POP SWAP2 SWAP1 POP JUMP JUMPDEST PUSH1 0x0 PUSH1 0x20 DUP3 ADD SWAP1 POP DUP2 DUP2 SUB PUSH1 0x0 DUP4 ADD MSTORE PUSH2 0x4C9F DUP2 PUSH2 0x4C63 JUMP JUMPDEST SWAP1 POP SWAP2 SWAP1 POP JUMP JUMPDEST PUSH32 0x7570646174653A61756374696F6E206C6976652063616E6E6F74207570646174 PUSH1 0x0 DUP3 ADD MSTORE PUSH32 0x6520707269636500000000000000000000000000000000000000000000000000 PUSH1 0x20 DUP3 ADD MSTORE POP JUMP JUMPDEST PUSH1 0x0 PUSH2 0x4D02 PUSH1 0x27 DUP4 PUSH2 0x3F51 JUMP JUMPDEST SWAP2 POP PUSH2 0x4D0D DUP3 PUSH2 0x4CA6 JUMP JUMPDEST PUSH1 0x40 DUP3 ADD SWAP1 POP SWAP2 SWAP1 POP JUMP JUMPDEST PUSH1 0x0 PUSH1 0x20 DUP3 ADD SWAP1 POP DUP2 DUP2 SUB PUSH1 0x0 DUP4 ADD MSTORE PUSH2 0x4D31 DUP2 PUSH2 0x4CF5 JUMP JUMPDEST SWAP1 POP SWAP2 SWAP1 POP JUMP JUMPDEST PUSH32 0x7570646174653A6E6F7420616E20757064617465000000000000000000000000 PUSH1 0x0 DUP3 ADD MSTORE POP JUMP JUMPDEST PUSH1 0x0 PUSH2 0x4D6E PUSH1 0x14 DUP4 PUSH2 0x3F51 JUMP JUMPDEST SWAP2 POP PUSH2 0x4D79 DUP3 PUSH2 0x4D38 JUMP JUMPDEST PUSH1 0x20 DUP3 ADD SWAP1 POP SWAP2 SWAP1 POP JUMP JUMPDEST PUSH1 0x0 PUSH1 0x20 DUP3 ADD SWAP1 POP DUP2 DUP2 SUB PUSH1 0x0 DUP4 ADD MSTORE PUSH2 0x4D9D DUP2 PUSH2 0x4D61 JUMP JUMPDEST SWAP1 POP SWAP2 SWAP1 POP JUMP JUMPDEST PUSH32 0x4E487B7100000000000000000000000000000000000000000000000000000000 PUSH1 0x0 MSTORE PUSH1 0x12 PUSH1 0x4 MSTORE PUSH1 0x24 PUSH1 0x0 REVERT JUMPDEST PUSH1 0x0 PUSH2 0x4DDE DUP3 PUSH2 0x4073 JUMP JUMPDEST SWAP2 POP PUSH2 0x4DE9 DUP4 PUSH2 0x4073 JUMP JUMPDEST SWAP3 POP DUP3 PUSH2 0x4DF9 JUMPI PUSH2 0x4DF8 PUSH2 0x4DA4 JUMP JUMPDEST JUMPDEST DUP3 DUP3 DIV SWAP1 POP SWAP3 SWAP2 POP POP JUMP JUMPDEST PUSH32 0x7570646174653A7265736572766520707269636520746F6F206C6F7700000000 PUSH1 0x0 DUP3 ADD MSTORE POP JUMP JUMPDEST PUSH1 0x0 PUSH2 0x4E3A PUSH1 0x1C DUP4 PUSH2 0x3F51 JUMP JUMPDEST SWAP2 POP PUSH2 0x4E45 DUP3 PUSH2 0x4E04 JUMP JUMPDEST PUSH1 0x20 DUP3 ADD SWAP1 POP SWAP2 SWAP1 POP JUMP JUMPDEST PUSH1 0x0 PUSH1 0x20 DUP3 ADD SWAP1 POP DUP2 DUP2 SUB PUSH1 0x0 DUP4 ADD MSTORE PUSH2 0x4E69 DUP2 PUSH2 0x4E2D JUMP JUMPDEST SWAP1 POP SWAP2 SWAP1 POP JUMP JUMPDEST PUSH32 0x7570646174653A7265736572766520707269636520746F6F2068696768000000 PUSH1 0x0 DUP3 ADD MSTORE POP JUMP JUMPDEST PUSH1 0x0 PUSH2 0x4EA6 PUSH1 0x1D DUP4 PUSH2 0x3F51 JUMP JUMPDEST SWAP2 POP PUSH2 0x4EB1 DUP3 PUSH2 0x4E70 JUMP JUMPDEST PUSH1 0x20 DUP3 ADD SWAP1 POP SWAP2 SWAP1 POP JUMP JUMPDEST PUSH1 0x0 PUSH1 0x20 DUP3 ADD SWAP1 POP DUP2 DUP2 SUB PUSH1 0x0 DUP4 ADD MSTORE PUSH2 0x4ED5 DUP2 PUSH2 0x4E99 JUMP JUMPDEST SWAP1 POP SWAP2 SWAP1 POP JUMP JUMPDEST PUSH32 0x72656D6F76653A6E6F7420676F76000000000000000000000000000000000000 PUSH1 0x0 DUP3 ADD MSTORE POP JUMP JUMPDEST PUSH1 0x0 PUSH2 0x4F12 PUSH1 0xE DUP4 PUSH2 0x3F51 JUMP JUMPDEST SWAP2 POP PUSH2 0x4F1D DUP3 PUSH2 0x4EDC JUMP JUMPDEST PUSH1 0x20 DUP3 ADD SWAP1 POP SWAP2 SWAP1 POP JUMP JUMPDEST PUSH1 0x0 PUSH1 0x20 DUP3 ADD SWAP1 POP DUP2 DUP2 SUB PUSH1 0x0 DUP4 ADD MSTORE PUSH2 0x4F41 DUP2 PUSH2 0x4F05 JUMP JUMPDEST SWAP1 POP SWAP2 SWAP1 POP JUMP JUMPDEST PUSH1 0x0 DUP2 SWAP1 POP SWAP2 SWAP1 POP JUMP JUMPDEST PUSH1 0x0 DUP2 SWAP1 POP SWAP2 SWAP1 POP JUMP JUMPDEST PUSH1 0x0 PUSH2 0x4F77 PUSH2 0x4F72 PUSH2 0x4F6D DUP5 PUSH2 0x4F48 JUMP JUMPDEST PUSH2 0x4F52 JUMP JUMPDEST PUSH2 0x4073 JUMP JUMPDEST SWAP1 POP SWAP2 SWAP1 POP JUMP JUMPDEST PUSH2 0x4F87 DUP2 PUSH2 0x4F5C JUMP JUMPDEST DUP3 MSTORE POP POP JUMP JUMPDEST PUSH1 0x0 PUSH1 0x20 DUP3 ADD SWAP1 POP PUSH2 0x4FA2 PUSH1 0x0 DUP4 ADD DUP5 PUSH2 0x4F7E JUMP JUMPDEST SWAP3 SWAP2 POP POP JUMP JUMPDEST PUSH32 0x7570646174653A63616E27742072616973650000000000000000000000000000 PUSH1 0x0 DUP3 ADD MSTORE POP JUMP JUMPDEST PUSH1 0x0 PUSH2 0x4FDE PUSH1 0x12 DUP4 PUSH2 0x3F51 JUMP JUMPDEST SWAP2 POP PUSH2 0x4FE9 DUP3 PUSH2 0x4FA8 JUMP JUMPDEST PUSH1 0x20 DUP3 ADD SWAP1 POP SWAP2 SWAP1 POP JUMP JUMPDEST PUSH1 0x0 PUSH1 0x20 DUP3 ADD SWAP1 POP DUP2 DUP2 SUB PUSH1 0x0 DUP4 ADD MSTORE PUSH2 0x500D DUP2 PUSH2 0x4FD1 JUMP JUMPDEST SWAP1 POP SWAP2 SWAP1 POP JUMP JUMPDEST PUSH32 0x7570646174653A63616E6E6F7420696E63726561736520666565207468697320 PUSH1 0x0 DUP3 ADD MSTORE PUSH32 0x6869676800000000000000000000000000000000000000000000000000000000 PUSH1 0x20 DUP3 ADD MSTORE POP JUMP JUMPDEST PUSH1 0x0 PUSH2 0x5070 PUSH1 0x24 DUP4 PUSH2 0x3F51 JUMP JUMPDEST SWAP2 POP PUSH2 0x507B DUP3 PUSH2 0x5014 JUMP JUMPDEST PUSH1 0x40 DUP3 ADD SWAP1 POP SWAP2 SWAP1 POP JUMP JUMPDEST PUSH1 0x0 PUSH1 0x20 DUP3 ADD SWAP1 POP DUP2 DUP2 SUB PUSH1 0x0 DUP4 ADD MSTORE PUSH2 0x509F DUP2 PUSH2 0x5063 JUMP JUMPDEST SWAP1 POP SWAP2 SWAP1 POP JUMP JUMPDEST PUSH32 0x636173683A7661756C74206E6F7420636C6F7365642079657400000000000000 PUSH1 0x0 DUP3 ADD MSTORE POP JUMP JUMPDEST PUSH1 0x0 PUSH2 0x50DC PUSH1 0x19 DUP4 PUSH2 0x3F51 JUMP JUMPDEST SWAP2 POP PUSH2 0x50E7 DUP3 PUSH2 0x50A6 JUMP JUMPDEST PUSH1 0x20 DUP3 ADD SWAP1 POP SWAP2 SWAP1 POP JUMP JUMPDEST PUSH1 0x0 PUSH1 0x20 DUP3 ADD SWAP1 POP DUP2 DUP2 SUB PUSH1 0x0 DUP4 ADD MSTORE PUSH2 0x510B DUP2 PUSH2 0x50CF JUMP JUMPDEST SWAP1 POP SWAP2 SWAP1 POP JUMP JUMPDEST PUSH32 0x636173683A6E6F20746F6B656E7320746F2063617368206F7574000000000000 PUSH1 0x0 DUP3 ADD MSTORE POP JUMP JUMPDEST PUSH1 0x0 PUSH2 0x5148 PUSH1 0x1A DUP4 PUSH2 0x3F51 JUMP JUMPDEST SWAP2 POP PUSH2 0x5153 DUP3 PUSH2 0x5112 JUMP JUMPDEST PUSH1 0x20 DUP3 ADD SWAP1 POP SWAP2 SWAP1 POP JUMP JUMPDEST PUSH1 0x0 PUSH1 0x20 DUP3 ADD SWAP1 POP DUP2 DUP2 SUB PUSH1 0x0 DUP4 ADD MSTORE PUSH2 0x5177 DUP2 PUSH2 0x513B JUMP JUMPDEST SWAP1 POP SWAP2 SWAP1 POP JUMP JUMPDEST PUSH32 0x45524332303A2064656372656173656420616C6C6F77616E63652062656C6F77 PUSH1 0x0 DUP3 ADD MSTORE PUSH32 0x207A65726F000000000000000000000000000000000000000000000000000000 PUSH1 0x20 DUP3 ADD MSTORE POP JUMP JUMPDEST PUSH1 0x0 PUSH2 0x51DA PUSH1 0x25 DUP4 PUSH2 0x3F51 JUMP JUMPDEST SWAP2 POP PUSH2 0x51E5 DUP3 PUSH2 0x517E JUMP JUMPDEST PUSH1 0x40 DUP3 ADD SWAP1 POP SWAP2 SWAP1 POP JUMP JUMPDEST PUSH1 0x0 PUSH1 0x20 DUP3 ADD SWAP1 POP DUP2 DUP2 SUB PUSH1 0x0 DUP4 ADD MSTORE PUSH2 0x5209 DUP2 PUSH2 0x51CD JUMP JUMPDEST SWAP1 POP SWAP2 SWAP1 POP JUMP JUMPDEST PUSH32 0x72656465656D3A6E6F2072656465656D696E6700000000000000000000000000 PUSH1 0x0 DUP3 ADD MSTORE POP JUMP JUMPDEST PUSH1 0x0 PUSH2 0x5246 PUSH1 0x13 DUP4 PUSH2 0x3F51 JUMP JUMPDEST SWAP2 POP PUSH2 0x5251 DUP3 PUSH2 0x5210 JUMP JUMPDEST PUSH1 0x20 DUP3 ADD SWAP1 POP SWAP2 SWAP1 POP JUMP JUMPDEST PUSH1 0x0 PUSH1 0x20 DUP3 ADD SWAP1 POP DUP2 DUP2 SUB PUSH1 0x0 DUP4 ADD MSTORE PUSH2 0x5275 DUP2 PUSH2 0x5239 JUMP JUMPDEST SWAP1 POP SWAP2 SWAP1 POP JUMP JUMPDEST PUSH1 0x0 PUSH1 0x60 DUP3 ADD SWAP1 POP PUSH2 0x5291 PUSH1 0x0 DUP4 ADD DUP7 PUSH2 0x443B JUMP JUMPDEST PUSH2 0x529E PUSH1 0x20 DUP4 ADD DUP6 PUSH2 0x443B JUMP JUMPDEST PUSH2 0x52AB PUSH1 0x40 DUP4 ADD DUP5 PUSH2 0x435A JUMP JUMPDEST SWAP5 SWAP4 POP POP POP POP JUMP JUMPDEST PUSH32 0x73746172743A6E6F2061756374696F6E20737461727473000000000000000000 PUSH1 0x0 DUP3 ADD MSTORE POP JUMP JUMPDEST PUSH1 0x0 PUSH2 0x52E9 PUSH1 0x17 DUP4 PUSH2 0x3F51 JUMP JUMPDEST SWAP2 POP PUSH2 0x52F4 DUP3 PUSH2 0x52B3 JUMP JUMPDEST PUSH1 0x20 DUP3 ADD SWAP1 POP SWAP2 SWAP1 POP JUMP JUMPDEST PUSH1 0x0 PUSH1 0x20 DUP3 ADD SWAP1 POP DUP2 DUP2 SUB PUSH1 0x0 DUP4 ADD MSTORE PUSH2 0x5318 DUP2 PUSH2 0x52DC JUMP JUMPDEST SWAP1 POP SWAP2 SWAP1 POP JUMP JUMPDEST PUSH32 0x73746172743A746F6F206C6F7720626964000000000000000000000000000000 PUSH1 0x0 DUP3 ADD MSTORE POP JUMP JUMPDEST PUSH1 0x0 PUSH2 0x5355 PUSH1 0x11 DUP4 PUSH2 0x3F51 JUMP JUMPDEST SWAP2 POP PUSH2 0x5360 DUP3 PUSH2 0x531F JUMP JUMPDEST PUSH1 0x20 DUP3 ADD SWAP1 POP SWAP2 SWAP1 POP JUMP JUMPDEST PUSH1 0x0 PUSH1 0x20 DUP3 ADD SWAP1 POP DUP2 DUP2 SUB PUSH1 0x0 DUP4 ADD MSTORE PUSH2 0x5384 DUP2 PUSH2 0x5348 JUMP JUMPDEST SWAP1 POP SWAP2 SWAP1 POP JUMP JUMPDEST PUSH32 0x73746172743A6E6F7420656E6F75676820766F74657273000000000000000000 PUSH1 0x0 DUP3 ADD MSTORE POP JUMP JUMPDEST PUSH1 0x0 PUSH2 0x53C1 PUSH1 0x17 DUP4 PUSH2 0x3F51 JUMP JUMPDEST SWAP2 POP PUSH2 0x53CC DUP3 PUSH2 0x538B JUMP JUMPDEST PUSH1 0x20 DUP3 ADD SWAP1 POP SWAP2 SWAP1 POP JUMP JUMPDEST PUSH1 0x0 PUSH1 0x20 DUP3 ADD SWAP1 POP DUP2 DUP2 SUB PUSH1 0x0 DUP4 ADD MSTORE PUSH2 0x53F0 DUP2 PUSH2 0x53B4 JUMP JUMPDEST SWAP1 POP SWAP2 SWAP1 POP JUMP JUMPDEST PUSH32 0x656E643A7661756C742068617320616C726561647920636C6F73656400000000 PUSH1 0x0 DUP3 ADD MSTORE POP JUMP JUMPDEST PUSH1 0x0 PUSH2 0x542D PUSH1 0x1C DUP4 PUSH2 0x3F51 JUMP JUMPDEST SWAP2 POP PUSH2 0x5438 DUP3 PUSH2 0x53F7 JUMP JUMPDEST PUSH1 0x20 DUP3 ADD SWAP1 POP SWAP2 SWAP1 POP JUMP JUMPDEST PUSH1 0x0 PUSH1 0x20 DUP3 ADD SWAP1 POP DUP2 DUP2 SUB PUSH1 0x0 DUP4 ADD MSTORE PUSH2 0x545C DUP2 PUSH2 0x5420 JUMP JUMPDEST SWAP1 POP SWAP2 SWAP1 POP JUMP JUMPDEST PUSH32 0x656E643A61756374696F6E206C69766500000000000000000000000000000000 PUSH1 0x0 DUP3 ADD MSTORE POP JUMP JUMPDEST PUSH1 0x0 PUSH2 0x5499 PUSH1 0x10 DUP4 PUSH2 0x3F51 JUMP JUMPDEST SWAP2 POP PUSH2 0x54A4 DUP3 PUSH2 0x5463 JUMP JUMPDEST PUSH1 0x20 DUP3 ADD SWAP1 POP SWAP2 SWAP1 POP JUMP JUMPDEST PUSH1 0x0 PUSH1 0x20 DUP3 ADD SWAP1 POP DUP2 DUP2 SUB PUSH1 0x0 DUP4 ADD MSTORE PUSH2 0x54C8 DUP2 PUSH2 0x548C JUMP JUMPDEST SWAP1 POP SWAP2 SWAP1 POP JUMP JUMPDEST PUSH1 0x0 PUSH2 0x54EA PUSH2 0x54E5 PUSH2 0x54E0 DUP5 PUSH2 0x4015 JUMP JUMPDEST PUSH2 0x4F52 JUMP JUMPDEST PUSH2 0x4015 JUMP JUMPDEST SWAP1 POP SWAP2 SWAP1 POP JUMP JUMPDEST PUSH1 0x0 PUSH2 0x54FC DUP3 PUSH2 0x54CF JUMP JUMPDEST SWAP1 POP SWAP2 SWAP1 POP JUMP JUMPDEST PUSH1 0x0 PUSH2 0x550E DUP3 PUSH2 0x54F1 JUMP JUMPDEST SWAP1 POP SWAP2 SWAP1 POP JUMP JUMPDEST PUSH2 0x551E DUP2 PUSH2 0x5503 JUMP JUMPDEST DUP3 MSTORE POP POP JUMP JUMPDEST PUSH1 0x0 PUSH1 0x60 DUP3 ADD SWAP1 POP PUSH2 0x5539 PUSH1 0x0 DUP4 ADD DUP7 PUSH2 0x443B JUMP JUMPDEST PUSH2 0x5546 PUSH1 0x20 DUP4 ADD DUP6 PUSH2 0x5515 JUMP JUMPDEST PUSH2 0x5553 PUSH1 0x40 DUP4 ADD DUP5 PUSH2 0x435A JUMP JUMPDEST SWAP5 SWAP4 POP POP POP POP JUMP JUMPDEST PUSH32 0x45524332303A20617070726F76652066726F6D20746865207A65726F20616464 PUSH1 0x0 DUP3 ADD MSTORE PUSH32 0x7265737300000000000000000000000000000000000000000000000000000000 PUSH1 0x20 DUP3 ADD MSTORE POP JUMP JUMPDEST PUSH1 0x0 PUSH2 0x55B7 PUSH1 0x24 DUP4 PUSH2 0x3F51 JUMP JUMPDEST SWAP2 POP PUSH2 0x55C2 DUP3 PUSH2 0x555B JUMP JUMPDEST PUSH1 0x40 DUP3 ADD SWAP1 POP SWAP2 SWAP1 POP JUMP JUMPDEST PUSH1 0x0 PUSH1 0x20 DUP3 ADD SWAP1 POP DUP2 DUP2 SUB PUSH1 0x0 DUP4 ADD MSTORE PUSH2 0x55E6 DUP2 PUSH2 0x55AA JUMP JUMPDEST SWAP1 POP SWAP2 SWAP1 POP JUMP JUMPDEST PUSH32 0x45524332303A20617070726F766520746F20746865207A65726F206164647265 PUSH1 0x0 DUP3 ADD MSTORE PUSH32 0x7373000000000000000000000000000000000000000000000000000000000000 PUSH1 0x20 DUP3 ADD MSTORE POP JUMP JUMPDEST PUSH1 0x0 PUSH2 0x5649 PUSH1 0x22 DUP4 PUSH2 0x3F51 JUMP JUMPDEST SWAP2 POP PUSH2 0x5654 DUP3 PUSH2 0x55ED JUMP JUMPDEST PUSH1 0x40 DUP3 ADD SWAP1 POP SWAP2 SWAP1 POP JUMP JUMPDEST PUSH1 0x0 PUSH1 0x20 DUP3 ADD SWAP1 POP DUP2 DUP2 SUB PUSH1 0x0 DUP4 ADD MSTORE PUSH2 0x5678 DUP2 PUSH2 0x563C JUMP JUMPDEST SWAP1 POP SWAP2 SWAP1 POP JUMP JUMPDEST PUSH1 0x0 PUSH1 0x40 DUP3 ADD SWAP1 POP PUSH2 0x5694 PUSH1 0x0 DUP4 ADD DUP6 PUSH2 0x443B JUMP JUMPDEST PUSH2 0x56A1 PUSH1 0x20 DUP4 ADD DUP5 PUSH2 0x435A JUMP JUMPDEST SWAP4 SWAP3 POP POP POP JUMP JUMPDEST PUSH2 0x56B1 DUP2 PUSH2 0x40E9 JUMP JUMPDEST DUP2 EQ PUSH2 0x56BC JUMPI PUSH1 0x0 DUP1 REVERT JUMPDEST POP JUMP JUMPDEST PUSH1 0x0 DUP2 MLOAD SWAP1 POP PUSH2 0x56CE DUP2 PUSH2 0x56A8 JUMP JUMPDEST SWAP3 SWAP2 POP POP JUMP JUMPDEST PUSH1 0x0 PUSH1 0x20 DUP3 DUP5 SUB SLT ISZERO PUSH2 0x56EA JUMPI PUSH2 0x56E9 PUSH2 0x400B JUMP JUMPDEST JUMPDEST PUSH1 0x0 PUSH2 0x56F8 DUP5 DUP3 DUP6 ADD PUSH2 0x56BF JUMP JUMPDEST SWAP2 POP POP SWAP3 SWAP2 POP POP JUMP JUMPDEST PUSH32 0x45524332303A207472616E736665722066726F6D20746865207A65726F206164 PUSH1 0x0 DUP3 ADD MSTORE PUSH32 0x6472657373000000000000000000000000000000000000000000000000000000 PUSH1 0x20 DUP3 ADD MSTORE POP JUMP JUMPDEST PUSH1 0x0 PUSH2 0x575D PUSH1 0x25 DUP4 PUSH2 0x3F51 JUMP JUMPDEST SWAP2 POP PUSH2 0x5768 DUP3 PUSH2 0x5701 JUMP JUMPDEST PUSH1 0x40 DUP3 ADD SWAP1 POP SWAP2 SWAP1 POP JUMP JUMPDEST PUSH1 0x0 PUSH1 0x20 DUP3 ADD SWAP1 POP DUP2 DUP2 SUB PUSH1 0x0 DUP4 ADD MSTORE PUSH2 0x578C DUP2 PUSH2 0x5750 JUMP JUMPDEST SWAP1 POP SWAP2 SWAP1 POP JUMP JUMPDEST PUSH32 0x45524332303A207472616E7366657220746F20746865207A65726F2061646472 PUSH1 0x0 DUP3 ADD MSTORE PUSH32 0x6573730000000000000000000000000000000000000000000000000000000000 PUSH1 0x20 DUP3 ADD MSTORE POP JUMP JUMPDEST PUSH1 0x0 PUSH2 0x57EF PUSH1 0x23 DUP4 PUSH2 0x3F51 JUMP JUMPDEST SWAP2 POP PUSH2 0x57FA DUP3 PUSH2 0x5793 JUMP JUMPDEST PUSH1 0x40 DUP3 ADD SWAP1 POP SWAP2 SWAP1 POP JUMP JUMPDEST PUSH1 0x0 PUSH1 0x20 DUP3 ADD SWAP1 POP DUP2 DUP2 SUB PUSH1 0x0 DUP4 ADD MSTORE PUSH2 0x581E DUP2 PUSH2 0x57E2 JUMP JUMPDEST SWAP1 POP SWAP2 SWAP1 POP JUMP JUMPDEST PUSH32 0x45524332303A207472616E7366657220616D6F756E7420657863656564732062 PUSH1 0x0 DUP3 ADD MSTORE PUSH32 0x616C616E63650000000000000000000000000000000000000000000000000000 PUSH1 0x20 DUP3 ADD MSTORE POP JUMP JUMPDEST PUSH1 0x0 PUSH2 0x5881 PUSH1 0x26 DUP4 PUSH2 0x3F51 JUMP JUMPDEST SWAP2 POP PUSH2 0x588C DUP3 PUSH2 0x5825 JUMP JUMPDEST PUSH1 0x40 DUP3 ADD SWAP1 POP SWAP2 SWAP1 POP JUMP JUMPDEST PUSH1 0x0 PUSH1 0x20 DUP3 ADD SWAP1 POP DUP2 DUP2 SUB PUSH1 0x0 DUP4 ADD MSTORE PUSH2 0x58B0 DUP2 PUSH2 0x5874 JUMP JUMPDEST SWAP1 POP SWAP2 SWAP1 POP JUMP JUMPDEST PUSH32 0x45524332303A206D696E7420746F20746865207A65726F206164647265737300 PUSH1 0x0 DUP3 ADD MSTORE POP JUMP JUMPDEST PUSH1 0x0 PUSH2 0x58ED PUSH1 0x1F DUP4 PUSH2 0x3F51 JUMP JUMPDEST SWAP2 POP PUSH2 0x58F8 DUP3 PUSH2 0x58B7 JUMP JUMPDEST PUSH1 0x20 DUP3 ADD SWAP1 POP SWAP2 SWAP1 POP JUMP JUMPDEST PUSH1 0x0 PUSH1 0x20 DUP3 ADD SWAP1 POP DUP2 DUP2 SUB PUSH1 0x0 DUP4 ADD MSTORE PUSH2 0x591C DUP2 PUSH2 0x58E0 JUMP JUMPDEST SWAP1 POP SWAP2 SWAP1 POP JUMP JUMPDEST PUSH32 0x636C61696D3A63616E6E6F7420636C61696D2061667465722061756374696F6E PUSH1 0x0 DUP3 ADD MSTORE PUSH32 0x20656E6473000000000000000000000000000000000000000000000000000000 PUSH1 0x20 DUP3 ADD MSTORE POP JUMP JUMPDEST PUSH1 0x0 PUSH2 0x597F PUSH1 0x25 DUP4 PUSH2 0x3F51 JUMP JUMPDEST SWAP2 POP PUSH2 0x598A DUP3 PUSH2 0x5923 JUMP JUMPDEST PUSH1 0x40 DUP3 ADD SWAP1 POP SWAP2 SWAP1 POP JUMP JUMPDEST PUSH1 0x0 PUSH1 0x20 DUP3 ADD SWAP1 POP DUP2 DUP2 SUB PUSH1 0x0 DUP4 ADD MSTORE PUSH2 0x59AE DUP2 PUSH2 0x5972 JUMP JUMPDEST SWAP1 POP SWAP2 SWAP1 POP JUMP JUMPDEST PUSH2 0x59BE DUP2 PUSH2 0x4686 JUMP JUMPDEST DUP2 EQ PUSH2 0x59C9 JUMPI PUSH1 0x0 DUP1 REVERT JUMPDEST POP JUMP JUMPDEST PUSH1 0x0 DUP2 MLOAD SWAP1 POP PUSH2 0x59DB DUP2 PUSH2 0x59B5 JUMP JUMPDEST SWAP3 SWAP2 POP POP JUMP JUMPDEST PUSH1 0x0 PUSH1 0x20 DUP3 DUP5 SUB SLT ISZERO PUSH2 0x59F7 JUMPI PUSH2 0x59F6 PUSH2 0x400B JUMP JUMPDEST JUMPDEST PUSH1 0x0 PUSH2 0x5A05 DUP5 DUP3 DUP6 ADD PUSH2 0x59CC JUMP JUMPDEST SWAP2 POP POP SWAP3 SWAP2 POP POP JUMP JUMPDEST PUSH32 0x45524332303A206275726E2066726F6D20746865207A65726F20616464726573 PUSH1 0x0 DUP3 ADD MSTORE PUSH32 0x7300000000000000000000000000000000000000000000000000000000000000 PUSH1 0x20 DUP3 ADD MSTORE POP JUMP JUMPDEST PUSH1 0x0 PUSH2 0x5A6A PUSH1 0x21 DUP4 PUSH2 0x3F51 JUMP JUMPDEST SWAP2 POP PUSH2 0x5A75 DUP3 PUSH2 0x5A0E JUMP JUMPDEST PUSH1 0x40 DUP3 ADD SWAP1 POP SWAP2 SWAP1 POP JUMP JUMPDEST PUSH1 0x0 PUSH1 0x20 DUP3 ADD SWAP1 POP DUP2 DUP2 SUB PUSH1 0x0 DUP4 ADD MSTORE PUSH2 0x5A99 DUP2 PUSH2 0x5A5D JUMP JUMPDEST SWAP1 POP SWAP2 SWAP1 POP JUMP JUMPDEST PUSH32 0x45524332303A206275726E20616D6F756E7420657863656564732062616C616E PUSH1 0x0 DUP3 ADD MSTORE PUSH32 0x6365000000000000000000000000000000000000000000000000000000000000 PUSH1 0x20 DUP3 ADD MSTORE POP JUMP JUMPDEST PUSH1 0x0 PUSH2 0x5AFC PUSH1 0x22 DUP4 PUSH2 0x3F51 JUMP JUMPDEST SWAP2 POP PUSH2 0x5B07 DUP3 PUSH2 0x5AA0 JUMP JUMPDEST PUSH1 0x40 DUP3 ADD SWAP1 POP SWAP2 SWAP1 POP JUMP JUMPDEST PUSH1 0x0 PUSH1 0x20 DUP3 ADD SWAP1 POP DUP2 DUP2 SUB PUSH1 0x0 DUP4 ADD MSTORE PUSH2 0x5B2B DUP2 PUSH2 0x5AEF JUMP JUMPDEST SWAP1 POP SWAP2 SWAP1 POP JUMP JUMPDEST PUSH1 0x0 DUP2 SWAP1 POP SWAP3 SWAP2 POP POP JUMP JUMPDEST POP JUMP JUMPDEST PUSH1 0x0 PUSH2 0x5B4D PUSH1 0x0 DUP4 PUSH2 0x5B32 JUMP JUMPDEST SWAP2 POP PUSH2 0x5B58 DUP3 PUSH2 0x5B3D JUMP JUMPDEST PUSH1 0x0 DUP3 ADD SWAP1 POP SWAP2 SWAP1 POP JUMP JUMPDEST PUSH1 0x0 PUSH2 0x5B6E DUP3 PUSH2 0x5B40 JUMP JUMPDEST SWAP2 POP DUP2 SWAP1 POP SWAP2 SWAP1 POP JUMP INVALID LOG2 PUSH5 0x6970667358 0x22 SLT KECCAK256 0xE8 0xFB JUMPI DUP15 0x23 MSTORE CREATE 0xCA POP 0xC1 GT OR 0xC7 PUSH26 0xD77118A0ED12C37BBA25944B47AC8AC0F1E464736F6C63430008 EXP STOP CALLER "
		},
		"gasEstimates": {
			"creation": {
				"codeDepositCost": "1319800",
				"executionCost": "infinite",
				"totalCost": "infinite"
			},
			"external": {
				"logic()": "infinite",
				"mint(string,string,address,uint256,uint256,uint256,uint256)": "infinite",
				"owner()": "2522",
				"pause()": "infinite",
				"paused()": "2552",
				"renounceOwnership()": "30374",
				"settings()": "infinite",
				"transferOwnership(address)": "30788",
				"unpause()": "infinite",
				"vaultCount()": "2451",
				"vaults(uint256)": "2928"
			}
		},
		"methodIdentifiers": {
			"logic()": "d7dfa0dd",
			"mint(string,string,address,uint256,uint256,uint256,uint256)": "bdc01110",
			"owner()": "8da5cb5b",
			"pause()": "8456cb59",
			"paused()": "5c975abb",
			"renounceOwnership()": "715018a6",
			"settings()": "e06174e4",
			"transferOwnership(address)": "f2fde38b",
			"unpause()": "3f4ba83a",
			"vaultCount()": "a7c6a100",
			"vaults(uint256)": "8c64ea4a"
		}
	},
	"abi": [
		{
			"inputs": [
				{
					"internalType": "address",
					"name": "_settings",
					"type": "address"
				}
			],
			"stateMutability": "nonpayable",
			"type": "constructor"
		},
		{
			"anonymous": false,
			"inputs": [
				{
					"indexed": true,
					"internalType": "address",
					"name": "token",
					"type": "address"
				},
				{
					"indexed": false,
					"internalType": "uint256",
					"name": "id",
					"type": "uint256"
				},
				{
					"indexed": false,
					"internalType": "uint256",
					"name": "price",
					"type": "uint256"
				},
				{
					"indexed": false,
					"internalType": "address",
					"name": "vault",
					"type": "address"
				},
				{
					"indexed": false,
					"internalType": "uint256",
					"name": "vaultId",
					"type": "uint256"
				}
			],
			"name": "Mint",
			"type": "event"
		},
		{
			"anonymous": false,
			"inputs": [
				{
					"indexed": true,
					"internalType": "address",
					"name": "previousOwner",
					"type": "address"
				},
				{
					"indexed": true,
					"internalType": "address",
					"name": "newOwner",
					"type": "address"
				}
			],
			"name": "OwnershipTransferred",
			"type": "event"
		},
		{
			"anonymous": false,
			"inputs": [
				{
					"indexed": false,
					"internalType": "address",
					"name": "account",
					"type": "address"
				}
			],
			"name": "Paused",
			"type": "event"
		},
		{
			"anonymous": false,
			"inputs": [
				{
					"indexed": false,
					"internalType": "address",
					"name": "account",
					"type": "address"
				}
			],
			"name": "Unpaused",
			"type": "event"
		},
		{
			"inputs": [],
			"name": "logic",
			"outputs": [
				{
					"internalType": "address",
					"name": "",
					"type": "address"
				}
			],
			"stateMutability": "view",
			"type": "function"
		},
		{
			"inputs": [
				{
					"internalType": "string",
					"name": "_name",
					"type": "string"
				},
				{
					"internalType": "string",
					"name": "_symbol",
					"type": "string"
				},
				{
					"internalType": "address",
					"name": "_token",
					"type": "address"
				},
				{
					"internalType": "uint256",
					"name": "_id",
					"type": "uint256"
				},
				{
					"internalType": "uint256",
					"name": "_supply",
					"type": "uint256"
				},
				{
					"internalType": "uint256",
					"name": "_listPrice",
					"type": "uint256"
				},
				{
					"internalType": "uint256",
					"name": "_fee",
					"type": "uint256"
				}
			],
			"name": "mint",
			"outputs": [
				{
					"internalType": "uint256",
					"name": "",
					"type": "uint256"
				}
			],
			"stateMutability": "nonpayable",
			"type": "function"
		},
		{
			"inputs": [],
			"name": "owner",
			"outputs": [
				{
					"internalType": "address",
					"name": "",
					"type": "address"
				}
			],
			"stateMutability": "view",
			"type": "function"
		},
		{
			"inputs": [],
			"name": "pause",
			"outputs": [],
			"stateMutability": "nonpayable",
			"type": "function"
		},
		{
			"inputs": [],
			"name": "paused",
			"outputs": [
				{
					"internalType": "bool",
					"name": "",
					"type": "bool"
				}
			],
			"stateMutability": "view",
			"type": "function"
		},
		{
			"inputs": [],
			"name": "renounceOwnership",
			"outputs": [],
			"stateMutability": "nonpayable",
			"type": "function"
		},
		{
			"inputs": [],
			"name": "settings",
			"outputs": [
				{
					"internalType": "address",
					"name": "",
					"type": "address"
				}
			],
			"stateMutability": "view",
			"type": "function"
		},
		{
			"inputs": [
				{
					"internalType": "address",
					"name": "newOwner",
					"type": "address"
				}
			],
			"name": "transferOwnership",
			"outputs": [],
			"stateMutability": "nonpayable",
			"type": "function"
		},
		{
			"inputs": [],
			"name": "unpause",
			"outputs": [],
			"stateMutability": "nonpayable",
			"type": "function"
		},
		{
			"inputs": [],
			"name": "vaultCount",
			"outputs": [
				{
					"internalType": "uint256",
					"name": "",
					"type": "uint256"
				}
			],
			"stateMutability": "view",
			"type": "function"
		},
		{
			"inputs": [
				{
					"internalType": "uint256",
					"name": "",
					"type": "uint256"
				}
			],
			"name": "vaults",
			"outputs": [
				{
					"internalType": "address",
					"name": "",
					"type": "address"
				}
			],
			"stateMutability": "view",
			"type": "function"
		}
	]
}